{
  "_format": "hh-sol-artifact-1",
  "contractName": "OwnerManager",
  "sourceName": "@gnosis.pm/safe-contracts/contracts/base/OwnerManager.sol",
  "abi": [
    {
      "anonymous": false,
      "inputs": [
        {
          "indexed": false,
          "internalType": "address",
          "name": "owner",
          "type": "address"
        }
      ],
      "name": "AddedOwner",
      "type": "event"
    },
    {
      "anonymous": false,
      "inputs": [
        {
          "indexed": false,
          "internalType": "uint256",
          "name": "threshold",
          "type": "uint256"
        }
      ],
      "name": "ChangedThreshold",
      "type": "event"
    },
    {
      "anonymous": false,
      "inputs": [
        {
          "indexed": false,
          "internalType": "address",
          "name": "owner",
          "type": "address"
        }
      ],
      "name": "RemovedOwner",
      "type": "event"
    },
    {
      "inputs": [
        {
          "internalType": "address",
          "name": "owner",
          "type": "address"
        },
        {
          "internalType": "uint256",
          "name": "_threshold",
          "type": "uint256"
        }
      ],
      "name": "addOwnerWithThreshold",
      "outputs": [],
      "stateMutability": "nonpayable",
      "type": "function"
    },
    {
      "inputs": [
        {
          "internalType": "uint256",
          "name": "_threshold",
          "type": "uint256"
        }
      ],
      "name": "changeThreshold",
      "outputs": [],
      "stateMutability": "nonpayable",
      "type": "function"
    },
    {
      "inputs": [],
      "name": "getOwners",
      "outputs": [
        {
          "internalType": "address[]",
          "name": "",
          "type": "address[]"
        }
      ],
      "stateMutability": "view",
      "type": "function"
    },
    {
      "inputs": [],
      "name": "getThreshold",
      "outputs": [
        {
          "internalType": "uint256",
          "name": "",
          "type": "uint256"
        }
      ],
      "stateMutability": "view",
      "type": "function"
    },
    {
      "inputs": [
        {
          "internalType": "address",
          "name": "owner",
          "type": "address"
        }
      ],
      "name": "isOwner",
      "outputs": [
        {
          "internalType": "bool",
          "name": "",
          "type": "bool"
        }
      ],
      "stateMutability": "view",
      "type": "function"
    },
    {
      "inputs": [
        {
          "internalType": "address",
          "name": "prevOwner",
          "type": "address"
        },
        {
          "internalType": "address",
          "name": "owner",
          "type": "address"
        },
        {
          "internalType": "uint256",
          "name": "_threshold",
          "type": "uint256"
        }
      ],
      "name": "removeOwner",
      "outputs": [],
      "stateMutability": "nonpayable",
      "type": "function"
    },
    {
      "inputs": [
        {
          "internalType": "address",
          "name": "prevOwner",
          "type": "address"
        },
        {
          "internalType": "address",
          "name": "oldOwner",
          "type": "address"
        },
        {
          "internalType": "address",
          "name": "newOwner",
          "type": "address"
        }
      ],
      "name": "swapOwner",
      "outputs": [],
      "stateMutability": "nonpayable",
      "type": "function"
    }
  ],
  "bytecode": "0x608060405234801561001057600080fd5b50610c94806100206000396000f3fe608060405234801561001057600080fd5b506004361061007d5760003560e01c8063a0e67e2b1161005b578063a0e67e2b146100d2578063e318b52b146100e7578063e75235b8146100fa578063f8dc5dd91461010b57600080fd5b80630d582f13146100825780632f54bf6e14610097578063694e80c3146100bf575b600080fd5b610095610090366004610a20565b61011e565b005b6100aa6100a5366004610a4a565b6102f3565b60405190151581526020015b60405180910390f35b6100956100cd366004610a6c565b61032e565b6100da610414565b6040516100b69190610a85565b6100956100f5366004610ad2565b610504565b6002546040519081526020016100b6565b610095610119366004610b15565b6107b1565b6101266109b3565b6001600160a01b0382161580159061014857506001600160a01b038216600114155b801561015d57506001600160a01b0382163014155b6101ae5760405162461bcd60e51b815260206004820152600560248201527f475332303300000000000000000000000000000000000000000000000000000060448201526064015b60405180910390fd5b6001600160a01b0382811660009081526020819052604090205416156102165760405162461bcd60e51b815260206004820152600560248201527f475332303400000000000000000000000000000000000000000000000000000060448201526064016101a5565b600060208190527fada5013122d395ba3c54772283fb069b10426056ef8ca54750cb9bb552a59e7d80546001600160a01b03858116808552604085208054929093167fffffffffffffffffffffffff0000000000000000000000000000000000000000928316179092556001808552835490911690911790915580549161029c83610b80565b90915550506040516001600160a01b03831681527f9465fa0c962cc76958e6373a993326400c1c94f8be2fe3a952adfa7f60b2ea269060200160405180910390a180600254146102ef576102ef8161032e565b5050565b60006001600160a01b03821660011480159061032857506001600160a01b038281166000908152602081905260409020541615155b92915050565b6103366109b3565b6001548111156103885760405162461bcd60e51b815260206004820152600560248201527f475332303100000000000000000000000000000000000000000000000000000060448201526064016101a5565b60018110156103d95760405162461bcd60e51b815260206004820152600560248201527f475332303200000000000000000000000000000000000000000000000000000060448201526064016101a5565b60028190556040518181527f610f7ff2b304ae8903c3de74c60c6ab1f7d6226b3f52c5161905bb5ad4039c939060200160405180910390a150565b6060600060015467ffffffffffffffff81111561043357610433610bb8565b60405190808252806020026020018201604052801561045c578160200160208202803683370190505b506001600090815260208190527fada5013122d395ba3c54772283fb069b10426056ef8ca54750cb9bb552a59e7d54919250906001600160a01b03165b6001600160a01b0381166001146104fc57808383815181106104bd576104bd610be7565b6001600160a01b0392831660209182029290920181019190915291811660009081529182905260409091205416816104f481610b80565b925050610499565b509092915050565b61050c6109b3565b6001600160a01b0381161580159061052e57506001600160a01b038116600114155b801561054357506001600160a01b0381163014155b61058f5760405162461bcd60e51b815260206004820152600560248201527f475332303300000000000000000000000000000000000000000000000000000060448201526064016101a5565b6001600160a01b0381811660009081526020819052604090205416156105f75760405162461bcd60e51b815260206004820152600560248201527f475332303400000000000000000000000000000000000000000000000000000060448201526064016101a5565b6001600160a01b0382161580159061061957506001600160a01b038216600114155b6106655760405162461bcd60e51b815260206004820152600560248201527f475332303300000000000000000000000000000000000000000000000000000060448201526064016101a5565b6001600160a01b038381166000908152602081905260409020548116908316146106d15760405162461bcd60e51b815260206004820152600560248201527f475332303500000000000000000000000000000000000000000000000000000060448201526064016101a5565b6001600160a01b03828116600081815260208181526040808320805487871680865283862080549289167fffffffffffffffffffffffff0000000000000000000000000000000000000000938416179055968a1685528285208054821690971790965592849052825490941690915591519081527ff8d49fc529812e9a7c5c50e69c20f0dccc0db8fa95c98bc58cc9a4f1c1299eaf910160405180910390a16040516001600160a01b03821681527f9465fa0c962cc76958e6373a993326400c1c94f8be2fe3a952adfa7f60b2ea269060200160405180910390a1505050565b6107b96109b3565b80600180546107c89190610c16565b10156108165760405162461bcd60e51b815260206004820152600560248201527f475332303100000000000000000000000000000000000000000000000000000060448201526064016101a5565b6001600160a01b0382161580159061083857506001600160a01b038216600114155b6108845760405162461bcd60e51b815260206004820152600560248201527f475332303300000000000000000000000000000000000000000000000000000060448201526064016101a5565b6001600160a01b038381166000908152602081905260409020548116908316146108f05760405162461bcd60e51b815260206004820152600560248201527f475332303500000000000000000000000000000000000000000000000000000060448201526064016101a5565b6001600160a01b03828116600081815260208190526040808220805488861684529183208054929095167fffffffffffffffffffffffff0000000000000000000000000000000000000000928316179094559181528254909116909155600180549161095b83610c29565b90915550506040516001600160a01b03831681527ff8d49fc529812e9a7c5c50e69c20f0dccc0db8fa95c98bc58cc9a4f1c1299eaf9060200160405180910390a180600254146109ae576109ae8161032e565b505050565b333014610a025760405162461bcd60e51b815260206004820152600560248201527f475330333100000000000000000000000000000000000000000000000000000060448201526064016101a5565b565b80356001600160a01b0381168114610a1b57600080fd5b919050565b60008060408385031215610a3357600080fd5b610a3c83610a04565b946020939093013593505050565b600060208284031215610a5c57600080fd5b610a6582610a04565b9392505050565b600060208284031215610a7e57600080fd5b5035919050565b6020808252825182820181905260009190848201906040850190845b81811015610ac65783516001600160a01b031683529284019291840191600101610aa1565b50909695505050505050565b600080600060608486031215610ae757600080fd5b610af084610a04565b9250610afe60208501610a04565b9150610b0c60408501610a04565b90509250925092565b600080600060608486031215610b2a57600080fd5b610b3384610a04565b9250610b4160208501610a04565b9150604084013590509250925092565b7f4e487b7100000000000000000000000000000000000000000000000000000000600052601160045260246000fd5b60007fffffffffffffffffffffffffffffffffffffffffffffffffffffffffffffffff8203610bb157610bb1610b51565b5060010190565b7f4e487b7100000000000000000000000000000000000000000000000000000000600052604160045260246000fd5b7f4e487b7100000000000000000000000000000000000000000000000000000000600052603260045260246000fd5b8181038181111561032857610328610b51565b600081610c3857610c38610b51565b507fffffffffffffffffffffffffffffffffffffffffffffffffffffffffffffffff019056fea2646970667358221220a6d33bfe6c29761985da9c38b03de040d0ce37195800e3f6b213e2da8fbbdfbf64736f6c63430008110033",
  "linkReferences": {},
  "deployedLinkReferences": {}
}