{
  "_format": "hh-sol-artifact-1",
  "contractName": "MantlePainter",
  "sourceName": "contracts/MantlePainter.sol",
  "abi": [
    {
      "inputs": [
        {
          "internalType": "address",
          "name": "tokenAddress",
          "type": "address"
        }
      ],
      "stateMutability": "nonpayable",
      "type": "constructor"
    },
    {
      "anonymous": false,
      "inputs": [
        {
          "indexed": true,
          "internalType": "uint256",
          "name": "oldSize",
          "type": "uint256"
        },
        {
          "indexed": true,
          "internalType": "uint256",
          "name": "newSize",
          "type": "uint256"
        }
      ],
      "name": "CanvasSizeUpdated",
      "type": "event"
    },
    {
      "anonymous": false,
      "inputs": [
        {
          "indexed": false,
          "internalType": "uint8",
          "name": "version",
          "type": "uint8"
        }
      ],
      "name": "Initialized",
      "type": "event"
    },
    {
      "anonymous": false,
      "inputs": [
        {
          "indexed": true,
          "internalType": "address",
          "name": "previousOwner",
          "type": "address"
        },
        {
          "indexed": true,
          "internalType": "address",
          "name": "newOwner",
          "type": "address"
        }
      ],
      "name": "OwnershipTransferred",
      "type": "event"
    },
    {
      "anonymous": false,
      "inputs": [
        {
          "indexed": false,
          "internalType": "address",
          "name": "account",
          "type": "address"
        }
      ],
      "name": "Paused",
      "type": "event"
    },
    {
      "anonymous": false,
      "inputs": [
        {
          "indexed": true,
          "internalType": "address",
          "name": "owner",
          "type": "address"
        },
        {
          "indexed": true,
          "internalType": "uint256",
          "name": "pixelId",
          "type": "uint256"
        },
        {
          "indexed": true,
          "internalType": "uint256",
          "name": "cost",
          "type": "uint256"
        }
      ],
      "name": "PixelColored",
      "type": "event"
    },
    {
      "anonymous": false,
      "inputs": [
        {
          "indexed": true,
          "internalType": "address",
          "name": "owner",
          "type": "address"
        },
        {
          "indexed": true,
          "internalType": "uint256",
          "name": "pixelId",
          "type": "uint256"
        },
        {
          "indexed": false,
          "internalType": "uint256",
          "name": "tokenIndex",
          "type": "uint256"
        }
      ],
      "name": "TransferPixelOwnerShip",
      "type": "event"
    },
    {
      "anonymous": false,
      "inputs": [
        {
          "indexed": false,
          "internalType": "address",
          "name": "account",
          "type": "address"
        }
      ],
      "name": "Unpaused",
      "type": "event"
    },
    {
      "inputs": [],
      "name": "canvasMaxPixels",
      "outputs": [
        {
          "internalType": "uint256",
          "name": "",
          "type": "uint256"
        }
      ],
      "stateMutability": "view",
      "type": "function"
    },
    {
      "inputs": [
        {
          "internalType": "uint256",
          "name": "pixelIndex",
          "type": "uint256"
        },
        {
          "internalType": "string",
          "name": "pixelColor",
          "type": "string"
        }
      ],
      "name": "colorPixel",
      "outputs": [],
      "stateMutability": "payable",
      "type": "function"
    },
    {
      "inputs": [
        {
          "internalType": "address",
          "name": "id",
          "type": "address"
        }
      ],
      "name": "getArtistDetails",
      "outputs": [
        {
          "internalType": "uint256",
          "name": "",
          "type": "uint256"
        },
        {
          "internalType": "bool",
          "name": "",
          "type": "bool"
        }
      ],
      "stateMutability": "view",
      "type": "function"
    },
    {
      "inputs": [],
      "name": "getArtistKeys",
      "outputs": [
        {
          "internalType": "address[]",
          "name": "",
          "type": "address[]"
        }
      ],
      "stateMutability": "view",
      "type": "function"
    },
    {
      "inputs": [
        {
          "internalType": "uint256",
          "name": "pixelIndex",
          "type": "uint256"
        }
      ],
      "name": "getPixelDetails",
      "outputs": [
        {
          "internalType": "uint256",
          "name": "",
          "type": "uint256"
        },
        {
          "internalType": "bool",
          "name": "",
          "type": "bool"
        },
        {
          "internalType": "address",
          "name": "",
          "type": "address"
        },
        {
          "internalType": "string",
          "name": "",
          "type": "string"
        }
      ],
      "stateMutability": "view",
      "type": "function"
    },
    {
      "inputs": [],
      "name": "getPixelIndexes",
      "outputs": [
        {
          "internalType": "uint256[]",
          "name": "",
          "type": "uint256[]"
        }
      ],
      "stateMutability": "view",
      "type": "function"
    },
    {
      "inputs": [],
      "name": "minPaintCost",
      "outputs": [
        {
          "internalType": "uint256",
          "name": "",
          "type": "uint256"
        }
      ],
      "stateMutability": "view",
      "type": "function"
    },
    {
      "inputs": [
        {
          "internalType": "address",
          "name": "",
          "type": "address"
        },
        {
          "internalType": "address",
          "name": "",
          "type": "address"
        },
        {
          "internalType": "uint256",
          "name": "",
          "type": "uint256"
        },
        {
          "internalType": "bytes",
          "name": "",
          "type": "bytes"
        }
      ],
      "name": "onERC721Received",
      "outputs": [
        {
          "internalType": "bytes4",
          "name": "",
          "type": "bytes4"
        }
      ],
      "stateMutability": "nonpayable",
      "type": "function"
    },
    {
      "inputs": [],
      "name": "owner",
      "outputs": [
        {
          "internalType": "address",
          "name": "",
          "type": "address"
        }
      ],
      "stateMutability": "view",
      "type": "function"
    },
    {
      "inputs": [],
      "name": "paused",
      "outputs": [
        {
          "internalType": "bool",
          "name": "",
          "type": "bool"
        }
      ],
      "stateMutability": "view",
      "type": "function"
    },
    {
      "inputs": [],
      "name": "renounceOwnership",
      "outputs": [],
      "stateMutability": "nonpayable",
      "type": "function"
    },
    {
      "inputs": [],
      "name": "transactionFees",
      "outputs": [
        {
          "internalType": "uint256",
          "name": "",
          "type": "uint256"
        }
      ],
      "stateMutability": "view",
      "type": "function"
    },
    {
      "inputs": [
        {
          "internalType": "address",
          "name": "newOwner",
          "type": "address"
        }
      ],
      "name": "transferOwnership",
      "outputs": [],
      "stateMutability": "nonpayable",
      "type": "function"
    },
    {
      "inputs": [
        {
          "internalType": "uint256",
          "name": "canvasSize",
          "type": "uint256"
        }
      ],
      "name": "updateCanvasSize",
      "outputs": [],
      "stateMutability": "nonpayable",
      "type": "function"
    },
    {
      "stateMutability": "payable",
      "type": "receive"
    }
  ],
  "bytecode": "0x6080604052600060c95561050f60ca5566b1a2bc2ec5000060cb553480156200002757600080fd5b50604051620016df380380620016df8339810160408190526200004a91620004cf565b600054610100900460ff16158080156200006b5750600054600160ff909116105b806200009b575062000088306200020860201b62000b7b1760201c565b1580156200009b575060005460ff166001145b620001045760405162461bcd60e51b815260206004820152602e60248201527f496e697469616c697a61626c653a20636f6e747261637420697320616c72656160448201526d191e481a5b9a5d1a585b1a5e995960921b60648201526084015b60405180910390fd5b6000805460ff19166001179055801562000128576000805461ff0019166101001790555b6001600160a01b038216620001805760405162461bcd60e51b815260206004820152601560248201527f496e76616c696420746f6b656e206164647265737300000000000000000000006044820152606401620000fb565b6200018a62000217565b620001946200027f565b6200019e620002e5565b60cc80546001600160a01b0319166001600160a01b038416179055801562000200576000805461ff0019169055604051600181527f7f26b83ff96e1f2b6a682f133852f6798a09c465da95921460cefb38474024989060200160405180910390a15b505062000501565b6001600160a01b03163b151590565b600054610100900460ff16620002735760405162461bcd60e51b815260206004820152602b6024820152600080516020620016bf83398151915260448201526a6e697469616c697a696e6760a81b6064820152608401620000fb565b6200027d6200034b565b565b600054610100900460ff16620002db5760405162461bcd60e51b815260206004820152602b6024820152600080516020620016bf83398151915260448201526a6e697469616c697a696e6760a81b6064820152608401620000fb565b6200027d620003b2565b600054610100900460ff16620003415760405162461bcd60e51b815260206004820152602b6024820152600080516020620016bf83398151915260448201526a6e697469616c697a696e6760a81b6064820152608401620000fb565b6200027d6200041a565b600054610100900460ff16620003a75760405162461bcd60e51b815260206004820152602b6024820152600080516020620016bf83398151915260448201526a6e697469616c697a696e6760a81b6064820152608401620000fb565b6200027d336200047d565b600054610100900460ff166200040e5760405162461bcd60e51b815260206004820152602b6024820152600080516020620016bf83398151915260448201526a6e697469616c697a696e6760a81b6064820152608401620000fb565b6065805460ff19169055565b600054610100900460ff16620004765760405162461bcd60e51b815260206004820152602b6024820152600080516020620016bf83398151915260448201526a6e697469616c697a696e6760a81b6064820152608401620000fb565b6001609755565b603380546001600160a01b038381166001600160a01b0319831681179093556040519116919082907f8be0079c531659141344cd1fd0a4f28419497f9722a3daafe3b4186f6b6457e090600090a35050565b600060208284031215620004e257600080fd5b81516001600160a01b0381168114620004fa57600080fd5b9392505050565b6111ae80620005116000396000f3fe6080604052600436106100e15760003560e01c8063715018a61161007f578063d81b39a511610059578063d81b39a514610299578063e76c8a9114610302578063f2fde38b14610324578063faf6b38e1461034457600080fd5b8063715018a6146102395780638da5cb5b1461024e578063b37be8e41461028357600080fd5b806324fd7a75116100bb57806324fd7a75146101bd5780633ec92380146101e157806353e6fdd3146101f65780635c975abb1461021657600080fd5b80630c63dde8146100ed578063150b7a02146101265780631920653b1461019b57600080fd5b366100e857005b600080fd5b3480156100f957600080fd5b5061010d610108366004610cce565b61035a565b60405161011d9493929190610ce7565b60405180910390f35b34801561013257600080fd5b5061016a610141366004610e31565b7f150b7a0200000000000000000000000000000000000000000000000000000000949350505050565b6040517fffffffff00000000000000000000000000000000000000000000000000000000909116815260200161011d565b3480156101a757600080fd5b506101b061043b565b60405161011d9190610ead565b3480156101c957600080fd5b506101d360cb5481565b60405190815260200161011d565b6101f46101ef366004610f07565b6104aa565b005b34801561020257600080fd5b506101f4610211366004610cce565b6109e3565b34801561022257600080fd5b5060655460ff16604051901515815260200161011d565b34801561024557600080fd5b506101f4610a73565b34801561025a57600080fd5b5060335460405173ffffffffffffffffffffffffffffffffffffffff909116815260200161011d565b34801561028f57600080fd5b506101d360c95481565b3480156102a557600080fd5b506102ed6102b4366004610f62565b73ffffffffffffffffffffffffffffffffffffffff16600090815260d0602052604090206001810154600290910154909160ff90911690565b6040805192835290151560208301520161011d565b34801561030e57600080fd5b50610317610a87565b60405161011d9190610f84565b34801561033057600080fd5b506101f461033f366004610f62565b610ade565b34801561035057600080fd5b506101d360ca5481565b600081815260cf60205260408120805460028201546003909201805484938493606093909260ff831692610100900473ffffffffffffffffffffffffffffffffffffffff16919081906103ac90610fbc565b80601f01602080910402602001604051908101604052809291908181526020018280546103d890610fbc565b80156104255780601f106103fa57610100808354040283529160200191610425565b820191906000526020600020905b81548152906001019060200180831161040857829003601f168201915b5050505050905093509350935093509193509193565b606060cd8054806020026020016040519081016040528092919081815260200182805480156104a057602002820191906000526020600020905b815473ffffffffffffffffffffffffffffffffffffffff168152600190910190602001808311610475575b5050505050905090565b6104b2610b97565b600082815260cf6020908152604080832033845260d0909252909120600282015460ff16156105285760405162461bcd60e51b815260206004820152600e60248201527f506978656c206f6363757069656400000000000000000000000000000000000060448201526064015b60405180910390fd5b336105755760405162461bcd60e51b815260206004820152600e60248201527f496e76616c69642073656e646572000000000000000000000000000000000000604482015260640161051f565b60335473ffffffffffffffffffffffffffffffffffffffff1633036106025760405162461bcd60e51b815260206004820152602960248201527f436f6e7472616374206f776e6572206e6f7420616c6c6f77656420746f20636f60448201527f6c6f7220706978656c0000000000000000000000000000000000000000000000606482015260840161051f565b60ca548411156106545760405162461bcd60e51b815260206004820152601360248201527f496e76616c696420706978656c20696e64657800000000000000000000000000604482015260640161051f565b60008351116106a55760405162461bcd60e51b815260206004820152601360248201527f496e76616c696420706978656c20636f6c6f7200000000000000000000000000604482015260640161051f565b6000341180156106b7575060cb543410155b6107295760405162461bcd60e51b815260206004820152603b60248201527f436f7374206d75737420626520657175616c20746f20206f722067726561746560448201527f72207468616e203020616e64206d696e207061696e7420636f73740000000000606482015260840161051f565b6002820154610100900473ffffffffffffffffffffffffffffffffffffffff1633036107bd5760405162461bcd60e51b815260206004820152602160248201527f4f776e6572206f6620706978656c2063616e6e6f7420636f6c6f72207069786560448201527f6c00000000000000000000000000000000000000000000000000000000000000606482015260840161051f565b60ce8054600180820183556000929092527fd36cd1c74ef8d7326d8021b776c18fb5a5724b7f7bc93c2f42e43e10ef27d12a018590558281018590556002830180547fffffffffffffffffffffff0000000000000000000000000000000000000000001661010033021790911790556003820161083a848261105e565b50600281015460ff166108e1578054337fffffffffffffffffffffffff00000000000000000000000000000000000000009182168117835560018084018190556002840180547fffffffffffffffffffffffffffffffffffffffffffffffffffffffffffffff00168217905560cd805491820181556000527f83978b4c69c48dd978ab43fe30f077615294f938fb7f936d9eb340e51ea7db2e0180549092161790556108f9565b6001810180549060006108f38361111e565b91905055505b60cc546040517f79c650680000000000000000000000000000000000000000000000000000000081523360048201526024810186905260009173ffffffffffffffffffffffffffffffffffffffff16906379c65068906044016020604051808303816000875af1158015610971573d6000803e3d6000fd5b505050506040513d601f19601f82011682018060405250810190610995919061115f565b808455604051818152909150859033907fa400f3e74dbd0ae90fa648704408c6246bf7c33bebcf52f0dfa22155097f05559060200160405180910390a35050506109df6001609755565b5050565b6109eb610bf0565b60ca548111806109fc575060ca5481105b610a6e5760405162461bcd60e51b815260206004820152602860248201527f43616e6e6f74207570646174652063616e7661732073697a652077697468207360448201527f616d652073697a65000000000000000000000000000000000000000000000000606482015260840161051f565b60ca55565b610a7b610bf0565b610a856000610c57565b565b606060ce8054806020026020016040519081016040528092919081815260200182805480156104a057602002820191906000526020600020905b815481526020019060010190808311610ac1575050505050905090565b610ae6610bf0565b73ffffffffffffffffffffffffffffffffffffffff8116610b6f5760405162461bcd60e51b815260206004820152602660248201527f4f776e61626c653a206e6577206f776e657220697320746865207a65726f206160448201527f6464726573730000000000000000000000000000000000000000000000000000606482015260840161051f565b610b7881610c57565b50565b73ffffffffffffffffffffffffffffffffffffffff163b151590565b600260975403610be95760405162461bcd60e51b815260206004820152601f60248201527f5265656e7472616e637947756172643a207265656e7472616e742063616c6c00604482015260640161051f565b6002609755565b60335473ffffffffffffffffffffffffffffffffffffffff163314610a855760405162461bcd60e51b815260206004820181905260248201527f4f776e61626c653a2063616c6c6572206973206e6f7420746865206f776e6572604482015260640161051f565b6033805473ffffffffffffffffffffffffffffffffffffffff8381167fffffffffffffffffffffffff0000000000000000000000000000000000000000831681179093556040519116919082907f8be0079c531659141344cd1fd0a4f28419497f9722a3daafe3b4186f6b6457e090600090a35050565b600060208284031215610ce057600080fd5b5035919050565b848152600060208515158184015273ffffffffffffffffffffffffffffffffffffffff8516604084015260806060840152835180608085015260005b81811015610d3f5785810183015185820160a001528201610d23565b50600060a0828601015260a0601f19601f8301168501019250505095945050505050565b803573ffffffffffffffffffffffffffffffffffffffff81168114610d8757600080fd5b919050565b7f4e487b7100000000000000000000000000000000000000000000000000000000600052604160045260246000fd5b600067ffffffffffffffff80841115610dd657610dd6610d8c565b604051601f8501601f19908116603f01168101908282118183101715610dfe57610dfe610d8c565b81604052809350858152868686011115610e1757600080fd5b858560208301376000602087830101525050509392505050565b60008060008060808587031215610e4757600080fd5b610e5085610d63565b9350610e5e60208601610d63565b925060408501359150606085013567ffffffffffffffff811115610e8157600080fd5b8501601f81018713610e9257600080fd5b610ea187823560208401610dbb565b91505092959194509250565b6020808252825182820181905260009190848201906040850190845b81811015610efb57835173ffffffffffffffffffffffffffffffffffffffff1683529284019291840191600101610ec9565b50909695505050505050565b60008060408385031215610f1a57600080fd5b82359150602083013567ffffffffffffffff811115610f3857600080fd5b8301601f81018513610f4957600080fd5b610f5885823560208401610dbb565b9150509250929050565b600060208284031215610f7457600080fd5b610f7d82610d63565b9392505050565b6020808252825182820181905260009190848201906040850190845b81811015610efb57835183529284019291840191600101610fa0565b600181811c90821680610fd057607f821691505b602082108103611009577f4e487b7100000000000000000000000000000000000000000000000000000000600052602260045260246000fd5b50919050565b601f82111561105957600081815260208120601f850160051c810160208610156110365750805b601f850160051c820191505b8181101561105557828155600101611042565b5050505b505050565b815167ffffffffffffffff81111561107857611078610d8c565b61108c816110868454610fbc565b8461100f565b602080601f8311600181146110c157600084156110a95750858301515b600019600386901b1c1916600185901b178555611055565b600085815260208120601f198616915b828110156110f0578886015182559484019460019091019084016110d1565b508582101561110e5787850151600019600388901b60f8161c191681555b5050505050600190811b01905550565b60006000198203611158577f4e487b7100000000000000000000000000000000000000000000000000000000600052601160045260246000fd5b5060010190565b60006020828403121561117157600080fd5b505191905056fea26469706673582212206ac22ff763ebf150021879ca51e04bbb3e2e5a68e95f89ee73dd9575045022a564736f6c63430008110033496e697469616c697a61626c653a20636f6e7472616374206973206e6f742069",
  "linkReferences": {},
  "deployedLinkReferences": {}
}