{
  "_format": "hh-sol-artifact-1",
  "contractName": "ERC20Token",
  "sourceName": "contracts/ERC20Token.sol",
  "abi": [
    {
      "inputs": [],
      "stateMutability": "nonpayable",
      "type": "constructor"
    },
    {
      "anonymous": false,
      "inputs": [
        {
          "indexed": true,
          "internalType": "address",
          "name": "owner",
          "type": "address"
        },
        {
          "indexed": true,
          "internalType": "address",
          "name": "spender",
          "type": "address"
        },
        {
          "indexed": false,
          "internalType": "uint256",
          "name": "value",
          "type": "uint256"
        }
      ],
      "name": "Approval",
      "type": "event"
    },
    {
      "anonymous": false,
      "inputs": [
        {
          "indexed": false,
          "internalType": "uint8",
          "name": "version",
          "type": "uint8"
        }
      ],
      "name": "Initialized",
      "type": "event"
    },
    {
      "anonymous": false,
      "inputs": [
        {
          "indexed": true,
          "internalType": "address",
          "name": "from",
          "type": "address"
        },
        {
          "indexed": true,
          "internalType": "address",
          "name": "to",
          "type": "address"
        },
        {
          "indexed": false,
          "internalType": "uint256",
          "name": "value",
          "type": "uint256"
        }
      ],
      "name": "Transfer",
      "type": "event"
    },
    {
      "inputs": [
        {
          "internalType": "address",
          "name": "owner",
          "type": "address"
        },
        {
          "internalType": "address",
          "name": "spender",
          "type": "address"
        }
      ],
      "name": "allowance",
      "outputs": [
        {
          "internalType": "uint256",
          "name": "",
          "type": "uint256"
        }
      ],
      "stateMutability": "view",
      "type": "function"
    },
    {
      "inputs": [
        {
          "internalType": "address",
          "name": "spender",
          "type": "address"
        },
        {
          "internalType": "uint256",
          "name": "amount",
          "type": "uint256"
        }
      ],
      "name": "approve",
      "outputs": [
        {
          "internalType": "bool",
          "name": "",
          "type": "bool"
        }
      ],
      "stateMutability": "nonpayable",
      "type": "function"
    },
    {
      "inputs": [
        {
          "internalType": "address",
          "name": "account",
          "type": "address"
        }
      ],
      "name": "balanceOf",
      "outputs": [
        {
          "internalType": "uint256",
          "name": "",
          "type": "uint256"
        }
      ],
      "stateMutability": "view",
      "type": "function"
    },
    {
      "inputs": [],
      "name": "decimals",
      "outputs": [
        {
          "internalType": "uint8",
          "name": "",
          "type": "uint8"
        }
      ],
      "stateMutability": "view",
      "type": "function"
    },
    {
      "inputs": [
        {
          "internalType": "address",
          "name": "spender",
          "type": "address"
        },
        {
          "internalType": "uint256",
          "name": "subtractedValue",
          "type": "uint256"
        }
      ],
      "name": "decreaseAllowance",
      "outputs": [
        {
          "internalType": "bool",
          "name": "",
          "type": "bool"
        }
      ],
      "stateMutability": "nonpayable",
      "type": "function"
    },
    {
      "inputs": [
        {
          "internalType": "address",
          "name": "spender",
          "type": "address"
        },
        {
          "internalType": "uint256",
          "name": "addedValue",
          "type": "uint256"
        }
      ],
      "name": "increaseAllowance",
      "outputs": [
        {
          "internalType": "bool",
          "name": "",
          "type": "bool"
        }
      ],
      "stateMutability": "nonpayable",
      "type": "function"
    },
    {
      "inputs": [
        {
          "internalType": "string",
          "name": "name_",
          "type": "string"
        },
        {
          "internalType": "string",
          "name": "symbol_",
          "type": "string"
        },
        {
          "internalType": "uint8",
          "name": "decimals_",
          "type": "uint8"
        },
        {
          "internalType": "uint256",
          "name": "initialSupply_",
          "type": "uint256"
        }
      ],
      "name": "init",
      "outputs": [],
      "stateMutability": "nonpayable",
      "type": "function"
    },
    {
      "inputs": [],
      "name": "name",
      "outputs": [
        {
          "internalType": "string",
          "name": "",
          "type": "string"
        }
      ],
      "stateMutability": "view",
      "type": "function"
    },
    {
      "inputs": [],
      "name": "symbol",
      "outputs": [
        {
          "internalType": "string",
          "name": "",
          "type": "string"
        }
      ],
      "stateMutability": "view",
      "type": "function"
    },
    {
      "inputs": [],
      "name": "totalSupply",
      "outputs": [
        {
          "internalType": "uint256",
          "name": "",
          "type": "uint256"
        }
      ],
      "stateMutability": "view",
      "type": "function"
    },
    {
      "inputs": [
        {
          "internalType": "address",
          "name": "recipient",
          "type": "address"
        },
        {
          "internalType": "uint256",
          "name": "amount",
          "type": "uint256"
        }
      ],
      "name": "transfer",
      "outputs": [
        {
          "internalType": "bool",
          "name": "",
          "type": "bool"
        }
      ],
      "stateMutability": "nonpayable",
      "type": "function"
    },
    {
      "inputs": [
        {
          "internalType": "address",
          "name": "sender",
          "type": "address"
        },
        {
          "internalType": "address",
          "name": "recipient",
          "type": "address"
        },
        {
          "internalType": "uint256",
          "name": "amount",
          "type": "uint256"
        }
      ],
      "name": "transferFrom",
      "outputs": [
        {
          "internalType": "bool",
          "name": "",
          "type": "bool"
        }
      ],
      "stateMutability": "nonpayable",
      "type": "function"
    }
  ],
  "bytecode": "0x608060405234801561001057600080fd5b50336100625760405162461bcd60e51b815260206004820152601560248201527f496e76616c6964206f776e657220616464726573730000000000000000000000604482015260640160405180910390fd5b60038054610100600160a81b031916336101000217905561124b806100886000396000f3fe608060405234801561001057600080fd5b50600436106100d45760003560e01c806370a0823111610081578063a9059cbb1161005b578063a9059cbb146101b8578063dd62ed3e146101cb578063f8f5faa21461021157600080fd5b806370a082311461016757806395d89b411461019d578063a457c2d7146101a557600080fd5b806323b872dd116100b257806323b872dd1461012c578063313ce5671461013f578063395093511461015457600080fd5b806306fdde03146100d9578063095ea7b3146100f757806318160ddd1461011a575b600080fd5b6100e1610226565b6040516100ee9190610c3e565b60405180910390f35b61010a610105366004610cb5565b6102b8565b60405190151581526020016100ee565b6006545b6040519081526020016100ee565b61010a61013a366004610cdf565b6102cf565b60035460405160ff90911681526020016100ee565b61010a610162366004610cb5565b610345565b61011e610175366004610d1b565b73ffffffffffffffffffffffffffffffffffffffff1660009081526004602052604090205490565b6100e1610388565b61010a6101b3366004610cb5565b610397565b61010a6101c6366004610cb5565b6103f3565b61011e6101d9366004610d36565b73ffffffffffffffffffffffffffffffffffffffff918216600090815260056020908152604080832093909416825291909152205490565b61022461021f366004610e25565b610400565b005b60606001805461023590610ea9565b80601f016020809104026020016040519081016040528092919081815260200182805461026190610ea9565b80156102ae5780601f10610283576101008083540402835291602001916102ae565b820191906000526020600020905b81548152906001019060200180831161029157829003601f168201915b5050505050905090565b60006102c533848461067a565b5060015b92915050565b60006102dc8484846107fa565b61033b8433610336856040518060600160405280602881526020016111c96028913973ffffffffffffffffffffffffffffffffffffffff8a16600090815260056020908152604080832033845290915290205491906109f3565b61067a565b5060019392505050565b33600081815260056020908152604080832073ffffffffffffffffffffffffffffffffffffffff8716845290915281205490916102c59185906103369086610a2d565b60606002805461023590610ea9565b60006102c53384610336856040518060600160405280602581526020016111f16025913933600090815260056020908152604080832073ffffffffffffffffffffffffffffffffffffffff8d16845290915290205491906109f3565b60006102c53384846107fa565b600054610100900460ff16158080156104205750600054600160ff909116105b8061043a5750303b15801561043a575060005460ff166001145b6104b15760405162461bcd60e51b815260206004820152602e60248201527f496e697469616c697a61626c653a20636f6e747261637420697320616c72656160448201527f647920696e697469616c697a656400000000000000000000000000000000000060648201526084015b60405180910390fd5b600080547fffffffffffffffffffffffffffffffffffffffffffffffffffffffffffffff00166001179055801561050f57600080547fffffffffffffffffffffffffffffffffffffffffffffffffffffffffffff00ff166101001790555b600354610100900473ffffffffffffffffffffffffffffffffffffffff16331461057b5760405162461bcd60e51b815260206004820152601d60248201527f4f6e6c79206f776e65722063616e206d616b6520746869732063616c6c00000060448201526064016104a8565b60016105878682610f4b565b5060026105948582610f4b565b506003805460ff85167fffffffffffffffffffffff00000000000000000000000000000000000000000090911681176101003302179091556105e2906105db90600a61111e565b8390610a93565b60068190556003546106109161010090910473ffffffffffffffffffffffffffffffffffffffff1690610b31565b801561067357600080547fffffffffffffffffffffffffffffffffffffffffffffffffffffffffffff00ff169055604051600181527f7f26b83ff96e1f2b6a682f133852f6798a09c465da95921460cefb38474024989060200160405180910390a15b5050505050565b73ffffffffffffffffffffffffffffffffffffffff83166107025760405162461bcd60e51b8152602060048201526024808201527f45524332303a20617070726f76652066726f6d20746865207a65726f2061646460448201527f726573730000000000000000000000000000000000000000000000000000000060648201526084016104a8565b73ffffffffffffffffffffffffffffffffffffffff821661078b5760405162461bcd60e51b815260206004820152602260248201527f45524332303a20617070726f766520746f20746865207a65726f20616464726560448201527f737300000000000000000000000000000000000000000000000000000000000060648201526084016104a8565b73ffffffffffffffffffffffffffffffffffffffff83811660008181526005602090815260408083209487168084529482529182902085905590518481527f8c5be1e5ebec7d5bd14f71427d1e84f3dd0314c0f7b2291e5b200ac8c7c3b92591015b60405180910390a3505050565b73ffffffffffffffffffffffffffffffffffffffff83166108835760405162461bcd60e51b815260206004820152602560248201527f45524332303a207472616e736665722066726f6d20746865207a65726f20616460448201527f647265737300000000000000000000000000000000000000000000000000000060648201526084016104a8565b73ffffffffffffffffffffffffffffffffffffffff821661090c5760405162461bcd60e51b815260206004820152602360248201527f45524332303a207472616e7366657220746f20746865207a65726f206164647260448201527f657373000000000000000000000000000000000000000000000000000000000060648201526084016104a8565b610956816040518060600160405280602681526020016111a36026913973ffffffffffffffffffffffffffffffffffffffff861660009081526004602052604090205491906109f3565b73ffffffffffffffffffffffffffffffffffffffff80851660009081526004602052604080822093909355908416815220546109929082610a2d565b73ffffffffffffffffffffffffffffffffffffffff80841660008181526004602052604090819020939093559151908516907fddf252ad1be2c89b69c2b068fc378daa952ba7f163c4a11628f55a4df523b3ef906107ed9085815260200190565b60008184841115610a175760405162461bcd60e51b81526004016104a89190610c3e565b506000610a24848661112a565b95945050505050565b600080610a3a838561113d565b905083811015610a8c5760405162461bcd60e51b815260206004820152601b60248201527f536166654d6174683a206164646974696f6e206f766572666c6f77000000000060448201526064016104a8565b9392505050565b600082600003610aa5575060006102c9565b6000610ab18385611150565b905082610abe8583611167565b14610a8c5760405162461bcd60e51b815260206004820152602160248201527f536166654d6174683a206d756c7469706c69636174696f6e206f766572666c6f60448201527f770000000000000000000000000000000000000000000000000000000000000060648201526084016104a8565b73ffffffffffffffffffffffffffffffffffffffff8216610b945760405162461bcd60e51b815260206004820152601f60248201527f45524332303a206d696e7420746f20746865207a65726f20616464726573730060448201526064016104a8565b600654610ba19082610a2d565b60065573ffffffffffffffffffffffffffffffffffffffff8216600090815260046020526040902054610bd49082610a2d565b73ffffffffffffffffffffffffffffffffffffffff83166000818152600460205260408082209390935591519091907fddf252ad1be2c89b69c2b068fc378daa952ba7f163c4a11628f55a4df523b3ef90610c329085815260200190565b60405180910390a35050565b600060208083528351808285015260005b81811015610c6b57858101830151858201604001528201610c4f565b506000604082860101526040601f19601f8301168501019250505092915050565b803573ffffffffffffffffffffffffffffffffffffffff81168114610cb057600080fd5b919050565b60008060408385031215610cc857600080fd5b610cd183610c8c565b946020939093013593505050565b600080600060608486031215610cf457600080fd5b610cfd84610c8c565b9250610d0b60208501610c8c565b9150604084013590509250925092565b600060208284031215610d2d57600080fd5b610a8c82610c8c565b60008060408385031215610d4957600080fd5b610d5283610c8c565b9150610d6060208401610c8c565b90509250929050565b7f4e487b7100000000000000000000000000000000000000000000000000000000600052604160045260246000fd5b600082601f830112610da957600080fd5b813567ffffffffffffffff80821115610dc457610dc4610d69565b604051601f8301601f19908116603f01168101908282118183101715610dec57610dec610d69565b81604052838152866020858801011115610e0557600080fd5b836020870160208301376000602085830101528094505050505092915050565b60008060008060808587031215610e3b57600080fd5b843567ffffffffffffffff80821115610e5357600080fd5b610e5f88838901610d98565b95506020870135915080821115610e7557600080fd5b50610e8287828801610d98565b935050604085013560ff81168114610e9957600080fd5b9396929550929360600135925050565b600181811c90821680610ebd57607f821691505b602082108103610ef6577f4e487b7100000000000000000000000000000000000000000000000000000000600052602260045260246000fd5b50919050565b601f821115610f4657600081815260208120601f850160051c81016020861015610f235750805b601f850160051c820191505b81811015610f4257828155600101610f2f565b5050505b505050565b815167ffffffffffffffff811115610f6557610f65610d69565b610f7981610f738454610ea9565b84610efc565b602080601f831160018114610fae5760008415610f965750858301515b600019600386901b1c1916600185901b178555610f42565b600085815260208120601f198616915b82811015610fdd57888601518255948401946001909101908401610fbe565b5085821015610ffb5787850151600019600388901b60f8161c191681555b5050505050600190811b01905550565b7f4e487b7100000000000000000000000000000000000000000000000000000000600052601160045260246000fd5b600181815b8085111561107557816000190482111561105b5761105b61100b565b8085161561106857918102915b93841c939080029061103f565b509250929050565b60008261108c575060016102c9565b81611099575060006102c9565b81600181146110af57600281146110b9576110d5565b60019150506102c9565b60ff8411156110ca576110ca61100b565b50506001821b6102c9565b5060208310610133831016604e8410600b84101617156110f8575081810a6102c9565b611102838361103a565b80600019048211156111165761111661100b565b029392505050565b6000610a8c838361107d565b818103818111156102c9576102c961100b565b808201808211156102c9576102c961100b565b80820281158282048414176102c9576102c961100b565b60008261119d577f4e487b7100000000000000000000000000000000000000000000000000000000600052601260045260246000fd5b50049056fe45524332303a207472616e7366657220616d6f756e7420657863656564732062616c616e636545524332303a207472616e7366657220616d6f756e74206578636565647320616c6c6f77616e636545524332303a2064656372656173656420616c6c6f77616e63652062656c6f77207a65726fa2646970667358221220aa3214c80805744242ccede7d7a62443e4b73a12319cf9d289fb3e3244112e5164736f6c63430008110033",
  "linkReferences": {},
  "deployedLinkReferences": {}
}