{
  "_format": "hh-sol-artifact-1",
  "contractName": "TokenContract",
  "sourceName": "contracts/TokenContract.sol",
  "abi": [
    {
      "inputs": [
        {
          "internalType": "string",
          "name": "baseURI",
          "type": "string"
        },
        {
          "internalType": "string",
          "name": "externalURL",
          "type": "string"
        },
        {
          "internalType": "address",
          "name": "registry",
          "type": "address"
        }
      ],
      "stateMutability": "nonpayable",
      "type": "constructor"
    },
    {
      "anonymous": false,
      "inputs": [
        {
          "indexed": false,
          "internalType": "address",
          "name": "previousAdmin",
          "type": "address"
        },
        {
          "indexed": false,
          "internalType": "address",
          "name": "newAdmin",
          "type": "address"
        }
      ],
      "name": "AdminChanged",
      "type": "event"
    },
    {
      "anonymous": false,
      "inputs": [
        {
          "indexed": true,
          "internalType": "address",
          "name": "owner",
          "type": "address"
        },
        {
          "indexed": true,
          "internalType": "address",
          "name": "approved",
          "type": "address"
        },
        {
          "indexed": true,
          "internalType": "uint256",
          "name": "tokenId",
          "type": "uint256"
        }
      ],
      "name": "Approval",
      "type": "event"
    },
    {
      "anonymous": false,
      "inputs": [
        {
          "indexed": true,
          "internalType": "address",
          "name": "owner",
          "type": "address"
        },
        {
          "indexed": true,
          "internalType": "address",
          "name": "operator",
          "type": "address"
        },
        {
          "indexed": false,
          "internalType": "bool",
          "name": "approved",
          "type": "bool"
        }
      ],
      "name": "ApprovalForAll",
      "type": "event"
    },
    {
      "anonymous": false,
      "inputs": [
        {
          "indexed": true,
          "internalType": "address",
          "name": "beacon",
          "type": "address"
        }
      ],
      "name": "BeaconUpgraded",
      "type": "event"
    },
    {
      "anonymous": false,
      "inputs": [
        {
          "indexed": false,
          "internalType": "uint8",
          "name": "version",
          "type": "uint8"
        }
      ],
      "name": "Initialized",
      "type": "event"
    },
    {
      "anonymous": false,
      "inputs": [
        {
          "indexed": true,
          "internalType": "address",
          "name": "previousOwner",
          "type": "address"
        },
        {
          "indexed": true,
          "internalType": "address",
          "name": "newOwner",
          "type": "address"
        }
      ],
      "name": "OwnershipTransferred",
      "type": "event"
    },
    {
      "anonymous": false,
      "inputs": [
        {
          "indexed": false,
          "internalType": "address",
          "name": "account",
          "type": "address"
        }
      ],
      "name": "Paused",
      "type": "event"
    },
    {
      "anonymous": false,
      "inputs": [
        {
          "indexed": true,
          "internalType": "address",
          "name": "from",
          "type": "address"
        },
        {
          "indexed": true,
          "internalType": "address",
          "name": "to",
          "type": "address"
        },
        {
          "indexed": true,
          "internalType": "uint256",
          "name": "tokenId",
          "type": "uint256"
        }
      ],
      "name": "Transfer",
      "type": "event"
    },
    {
      "anonymous": false,
      "inputs": [
        {
          "indexed": false,
          "internalType": "address",
          "name": "account",
          "type": "address"
        }
      ],
      "name": "Unpaused",
      "type": "event"
    },
    {
      "anonymous": false,
      "inputs": [
        {
          "indexed": true,
          "internalType": "address",
          "name": "implementation",
          "type": "address"
        }
      ],
      "name": "Upgraded",
      "type": "event"
    },
    {
      "inputs": [
        {
          "internalType": "address",
          "name": "to",
          "type": "address"
        },
        {
          "internalType": "uint256",
          "name": "tokenId",
          "type": "uint256"
        }
      ],
      "name": "approve",
      "outputs": [],
      "stateMutability": "nonpayable",
      "type": "function"
    },
    {
      "inputs": [
        {
          "internalType": "address",
          "name": "owner",
          "type": "address"
        }
      ],
      "name": "balanceOf",
      "outputs": [
        {
          "internalType": "uint256",
          "name": "",
          "type": "uint256"
        }
      ],
      "stateMutability": "view",
      "type": "function"
    },
    {
      "inputs": [
        {
          "internalType": "uint256",
          "name": "tokenId",
          "type": "uint256"
        }
      ],
      "name": "burnToken",
      "outputs": [
        {
          "internalType": "bool",
          "name": "",
          "type": "bool"
        }
      ],
      "stateMutability": "nonpayable",
      "type": "function"
    },
    {
      "inputs": [
        {
          "internalType": "uint256",
          "name": "tokenId",
          "type": "uint256"
        }
      ],
      "name": "getApproved",
      "outputs": [
        {
          "internalType": "address",
          "name": "",
          "type": "address"
        }
      ],
      "stateMutability": "view",
      "type": "function"
    },
    {
      "inputs": [
        {
          "internalType": "address",
          "name": "owner",
          "type": "address"
        },
        {
          "internalType": "address",
          "name": "operator",
          "type": "address"
        }
      ],
      "name": "isApprovedForAll",
      "outputs": [
        {
          "internalType": "bool",
          "name": "",
          "type": "bool"
        }
      ],
      "stateMutability": "view",
      "type": "function"
    },
    {
      "inputs": [],
      "name": "mantlePainterAddress",
      "outputs": [
        {
          "internalType": "address",
          "name": "",
          "type": "address"
        }
      ],
      "stateMutability": "view",
      "type": "function"
    },
    {
      "inputs": [
        {
          "internalType": "address",
          "name": "tokenOwner",
          "type": "address"
        },
        {
          "internalType": "uint256",
          "name": "pixelIndex",
          "type": "uint256"
        }
      ],
      "name": "mintToken",
      "outputs": [
        {
          "internalType": "uint256",
          "name": "",
          "type": "uint256"
        }
      ],
      "stateMutability": "nonpayable",
      "type": "function"
    },
    {
      "inputs": [],
      "name": "name",
      "outputs": [
        {
          "internalType": "string",
          "name": "",
          "type": "string"
        }
      ],
      "stateMutability": "view",
      "type": "function"
    },
    {
      "inputs": [
        {
          "internalType": "address",
          "name": "",
          "type": "address"
        },
        {
          "internalType": "address",
          "name": "",
          "type": "address"
        },
        {
          "internalType": "uint256",
          "name": "",
          "type": "uint256"
        },
        {
          "internalType": "bytes",
          "name": "",
          "type": "bytes"
        }
      ],
      "name": "onERC721Received",
      "outputs": [
        {
          "internalType": "bytes4",
          "name": "",
          "type": "bytes4"
        }
      ],
      "stateMutability": "nonpayable",
      "type": "function"
    },
    {
      "inputs": [],
      "name": "owner",
      "outputs": [
        {
          "internalType": "address",
          "name": "",
          "type": "address"
        }
      ],
      "stateMutability": "view",
      "type": "function"
    },
    {
      "inputs": [
        {
          "internalType": "uint256",
          "name": "tokenId",
          "type": "uint256"
        }
      ],
      "name": "ownerOf",
      "outputs": [
        {
          "internalType": "address",
          "name": "",
          "type": "address"
        }
      ],
      "stateMutability": "view",
      "type": "function"
    },
    {
      "inputs": [],
      "name": "paused",
      "outputs": [
        {
          "internalType": "bool",
          "name": "",
          "type": "bool"
        }
      ],
      "stateMutability": "view",
      "type": "function"
    },
    {
      "inputs": [],
      "name": "proxiableUUID",
      "outputs": [
        {
          "internalType": "bytes32",
          "name": "",
          "type": "bytes32"
        }
      ],
      "stateMutability": "view",
      "type": "function"
    },
    {
      "inputs": [],
      "name": "renounceOwnership",
      "outputs": [],
      "stateMutability": "nonpayable",
      "type": "function"
    },
    {
      "inputs": [
        {
          "internalType": "address",
          "name": "from",
          "type": "address"
        },
        {
          "internalType": "address",
          "name": "to",
          "type": "address"
        },
        {
          "internalType": "uint256",
          "name": "tokenId",
          "type": "uint256"
        }
      ],
      "name": "safeTransferFrom",
      "outputs": [],
      "stateMutability": "nonpayable",
      "type": "function"
    },
    {
      "inputs": [
        {
          "internalType": "address",
          "name": "from",
          "type": "address"
        },
        {
          "internalType": "address",
          "name": "to",
          "type": "address"
        },
        {
          "internalType": "uint256",
          "name": "tokenId",
          "type": "uint256"
        },
        {
          "internalType": "bytes",
          "name": "data",
          "type": "bytes"
        }
      ],
      "name": "safeTransferFrom",
      "outputs": [],
      "stateMutability": "nonpayable",
      "type": "function"
    },
    {
      "inputs": [
        {
          "internalType": "address",
          "name": "operator",
          "type": "address"
        },
        {
          "internalType": "bool",
          "name": "approved",
          "type": "bool"
        }
      ],
      "name": "setApprovalForAll",
      "outputs": [],
      "stateMutability": "nonpayable",
      "type": "function"
    },
    {
      "inputs": [
        {
          "internalType": "address",
          "name": "mantlePainter",
          "type": "address"
        }
      ],
      "name": "setContractMantlePainterAddress",
      "outputs": [],
      "stateMutability": "nonpayable",
      "type": "function"
    },
    {
      "inputs": [
        {
          "internalType": "string",
          "name": "externalURL",
          "type": "string"
        }
      ],
      "name": "setExternalURL",
      "outputs": [],
      "stateMutability": "nonpayable",
      "type": "function"
    },
    {
      "inputs": [
        {
          "internalType": "bytes4",
          "name": "interfaceId",
          "type": "bytes4"
        }
      ],
      "name": "supportsInterface",
      "outputs": [
        {
          "internalType": "bool",
          "name": "",
          "type": "bool"
        }
      ],
      "stateMutability": "view",
      "type": "function"
    },
    {
      "inputs": [],
      "name": "symbol",
      "outputs": [
        {
          "internalType": "string",
          "name": "",
          "type": "string"
        }
      ],
      "stateMutability": "view",
      "type": "function"
    },
    {
      "inputs": [
        {
          "internalType": "uint256",
          "name": "tokenId",
          "type": "uint256"
        }
      ],
      "name": "tokenExists",
      "outputs": [
        {
          "internalType": "bool",
          "name": "",
          "type": "bool"
        }
      ],
      "stateMutability": "view",
      "type": "function"
    },
    {
      "inputs": [
        {
          "internalType": "uint256",
          "name": "tokenId",
          "type": "uint256"
        }
      ],
      "name": "tokenURI",
      "outputs": [
        {
          "internalType": "string",
          "name": "",
          "type": "string"
        }
      ],
      "stateMutability": "view",
      "type": "function"
    },
    {
      "inputs": [],
      "name": "totalSupply",
      "outputs": [
        {
          "internalType": "uint256",
          "name": "",
          "type": "uint256"
        }
      ],
      "stateMutability": "view",
      "type": "function"
    },
    {
      "inputs": [
        {
          "internalType": "address",
          "name": "from",
          "type": "address"
        },
        {
          "internalType": "address",
          "name": "to",
          "type": "address"
        },
        {
          "internalType": "uint256",
          "name": "tokenId",
          "type": "uint256"
        }
      ],
      "name": "transferFrom",
      "outputs": [],
      "stateMutability": "nonpayable",
      "type": "function"
    },
    {
      "inputs": [
        {
          "internalType": "address",
          "name": "newOwner",
          "type": "address"
        }
      ],
      "name": "transferOwnership",
      "outputs": [],
      "stateMutability": "nonpayable",
      "type": "function"
    },
    {
      "inputs": [
        {
          "internalType": "address",
          "name": "newImplementation",
          "type": "address"
        }
      ],
      "name": "upgradeTo",
      "outputs": [],
      "stateMutability": "nonpayable",
      "type": "function"
    },
    {
      "inputs": [
        {
          "internalType": "address",
          "name": "newImplementation",
          "type": "address"
        },
        {
          "internalType": "bytes",
          "name": "data",
          "type": "bytes"
        }
      ],
      "name": "upgradeToAndCall",
      "outputs": [],
      "stateMutability": "payable",
      "type": "function"
    }
  ],
  "bytecode": "0x3060805260e0604052600d60a09081526c36b0b73a3632a830b4b73a32b960991b60c0526101f99062000033908262000a48565b503480156200004157600080fd5b50604051620040ab380380620040ab833981016040819052620000649162000bcb565b600054610100900460ff1615808015620000855750600054600160ff909116105b80620000b55750620000a2306200040760201b620013b21760201c565b158015620000b5575060005460ff166001145b6200011e5760405162461bcd60e51b815260206004820152602e60248201527f496e697469616c697a61626c653a20636f6e747261637420697320616c72656160448201526d191e481a5b9a5d1a585b1a5e995960921b60648201526084015b60405180910390fd5b6000805460ff19166001179055801562000142576000805461ff0019166101001790555b6001600160a01b038216620001895760405162461bcd60e51b815260206004820152600c60248201526b7a65726f206164647265737360a01b604482015260640162000115565b6200019362000416565b6200019d62000416565b620001a762000474565b620001b1620004da565b620001bb62000540565b6200020c6040518060400160405280600d81526020016c26b0b73a3632a830b4b73a32b960991b8152506040518060400160405280600281526020016104d560f41b815250620005a660201b60201c565b6101f780546001600160a01b0319166001600160a01b0384161790556101fa62000237848262000a48565b506101fb62000247858262000a48565b506101f75460405163e11b907360e01b81526001600160a01b0390911690633a9151b090309073__$72be15b22f32b3cee8961aec75f0011b97$__9063e11b9073906200029b906101f99060040162000c58565b600060405180830381865af4158015620002b9573d6000803e3d6000fd5b505050506040513d6000823e601f3d908101601f19168201604052620002e3919081019062000d4f565b6040518363ffffffff1660e01b81526004016200030292919062000d87565b6020604051808303816000875af115801562000322573d6000803e3d6000fd5b505050506040513d601f19601f8201168201806040525081019062000348919062000dcb565b6101f8819055506101f962000368466200061260201b620013c11760201c565b620003816101f8546200061260201b620013c11760201c565b604051602001620003959392919062000e03565b6040516020818303038152906040526101fc9081620003b5919062000a48565b508015620003fd576000805461ff0019169055604051600181527f7f26b83ff96e1f2b6a682f133852f6798a09c465da95921460cefb38474024989060200160405180910390a15b5050505062000eb9565b6001600160a01b03163b151590565b600054610100900460ff16620004725760405162461bcd60e51b815260206004820152602b60248201526000805160206200408b83398151915260448201526a6e697469616c697a696e6760a81b606482015260840162000115565b565b600054610100900460ff16620004d05760405162461bcd60e51b815260206004820152602b60248201526000805160206200408b83398151915260448201526a6e697469616c697a696e6760a81b606482015260840162000115565b62000472620006b6565b600054610100900460ff16620005365760405162461bcd60e51b815260206004820152602b60248201526000805160206200408b83398151915260448201526a6e697469616c697a696e6760a81b606482015260840162000115565b620004726200071d565b600054610100900460ff166200059c5760405162461bcd60e51b815260206004820152602b60248201526000805160206200408b83398151915260448201526a6e697469616c697a696e6760a81b606482015260840162000115565b6200047262000786565b600054610100900460ff16620006025760405162461bcd60e51b815260206004820152602b60248201526000805160206200408b83398151915260448201526a6e697469616c697a696e6760a81b606482015260840162000115565b6200060e8282620007ea565b5050565b606060006200062c836200086860201b620014611760201c565b60010190506000816001600160401b038111156200064e576200064e620009a4565b6040519080825280601f01601f19166020018201604052801562000679576020820181803683370190505b5090508181016020015b600019016f181899199a1a9b1b9c1cb0b131b232b360811b600a86061a8153600a85049450846200068357509392505050565b600054610100900460ff16620007125760405162461bcd60e51b815260206004820152602b60248201526000805160206200408b83398151915260448201526a6e697469616c697a696e6760a81b606482015260840162000115565b620004723362000952565b600054610100900460ff16620007795760405162461bcd60e51b815260206004820152602b60248201526000805160206200408b83398151915260448201526a6e697469616c697a696e6760a81b606482015260840162000115565b61012d805460ff19169055565b600054610100900460ff16620007e25760405162461bcd60e51b815260206004820152602b60248201526000805160206200408b83398151915260448201526a6e697469616c697a696e6760a81b606482015260840162000115565b600161015f55565b600054610100900460ff16620008465760405162461bcd60e51b815260206004820152602b60248201526000805160206200408b83398151915260448201526a6e697469616c697a696e6760a81b606482015260840162000115565b606562000854838262000a48565b50606662000863828262000a48565b505050565b6000807a184f03e93ff9f4daa797ed6e38ed64bf6a1f0100000000000000008310620008b2577a184f03e93ff9f4daa797ed6e38ed64bf6a1f010000000000000000830492506040015b6d04ee2d6d415b85acef81000000008310620008df576d04ee2d6d415b85acef8100000000830492506020015b662386f26fc100008310620008fe57662386f26fc10000830492506010015b6305f5e100831062000917576305f5e100830492506008015b61271083106200092c57612710830492506004015b606483106200093f576064830492506002015b600a83106200094c576001015b92915050565b60fb80546001600160a01b038381166001600160a01b0319831681179093556040519116919082907f8be0079c531659141344cd1fd0a4f28419497f9722a3daafe3b4186f6b6457e090600090a35050565b634e487b7160e01b600052604160045260246000fd5b600181811c90821680620009cf57607f821691505b602082108103620009f057634e487b7160e01b600052602260045260246000fd5b50919050565b601f8211156200086357600081815260208120601f850160051c8101602086101562000a1f5750805b601f850160051c820191505b8181101562000a405782815560010162000a2b565b505050505050565b81516001600160401b0381111562000a645762000a64620009a4565b62000a7c8162000a758454620009ba565b84620009f6565b602080601f83116001811462000ab4576000841562000a9b5750858301515b600019600386901b1c1916600185901b17855562000a40565b600085815260208120601f198616915b8281101562000ae55788860151825594840194600190910190840162000ac4565b508582101562000b045787850151600019600388901b60f8161c191681555b5050505050600190811b01905550565b60005b8381101562000b3157818101518382015260200162000b17565b50506000910152565b600082601f83011262000b4c57600080fd5b81516001600160401b038082111562000b695762000b69620009a4565b604051601f8301601f19908116603f0116810190828211818310171562000b945762000b94620009a4565b8160405283815286602085880101111562000bae57600080fd5b62000bc184602083016020890162000b14565b9695505050505050565b60008060006060848603121562000be157600080fd5b83516001600160401b038082111562000bf957600080fd5b62000c078783880162000b3a565b9450602086015191508082111562000c1e57600080fd5b5062000c2d8682870162000b3a565b604086015190935090506001600160a01b038116811462000c4d57600080fd5b809150509250925092565b60408152600080835462000c6c81620009ba565b806040860152606060018084166000811462000c91576001811462000cac5762000cdf565b60ff1985168884015283151560051b88018301955062000cdf565b8860005260208060002060005b8681101562000cd65781548b820187015290840190820162000cb9565b8a018501975050505b5050505050828103602084015262000d4781603881527f696420696e742c2065787465726e616c5f6c696e6b20746578742c207069786560208201527f6c5f696e64657820746578742c206f776e657220746578740000000000000000604082015260600190565b949350505050565b60006020828403121562000d6257600080fd5b81516001600160401b0381111562000d7957600080fd5b62000d478482850162000b3a565b60018060a01b0383168152604060208201526000825180604084015262000db681606085016020870162000b14565b601f01601f1916919091016060019392505050565b60006020828403121562000dde57600080fd5b5051919050565b6000815162000df981856020860162000b14565b9290920192915050565b600080855462000e1381620009ba565b6001828116801562000e2e576001811462000e445762000e75565b60ff198416875282151583028701945062000e75565b8960005260208060002060005b8581101562000e6c5781548a82015290840190820162000e51565b50505082870194505b50605f60f81b84528751925062000e938382860160208b0162000b14565b9282019262000ea7818501605f60f81b9052565b50505062000bc1600282018562000de5565b60805161319a62000ef1600039600081816109ff01528181610a9501528181610bb701528181610c4d0152610d48015261319a6000f3fe6080604052600436106101b65760003560e01c80635c975abb116100ec57806395d89b411161008a578063b88d4fde11610064578063b88d4fde146104ea578063c87b56dd1461050a578063e985e9c51461052a578063f2fde38b1461057357600080fd5b806395d89b4114610495578063a22cb465146104aa578063a5fc515e146104ca57600080fd5b8063715018a6116100c6578063715018a61461042257806379c65068146104375780637b47ec1a146104575780638da5cb5b1461047757600080fd5b80635c975abb146103c95780636352211e146103e257806370a082311461040257600080fd5b8063150b7a02116101595780633659cfe6116101335780633659cfe61461036157806342842e0e146103815780634f1ef286146103a157806352d1902d146103b457600080fd5b8063150b7a02146102cd57806318160ddd1461031e57806323b872dd1461034157600080fd5b806306fdde031161019557806306fdde0314610232578063081812fc146102545780630894eab11461028c578063095ea7b3146102ad57600080fd5b8062923f9e146101bb57806301dbcd4a146101f057806301ffc9a714610212575b600080fd5b3480156101c757600080fd5b506101db6101d6366004612714565b610593565b60405190151581526020015b60405180910390f35b3480156101fc57600080fd5b5061021061020b36600461272d565b6105b4565b005b34801561021e57600080fd5b506101db61022d3660046127cd565b610661565b34801561023e57600080fd5b50610247610744565b6040516101e7919061283a565b34801561026057600080fd5b5061027461026f366004612714565b6107d6565b6040516001600160a01b0390911681526020016101e7565b34801561029857600080fd5b506101fd54610274906001600160a01b031681565b3480156102b957600080fd5b506102106102c8366004612864565b6107fd565b3480156102d957600080fd5b506102ed6102e836600461294a565b610933565b6040517fffffffff0000000000000000000000000000000000000000000000000000000090911681526020016101e7565b34801561032a57600080fd5b5061033361095d565b6040519081526020016101e7565b34801561034d57600080fd5b5061021061035c3660046129b2565b61096e565b34801561036d57600080fd5b5061021061037c3660046129ee565b6109f5565b34801561038d57600080fd5b5061021061039c3660046129b2565b610b92565b6102106103af366004612a09565b610bad565b3480156103c057600080fd5b50610333610d3b565b3480156103d557600080fd5b5061012d5460ff166101db565b3480156103ee57600080fd5b506102746103fd366004612714565b610e00565b34801561040e57600080fd5b5061033361041d3660046129ee565b610e65565b34801561042e57600080fd5b50610210610eff565b34801561044357600080fd5b50610333610452366004612864565b610f13565b34801561046357600080fd5b506101db610472366004612714565b611085565b34801561048357600080fd5b5060fb546001600160a01b0316610274565b3480156104a157600080fd5b50610247611120565b3480156104b657600080fd5b506102106104c5366004612a57565b61112f565b3480156104d657600080fd5b506102106104e53660046129ee565b61113a565b3480156104f657600080fd5b5061021061050536600461294a565b6111c8565b34801561051657600080fd5b50610247610525366004612714565b611256565b34801561053657600080fd5b506101db610545366004612a93565b6001600160a01b039182166000908152606a6020908152604080832093909416825291909152205460ff1690565b34801561057f57600080fd5b5061021061058e3660046129ee565b611325565b6000818152606760205260408120546001600160a01b031615155b92915050565b6105bc611543565b6101fa6105ca828483612b5f565b506101f7546101f8546040516001600160a01b039092169163eaf5d04e9130916105fe906101fc9088908890602001612cb1565b6040516020818303038152906040526040518463ffffffff1660e01b815260040161062b93929190612d69565b600060405180830381600087803b15801561064557600080fd5b505af1158015610659573d6000803e3d6000fd5b505050505050565b60007fffffffff0000000000000000000000000000000000000000000000000000000082167f80ac58cd0000000000000000000000000000000000000000000000000000000014806106f457507fffffffff0000000000000000000000000000000000000000000000000000000082167f5b5e139f00000000000000000000000000000000000000000000000000000000145b806105ae57507f01ffc9a7000000000000000000000000000000000000000000000000000000007fffffffff000000000000000000000000000000000000000000000000000000008316146105ae565b60606065805461075390612ac6565b80601f016020809104026020016040519081016040528092919081815260200182805461077f90612ac6565b80156107cc5780601f106107a1576101008083540402835291602001916107cc565b820191906000526020600020905b8154815290600101906020018083116107af57829003601f168201915b5050505050905090565b60006107e18261159d565b506000908152606960205260409020546001600160a01b031690565b600061080882610e00565b9050806001600160a01b0316836001600160a01b0316036108965760405162461bcd60e51b815260206004820152602160248201527f4552433732313a20617070726f76616c20746f2063757272656e74206f776e6560448201527f720000000000000000000000000000000000000000000000000000000000000060648201526084015b60405180910390fd5b336001600160a01b03821614806108b257506108b28133610545565b6109245760405162461bcd60e51b815260206004820152603d60248201527f4552433732313a20617070726f76652063616c6c6572206973206e6f7420746f60448201527f6b656e206f776e6572206f7220617070726f76656420666f7220616c6c000000606482015260840161088d565b61092e8383611601565b505050565b7f150b7a02000000000000000000000000000000000000000000000000000000005b949350505050565b60006109696101f55490565b905090565b610978338261167c565b6109ea5760405162461bcd60e51b815260206004820152602d60248201527f4552433732313a2063616c6c6572206973206e6f7420746f6b656e206f776e6560448201527f72206f7220617070726f76656400000000000000000000000000000000000000606482015260840161088d565b61092e8383836116fa565b6001600160a01b037f0000000000000000000000000000000000000000000000000000000000000000163003610a935760405162461bcd60e51b815260206004820152602c60248201527f46756e6374696f6e206d7573742062652063616c6c6564207468726f7567682060448201527f64656c656761746563616c6c0000000000000000000000000000000000000000606482015260840161088d565b7f00000000000000000000000000000000000000000000000000000000000000006001600160a01b0316610aee7f360894a13ba1a3210667c828492db98dca3e2076cc3735a920a3ca505d382bbc546001600160a01b031690565b6001600160a01b031614610b6a5760405162461bcd60e51b815260206004820152602c60248201527f46756e6374696f6e206d7573742062652063616c6c6564207468726f7567682060448201527f6163746976652070726f78790000000000000000000000000000000000000000606482015260840161088d565b610b738161193d565b60408051600080825260208201909252610b8f91839190611945565b50565b61092e838383604051806020016040528060008152506111c8565b6001600160a01b037f0000000000000000000000000000000000000000000000000000000000000000163003610c4b5760405162461bcd60e51b815260206004820152602c60248201527f46756e6374696f6e206d7573742062652063616c6c6564207468726f7567682060448201527f64656c656761746563616c6c0000000000000000000000000000000000000000606482015260840161088d565b7f00000000000000000000000000000000000000000000000000000000000000006001600160a01b0316610ca67f360894a13ba1a3210667c828492db98dca3e2076cc3735a920a3ca505d382bbc546001600160a01b031690565b6001600160a01b031614610d225760405162461bcd60e51b815260206004820152602c60248201527f46756e6374696f6e206d7573742062652063616c6c6564207468726f7567682060448201527f6163746976652070726f78790000000000000000000000000000000000000000606482015260840161088d565b610d2b8261193d565b610d3782826001611945565b5050565b6000306001600160a01b037f00000000000000000000000000000000000000000000000000000000000000001614610ddb5760405162461bcd60e51b815260206004820152603860248201527f555550535570677261646561626c653a206d757374206e6f742062652063616c60448201527f6c6564207468726f7567682064656c656761746563616c6c0000000000000000606482015260840161088d565b507f360894a13ba1a3210667c828492db98dca3e2076cc3735a920a3ca505d382bbc90565b6000818152606760205260408120546001600160a01b0316806105ae5760405162461bcd60e51b815260206004820152601860248201527f4552433732313a20696e76616c696420746f6b656e2049440000000000000000604482015260640161088d565b60006001600160a01b038216610ee35760405162461bcd60e51b815260206004820152602960248201527f4552433732313a2061646472657373207a65726f206973206e6f74206120766160448201527f6c6964206f776e65720000000000000000000000000000000000000000000000606482015260840161088d565b506001600160a01b031660009081526068602052604090205490565b610f07611543565b610f116000611ae5565b565b6101fd546000906001600160a01b03163314610f975760405162461bcd60e51b815260206004820152602e60248201527f4f6e6c79204d616e746c655061696e74657220636f6e74726163742063616e2060448201527f6d616b6520746869732063616c6c000000000000000000000000000000000000606482015260840161088d565b610fa66101f580546001019055565b6101f7546101f8546001600160a01b039091169063eaf5d04e9030906101fc610fd7610fd26101f55490565b6113c1565b6101fa610fe3896113c1565b610fec8b611b44565b604051602001611000959493929190612d91565b6040516020818303038152906040526040518463ffffffff1660e01b815260040161102d93929190612d69565b600060405180830381600087803b15801561104757600080fd5b505af115801561105b573d6000803e3d6000fd5b50505050611079838360405180602001604052806000815250611b5a565b6101f5545b9392505050565b6101fd546000906001600160a01b031633146111095760405162461bcd60e51b815260206004820152602e60248201527f4f6e6c79204d616e746c655061696e74657220636f6e74726163742063616e2060448201527f6d616b6520746869732063616c6c000000000000000000000000000000000000606482015260840161088d565b61111282611be3565b6105ae82610593565b919050565b60606066805461075390612ac6565b610d37338383611c23565b611142611543565b6001600160a01b0381166111985760405162461bcd60e51b815260206004820152600c60248201527f7a65726f20616464726573730000000000000000000000000000000000000000604482015260640161088d565b6101fd805473ffffffffffffffffffffffffffffffffffffffff19166001600160a01b0392909216919091179055565b6111d2338361167c565b6112445760405162461bcd60e51b815260206004820152602d60248201527f4552433732313a2063616c6c6572206973206e6f7420746f6b656e206f776e6560448201527f72206f7220617070726f76656400000000000000000000000000000000000000606482015260840161088d565b61125084848484611d0f565b50505050565b6000818152606760205260409020546060906001600160a01b03166112e35760405162461bcd60e51b815260206004820152603160248201527f45524337323155524953746f726167653a2055524920717565727920666f722060448201527f6e6f6e6578697374656e7420746f6b656e000000000000000000000000000000606482015260840161088d565b60006112ed611d98565b9050806101fc6112fc856113c1565b60405160200161130e93929190612eb0565b604051602081830303815290604052915050919050565b61132d611543565b6001600160a01b0381166113a95760405162461bcd60e51b815260206004820152602660248201527f4f776e61626c653a206e6577206f776e657220697320746865207a65726f206160448201527f6464726573730000000000000000000000000000000000000000000000000000606482015260840161088d565b610b8f81611ae5565b6001600160a01b03163b151590565b606060006113ce83611461565b600101905060008167ffffffffffffffff8111156113ee576113ee61288e565b6040519080825280601f01601f191660200182016040528015611418576020820181803683370190505b5090508181016020015b600019017f3031323334353637383961626364656600000000000000000000000000000000600a86061a8153600a850494508461142257509392505050565b6000807a184f03e93ff9f4daa797ed6e38ed64bf6a1f01000000000000000083106114aa577a184f03e93ff9f4daa797ed6e38ed64bf6a1f010000000000000000830492506040015b6d04ee2d6d415b85acef810000000083106114d6576d04ee2d6d415b85acef8100000000830492506020015b662386f26fc1000083106114f457662386f26fc10000830492506010015b6305f5e100831061150c576305f5e100830492506008015b612710831061152057612710830492506004015b60648310611532576064830492506002015b600a83106105ae5760010192915050565b60fb546001600160a01b03163314610f115760405162461bcd60e51b815260206004820181905260248201527f4f776e61626c653a2063616c6c6572206973206e6f7420746865206f776e6572604482015260640161088d565b6000818152606760205260409020546001600160a01b0316610b8f5760405162461bcd60e51b815260206004820152601860248201527f4552433732313a20696e76616c696420746f6b656e2049440000000000000000604482015260640161088d565b6000818152606960205260409020805473ffffffffffffffffffffffffffffffffffffffff19166001600160a01b038416908117909155819061164382610e00565b6001600160a01b03167f8c5be1e5ebec7d5bd14f71427d1e84f3dd0314c0f7b2291e5b200ac8c7c3b92560405160405180910390a45050565b60008061168883610e00565b9050806001600160a01b0316846001600160a01b031614806116cf57506001600160a01b038082166000908152606a602090815260408083209388168352929052205460ff165b806109555750836001600160a01b03166116e8846107d6565b6001600160a01b031614949350505050565b826001600160a01b031661170d82610e00565b6001600160a01b0316146117895760405162461bcd60e51b815260206004820152602560248201527f4552433732313a207472616e736665722066726f6d20696e636f72726563742060448201527f6f776e6572000000000000000000000000000000000000000000000000000000606482015260840161088d565b6001600160a01b0382166118045760405162461bcd60e51b8152602060048201526024808201527f4552433732313a207472616e7366657220746f20746865207a65726f2061646460448201527f7265737300000000000000000000000000000000000000000000000000000000606482015260840161088d565b6118118383836001611da8565b826001600160a01b031661182482610e00565b6001600160a01b0316146118a05760405162461bcd60e51b815260206004820152602560248201527f4552433732313a207472616e736665722066726f6d20696e636f72726563742060448201527f6f776e6572000000000000000000000000000000000000000000000000000000606482015260840161088d565b6000818152606960209081526040808320805473ffffffffffffffffffffffffffffffffffffffff199081169091556001600160a01b0387811680865260688552838620805460001901905590871680865283862080546001019055868652606790945282852080549092168417909155905184937fddf252ad1be2c89b69c2b068fc378daa952ba7f163c4a11628f55a4df523b3ef91a4505050565b610b8f611543565b7f4910fdfa16fed3260ed0e7147f7cc6da11a60208b5b9406d12a635614ffd91435460ff16156119785761092e83611e30565b826001600160a01b03166352d1902d6040518163ffffffff1660e01b8152600401602060405180830381865afa9250505080156119d2575060408051601f3d908101601f191682019092526119cf91810190612ffd565b60015b611a445760405162461bcd60e51b815260206004820152602e60248201527f45524331393637557067726164653a206e657720696d706c656d656e7461746960448201527f6f6e206973206e6f742055555053000000000000000000000000000000000000606482015260840161088d565b7f360894a13ba1a3210667c828492db98dca3e2076cc3735a920a3ca505d382bbc8114611ad95760405162461bcd60e51b815260206004820152602960248201527f45524331393637557067726164653a20756e737570706f727465642070726f7860448201527f6961626c65555549440000000000000000000000000000000000000000000000606482015260840161088d565b5061092e838383611efb565b60fb80546001600160a01b0383811673ffffffffffffffffffffffffffffffffffffffff19831681179093556040519116919082907f8be0079c531659141344cd1fd0a4f28419497f9722a3daafe3b4186f6b6457e090600090a35050565b60606105ae6001600160a01b0383166014611f20565b611b648383612149565b611b7160008484846122ef565b61092e5760405162461bcd60e51b815260206004820152603260248201527f4552433732313a207472616e7366657220746f206e6f6e20455243373231526560448201527f63656976657220696d706c656d656e7465720000000000000000000000000000606482015260840161088d565b611bec8161248d565b60008181526097602052604090208054611c0590612ac6565b159050610b8f576000818152609760205260408120610b8f916126c6565b816001600160a01b0316836001600160a01b031603611c845760405162461bcd60e51b815260206004820152601960248201527f4552433732313a20617070726f766520746f2063616c6c657200000000000000604482015260640161088d565b6001600160a01b038381166000818152606a602090815260408083209487168084529482529182902080547fffffffffffffffffffffffffffffffffffffffffffffffffffffffffffffff001686151590811790915591519182527f17307eab39ab6107e8899845ad3d59bd9653f200f220920489ca2b5937696c31910160405180910390a3505050565b611d1a8484846116fa565b611d26848484846122ef565b6112505760405162461bcd60e51b815260206004820152603260248201527f4552433732313a207472616e7366657220746f206e6f6e20455243373231526560448201527f63656976657220696d706c656d656e7465720000000000000000000000000000606482015260840161088d565b60606101fb805461075390612ac6565b6001811115611250576001600160a01b03841615611dee576001600160a01b03841660009081526068602052604081208054839290611de8908490613045565b90915550505b6001600160a01b03831615611250576001600160a01b03831660009081526068602052604081208054839290611e25908490613058565b909155505050505050565b6001600160a01b0381163b611ead5760405162461bcd60e51b815260206004820152602d60248201527f455243313936373a206e657720696d706c656d656e746174696f6e206973206e60448201527f6f74206120636f6e747261637400000000000000000000000000000000000000606482015260840161088d565b7f360894a13ba1a3210667c828492db98dca3e2076cc3735a920a3ca505d382bbc805473ffffffffffffffffffffffffffffffffffffffff19166001600160a01b0392909216919091179055565b611f048361253d565b600082511180611f115750805b1561092e57611250838361257d565b60606000611f2f83600261306b565b611f3a906002613058565b67ffffffffffffffff811115611f5257611f5261288e565b6040519080825280601f01601f191660200182016040528015611f7c576020820181803683370190505b5090507f300000000000000000000000000000000000000000000000000000000000000081600081518110611fb357611fb3613082565b60200101907effffffffffffffffffffffffffffffffffffffffffffffffffffffffffffff1916908160001a9053507f78000000000000000000000000000000000000000000000000000000000000008160018151811061201657612016613082565b60200101907effffffffffffffffffffffffffffffffffffffffffffffffffffffffffffff1916908160001a905350600061205284600261306b565b61205d906001613058565b90505b60018111156120fa577f303132333435363738396162636465660000000000000000000000000000000085600f166010811061209e5761209e613082565b1a60f81b8282815181106120b4576120b4613082565b60200101907effffffffffffffffffffffffffffffffffffffffffffffffffffffffffffff1916908160001a90535060049490941c936120f3816130b1565b9050612060565b50831561107e5760405162461bcd60e51b815260206004820181905260248201527f537472696e67733a20686578206c656e67746820696e73756666696369656e74604482015260640161088d565b6001600160a01b03821661219f5760405162461bcd60e51b815260206004820181905260248201527f4552433732313a206d696e7420746f20746865207a65726f2061646472657373604482015260640161088d565b6000818152606760205260409020546001600160a01b0316156122045760405162461bcd60e51b815260206004820152601c60248201527f4552433732313a20746f6b656e20616c7265616479206d696e74656400000000604482015260640161088d565b612212600083836001611da8565b6000818152606760205260409020546001600160a01b0316156122775760405162461bcd60e51b815260206004820152601c60248201527f4552433732313a20746f6b656e20616c7265616479206d696e74656400000000604482015260640161088d565b6001600160a01b0382166000818152606860209081526040808320805460010190558483526067909152808220805473ffffffffffffffffffffffffffffffffffffffff19168417905551839291907fddf252ad1be2c89b69c2b068fc378daa952ba7f163c4a11628f55a4df523b3ef908290a45050565b60006001600160a01b0384163b15612485576040517f150b7a020000000000000000000000000000000000000000000000000000000081526001600160a01b0385169063150b7a029061234c9033908990889088906004016130c8565b6020604051808303816000875af1925050508015612387575060408051601f3d908101601f1916820190925261238491810190613104565b60015b61243a573d8080156123b5576040519150601f19603f3d011682016040523d82523d6000602084013e6123ba565b606091505b5080516000036124325760405162461bcd60e51b815260206004820152603260248201527f4552433732313a207472616e7366657220746f206e6f6e20455243373231526560448201527f63656976657220696d706c656d656e7465720000000000000000000000000000606482015260840161088d565b805181602001fd5b7fffffffff00000000000000000000000000000000000000000000000000000000167f150b7a0200000000000000000000000000000000000000000000000000000000149050610955565b506001610955565b600061249882610e00565b90506124a8816000846001611da8565b6124b182610e00565b6000838152606960209081526040808320805473ffffffffffffffffffffffffffffffffffffffff199081169091556001600160a01b0385168085526068845282852080546000190190558785526067909352818420805490911690555192935084927fddf252ad1be2c89b69c2b068fc378daa952ba7f163c4a11628f55a4df523b3ef908390a45050565b61254681611e30565b6040516001600160a01b038216907fbc7cd75a20ee27fd9adebab32041f755214dbc6bffa90cc0225b39da2e5c2d3b90600090a250565b60606001600160a01b0383163b6125fc5760405162461bcd60e51b815260206004820152602660248201527f416464726573733a2064656c65676174652063616c6c20746f206e6f6e2d636f60448201527f6e74726163740000000000000000000000000000000000000000000000000000606482015260840161088d565b600080846001600160a01b0316846040516126179190613121565b600060405180830381855af49150503d8060008114612652576040519150601f19603f3d011682016040523d82523d6000602084013e612657565b606091505b509150915061267f828260405180606001604052806027815260200161313e60279139612688565b95945050505050565b6060831561269757508161107e565b61107e83838151156126ac5781518083602001fd5b8060405162461bcd60e51b815260040161088d919061283a565b5080546126d290612ac6565b6000825580601f106126e2575050565b601f016020900490600052602060002090810190610b8f91905b8082111561271057600081556001016126fc565b5090565b60006020828403121561272657600080fd5b5035919050565b6000806020838503121561274057600080fd5b823567ffffffffffffffff8082111561275857600080fd5b818501915085601f83011261276c57600080fd5b81358181111561277b57600080fd5b86602082850101111561278d57600080fd5b60209290920196919550909350505050565b7fffffffff0000000000000000000000000000000000000000000000000000000081168114610b8f57600080fd5b6000602082840312156127df57600080fd5b813561107e8161279f565b60005b838110156128055781810151838201526020016127ed565b50506000910152565b600081518084526128268160208601602086016127ea565b601f01601f19169290920160200192915050565b60208152600061107e602083018461280e565b80356001600160a01b038116811461111b57600080fd5b6000806040838503121561287757600080fd5b6128808361284d565b946020939093013593505050565b7f4e487b7100000000000000000000000000000000000000000000000000000000600052604160045260246000fd5b600082601f8301126128ce57600080fd5b813567ffffffffffffffff808211156128e9576128e961288e565b604051601f8301601f19908116603f011681019082821181831017156129115761291161288e565b8160405283815286602085880101111561292a57600080fd5b836020870160208301376000602085830101528094505050505092915050565b6000806000806080858703121561296057600080fd5b6129698561284d565b93506129776020860161284d565b925060408501359150606085013567ffffffffffffffff81111561299a57600080fd5b6129a6878288016128bd565b91505092959194509250565b6000806000606084860312156129c757600080fd5b6129d08461284d565b92506129de6020850161284d565b9150604084013590509250925092565b600060208284031215612a0057600080fd5b61107e8261284d565b60008060408385031215612a1c57600080fd5b612a258361284d565b9150602083013567ffffffffffffffff811115612a4157600080fd5b612a4d858286016128bd565b9150509250929050565b60008060408385031215612a6a57600080fd5b612a738361284d565b915060208301358015158114612a8857600080fd5b809150509250929050565b60008060408385031215612aa657600080fd5b612aaf8361284d565b9150612abd6020840161284d565b90509250929050565b600181811c90821680612ada57607f821691505b602082108103612b13577f4e487b7100000000000000000000000000000000000000000000000000000000600052602260045260246000fd5b50919050565b601f82111561092e57600081815260208120601f850160051c81016020861015612b405750805b601f850160051c820191505b8181101561065957828155600101612b4c565b67ffffffffffffffff831115612b7757612b7761288e565b612b8b83612b858354612ac6565b83612b19565b6000601f841160018114612bbf5760008515612ba75750838201355b600019600387901b1c1916600186901b178355612c19565b600083815260209020601f19861690835b82811015612bf05786850135825560209485019460019092019101612bd0565b5086821015612c0d5760001960f88860031b161c19848701351681555b505060018560011b0183555b5050505050565b60008154612c2d81612ac6565b60018281168015612c455760018114612c7857612ca7565b7fffffffffffffffffffffffffffffffffffffffffffffffffffffffffffffff0084168752821515830287019450612ca7565b8560005260208060002060005b85811015612c9e5781548a820152908401908201612c85565b50505082870194505b5050505092915050565b7f757064617465200000000000000000000000000000000000000000000000000081526000612ce36007830186612c20565b7f207365742065787465726e616c5f6c696e6b203d2000000000000000000000008152838560158301377f7c7c273f746f6b656e49643d277c7c69640000000000000000000000000000009301601581019390935250507f3b00000000000000000000000000000000000000000000000000000000000000602682015260270192915050565b6001600160a01b038416815282602082015260606040820152600061267f606083018461280e565b7f494e5345525420494e544f20000000000000000000000000000000000000000081526000612dc3600c830188612c20565b7f202869642c2065787465726e616c5f6c696e6b2c20706978656c5f696e64657881527f2c6f776e6572292056414c55455320280000000000000000000000000000000060208201528651612e1f816030840160208b016127ea565b7f2c2027000000000000000000000000000000000000000000000000000000000060309290910191820152612e576033820187612c20565b90508451612e698183602089016127ea565b8451910190612e7c8183602088016127ea565b7f27292700000000000000000000000000000000000000000000000000000000009101908152600301979650505050505050565b60008451612ec28184602089016127ea565b7f53454c4543542532306a736f6e5f6f626a6563742825323769642532372c69649083019081527f2c25323765787465726e616c5f6c696e6b2532372c65787465726e616c5f6c6960208201527f6e6b2c253237706978656c5f696e6465782532372c706978656c5f696e64657860408201527f2c2532376f776e65722532372c6f776e65722925323061732532306d6574612560608201527f323046524f4d25323000000000000000000000000000000000000000000000006080820152612f8e6089820186612c20565b90507f253230574845524525323069643d00000000000000000000000000000000000081528351612fc681600e8401602088016127ea565b7f266d6f64653d6c69737400000000000000000000000000000000000000000000600e929091019182015260180195945050505050565b60006020828403121561300f57600080fd5b5051919050565b7f4e487b7100000000000000000000000000000000000000000000000000000000600052601160045260246000fd5b818103818111156105ae576105ae613016565b808201808211156105ae576105ae613016565b80820281158282048414176105ae576105ae613016565b7f4e487b7100000000000000000000000000000000000000000000000000000000600052603260045260246000fd5b6000816130c0576130c0613016565b506000190190565b60006001600160a01b038087168352808616602084015250836040830152608060608301526130fa608083018461280e565b9695505050505050565b60006020828403121561311657600080fd5b815161107e8161279f565b600082516131338184602087016127ea565b919091019291505056fe416464726573733a206c6f772d6c6576656c2064656c65676174652063616c6c206661696c6564a2646970667358221220b22ef4bceacbf64c7877027749a99989f5b27a30c2df0224fbdde77923a0306364736f6c63430008110033496e697469616c697a61626c653a20636f6e7472616374206973206e6f742069",
  "linkReferences": {
    "contracts/SQLHelpers.sol": {
      "SQLHelpers": [
        {
          "length": 20,
          "start": 623
        }
      ]
    }
  },
  "deployedLinkReferences": {}
}