{
  "_format": "hh-sol-artifact-1",
  "contractName": "ModuleManager",
  "sourceName": "@gnosis.pm/safe-contracts/contracts/base/ModuleManager.sol",
  "abi": [
    {
      "anonymous": false,
      "inputs": [
        {
          "indexed": false,
          "internalType": "address",
          "name": "module",
          "type": "address"
        }
      ],
      "name": "DisabledModule",
      "type": "event"
    },
    {
      "anonymous": false,
      "inputs": [
        {
          "indexed": false,
          "internalType": "address",
          "name": "module",
          "type": "address"
        }
      ],
      "name": "EnabledModule",
      "type": "event"
    },
    {
      "anonymous": false,
      "inputs": [
        {
          "indexed": true,
          "internalType": "address",
          "name": "module",
          "type": "address"
        }
      ],
      "name": "ExecutionFromModuleFailure",
      "type": "event"
    },
    {
      "anonymous": false,
      "inputs": [
        {
          "indexed": true,
          "internalType": "address",
          "name": "module",
          "type": "address"
        }
      ],
      "name": "ExecutionFromModuleSuccess",
      "type": "event"
    },
    {
      "inputs": [
        {
          "internalType": "address",
          "name": "prevModule",
          "type": "address"
        },
        {
          "internalType": "address",
          "name": "module",
          "type": "address"
        }
      ],
      "name": "disableModule",
      "outputs": [],
      "stateMutability": "nonpayable",
      "type": "function"
    },
    {
      "inputs": [
        {
          "internalType": "address",
          "name": "module",
          "type": "address"
        }
      ],
      "name": "enableModule",
      "outputs": [],
      "stateMutability": "nonpayable",
      "type": "function"
    },
    {
      "inputs": [
        {
          "internalType": "address",
          "name": "to",
          "type": "address"
        },
        {
          "internalType": "uint256",
          "name": "value",
          "type": "uint256"
        },
        {
          "internalType": "bytes",
          "name": "data",
          "type": "bytes"
        },
        {
          "internalType": "enum Enum.Operation",
          "name": "operation",
          "type": "uint8"
        }
      ],
      "name": "execTransactionFromModule",
      "outputs": [
        {
          "internalType": "bool",
          "name": "success",
          "type": "bool"
        }
      ],
      "stateMutability": "nonpayable",
      "type": "function"
    },
    {
      "inputs": [
        {
          "internalType": "address",
          "name": "to",
          "type": "address"
        },
        {
          "internalType": "uint256",
          "name": "value",
          "type": "uint256"
        },
        {
          "internalType": "bytes",
          "name": "data",
          "type": "bytes"
        },
        {
          "internalType": "enum Enum.Operation",
          "name": "operation",
          "type": "uint8"
        }
      ],
      "name": "execTransactionFromModuleReturnData",
      "outputs": [
        {
          "internalType": "bool",
          "name": "success",
          "type": "bool"
        },
        {
          "internalType": "bytes",
          "name": "returnData",
          "type": "bytes"
        }
      ],
      "stateMutability": "nonpayable",
      "type": "function"
    },
    {
      "inputs": [
        {
          "internalType": "address",
          "name": "start",
          "type": "address"
        },
        {
          "internalType": "uint256",
          "name": "pageSize",
          "type": "uint256"
        }
      ],
      "name": "getModulesPaginated",
      "outputs": [
        {
          "internalType": "address[]",
          "name": "array",
          "type": "address[]"
        },
        {
          "internalType": "address",
          "name": "next",
          "type": "address"
        }
      ],
      "stateMutability": "view",
      "type": "function"
    },
    {
      "inputs": [
        {
          "internalType": "address",
          "name": "module",
          "type": "address"
        }
      ],
      "name": "isModuleEnabled",
      "outputs": [
        {
          "internalType": "bool",
          "name": "",
          "type": "bool"
        }
      ],
      "stateMutability": "view",
      "type": "function"
    }
  ],
  "bytecode": "0x608060405234801561001057600080fd5b50610b91806100206000396000f3fe608060405234801561001057600080fd5b50600436106100725760003560e01c8063610b592511610050578063610b5925146100d3578063cc2f8452146100e8578063e009cfde1461010957600080fd5b80632d9ad53d14610077578063468721a71461009f5780635229073f146100b2575b600080fd5b61008a6100853660046107fa565b61011c565b60405190151581526020015b60405180910390f35b61008a6100ad36600461085a565b610171565b6100c56100c036600461085a565b610272565b604051610096929190610954565b6100e66100e13660046107fa565b6102a8565b005b6100fb6100f63660046109ca565b610464565b6040516100969291906109f4565b6100e6610117366004610a6b565b610591565b6000600173ffffffffffffffffffffffffffffffffffffffff83161480159061016b575073ffffffffffffffffffffffffffffffffffffffff8281166000908152602081905260409020541615155b92915050565b6000336001148015906101a857503360009081526020819052604090205473ffffffffffffffffffffffffffffffffffffffff1615155b6101f95760405162461bcd60e51b815260206004820152600560248201527f475331303400000000000000000000000000000000000000000000000000000060448201526064015b60405180910390fd5b610206858585855a610739565b9050801561023e5760405133907f6895c13664aa4f67288b25d7a21d7aaa34916e355fb9b6fae0a139a9085becb890600090a261026a565b60405133907facd2c8702804128fdb0db2bb49f6d127dd0181c13fd45dbfe16de0930e2bd37590600090a25b949350505050565b6000606061028286868686610171565b915060405160203d0181016040523d81523d6000602083013e8091505094509492505050565b6102b0610780565b73ffffffffffffffffffffffffffffffffffffffff8116158015906102ec575073ffffffffffffffffffffffffffffffffffffffff8116600114155b6103385760405162461bcd60e51b815260206004820152600560248201527f475331303100000000000000000000000000000000000000000000000000000060448201526064016101f0565b73ffffffffffffffffffffffffffffffffffffffff81811660009081526020819052604090205416156103ad5760405162461bcd60e51b815260206004820152600560248201527f475331303200000000000000000000000000000000000000000000000000000060448201526064016101f0565b600060208181527fada5013122d395ba3c54772283fb069b10426056ef8ca54750cb9bb552a59e7d805473ffffffffffffffffffffffffffffffffffffffff85811680865260408087208054939094167fffffffffffffffffffffffff00000000000000000000000000000000000000009384161790935560019095528254168417909155519182527fecdf3a3effea5783a3c4c2140e677577666428d44ed9d474a0b3a4c9943f8440910160405180910390a150565b606060008267ffffffffffffffff8111156104815761048161081c565b6040519080825280602002602001820160405280156104aa578160200160208202803683370190505b5073ffffffffffffffffffffffffffffffffffffffff80861660009081526020819052604081205492945091165b73ffffffffffffffffffffffffffffffffffffffff811615801590610514575073ffffffffffffffffffffffffffffffffffffffff8116600114155b801561051f57508482105b15610583578084838151811061053757610537610a9e565b73ffffffffffffffffffffffffffffffffffffffff928316602091820292909201810191909152918116600090815291829052604090912054168161057b81610acd565b9250506104d8565b908352919491935090915050565b610599610780565b73ffffffffffffffffffffffffffffffffffffffff8116158015906105d5575073ffffffffffffffffffffffffffffffffffffffff8116600114155b6106215760405162461bcd60e51b815260206004820152600560248201527f475331303100000000000000000000000000000000000000000000000000000060448201526064016101f0565b73ffffffffffffffffffffffffffffffffffffffff82811660009081526020819052604090205481169082161461069a5760405162461bcd60e51b815260206004820152600560248201527f475331303300000000000000000000000000000000000000000000000000000060448201526064016101f0565b73ffffffffffffffffffffffffffffffffffffffff818116600081815260208181526040808320805488871685528285208054919097167fffffffffffffffffffffffff00000000000000000000000000000000000000009182161790965592849052825490941690915591519081527faab4fa2b463f581b2b32cb3b7e3b704b9ce37cc209b5fb4d77e593ace4054276910160405180910390a15050565b6000600183600181111561074f5761074f610b2c565b03610767576000808551602087018986f49050610777565b600080855160208701888a87f190505b95945050505050565b3330146107cf5760405162461bcd60e51b815260206004820152600560248201527f475330333100000000000000000000000000000000000000000000000000000060448201526064016101f0565b565b803573ffffffffffffffffffffffffffffffffffffffff811681146107f557600080fd5b919050565b60006020828403121561080c57600080fd5b610815826107d1565b9392505050565b7f4e487b7100000000000000000000000000000000000000000000000000000000600052604160045260246000fd5b8035600281106107f557600080fd5b6000806000806080858703121561087057600080fd5b610879856107d1565b935060208501359250604085013567ffffffffffffffff8082111561089d57600080fd5b818701915087601f8301126108b157600080fd5b8135818111156108c3576108c361081c565b604051601f82017fffffffffffffffffffffffffffffffffffffffffffffffffffffffffffffffe0908116603f011681019083821181831017156109095761090961081c565b816040528281528a602084870101111561092257600080fd5b8260208601602083013760006020848301015280965050505050506109496060860161084b565b905092959194509250565b821515815260006020604081840152835180604085015260005b8181101561098a5785810183015185820160600152820161096e565b5060006060828601015260607fffffffffffffffffffffffffffffffffffffffffffffffffffffffffffffffe0601f830116850101925050509392505050565b600080604083850312156109dd57600080fd5b6109e6836107d1565b946020939093013593505050565b604080825283519082018190526000906020906060840190828701845b82811015610a4357815173ffffffffffffffffffffffffffffffffffffffff1684529284019290840190600101610a11565b50505073ffffffffffffffffffffffffffffffffffffffff9490941692019190915250919050565b60008060408385031215610a7e57600080fd5b610a87836107d1565b9150610a95602084016107d1565b90509250929050565b7f4e487b7100000000000000000000000000000000000000000000000000000000600052603260045260246000fd5b60007fffffffffffffffffffffffffffffffffffffffffffffffffffffffffffffffff8203610b25577f4e487b7100000000000000000000000000000000000000000000000000000000600052601160045260246000fd5b5060010190565b7f4e487b7100000000000000000000000000000000000000000000000000000000600052602160045260246000fdfea26469706673582212208ce132ca0dd98c3293f3c1b6fdd29a826883acae8c32842f3fdde294bc9ed3c164736f6c63430008110033",
  "linkReferences": {},
  "deployedLinkReferences": {}
}