{"contracts/SQLHelpers.sol":{"SQLHelpers":{"abi":[{"inputs":[{"internalType":"string","name":"prefix","type":"string"},{"internalType":"string","name":"schema","type":"string"}],"name":"toCreateFromSchema","outputs":[{"internalType":"string","name":"","type":"string"}],"stateMutability":"view","type":"function"},{"inputs":[{"internalType":"string","name":"prefix","type":"string"},{"internalType":"uint256","name":"tableId","type":"uint256"},{"internalType":"string","name":"filters","type":"string"}],"name":"toDelete","outputs":[{"internalType":"string","name":"","type":"string"}],"stateMutability":"view","type":"function"},{"inputs":[{"internalType":"string","name":"prefix","type":"string"},{"internalType":"uint256","name":"tableId","type":"uint256"},{"internalType":"string","name":"columns","type":"string"},{"internalType":"string","name":"values","type":"string"}],"name":"toInsert","outputs":[{"internalType":"string","name":"","type":"string"}],"stateMutability":"view","type":"function"},{"inputs":[{"internalType":"string","name":"prefix","type":"string"},{"internalType":"uint256","name":"tableId","type":"uint256"},{"internalType":"string","name":"columns","type":"string"},{"internalType":"string","name":"values","type":"string"}],"name":"toInsertMultipleRows","outputs":[{"internalType":"string","name":"","type":"string"}],"stateMutability":"view","type":"function"},{"inputs":[{"internalType":"string","name":"prefix","type":"string"},{"internalType":"uint256","name":"tableId","type":"uint256"}],"name":"toNameFromId","outputs":[{"internalType":"string","name":"","type":"string"}],"stateMutability":"view","type":"function"},{"inputs":[{"internalType":"string","name":"prefix","type":"string"},{"internalType":"uint256","name":"tableId","type":"uint256"},{"internalType":"string","name":"setters","type":"string"},{"internalType":"string","name":"filters","type":"string"}],"name":"toUpdate","outputs":[{"internalType":"string","name":"","type":"string"}],"stateMutability":"view","type":"function"}],"evm":{"bytecode":{"linkReferences":{},"object":"610bb761003a600b82828239805160001a60731461002d57634e487b7160e01b600052600060045260246000fd5b30600052607381538281f3fe730000000000000000000000000000000000000000301460806040526004361061007c5760003560e01c8063b2fea0651161005a578063b2fea065146100d0578063e11b9073146100e3578063f0867072146100f657600080fd5b806312497a51146100815780632733c125146100aa57806370d9dded146100bd575b600080fd5b61009461008f3660046104fc565b610109565b6040516100a191906105b2565b60405180910390f35b6100946100b8366004610603565b610184565b6100946100cb3660046104fc565b6101c2565b6100946100de3660046104fc565b610201565b6100946100f1366004610648565b610226565b6100946101043660046106ac565b610245565b606060006101178686610184565b6040805160208101909152600081528451919250901561015457836040516020016101429190610719565b60405160208183030381529060405290505b8185826040516020016101699392919061075e565b60405160208183030381529060405292505050949350505050565b60608261019046610281565b61019984610281565b6040516020016101ab939291906107f6565b604051602081830303815290604052905092915050565b606060006101d08686610184565b90508084846040516020016101e79392919061086c565b604051602081830303815290604052915050949350505050565b6060600061020f8686610184565b90508084846040516020016101e793929190610956565b60608261023246610281565b836040516020016101ab93929190610a16565b606060006102538585610184565b90508083604051602001610268929190610b00565b6040516020818303038152906040529150509392505050565b6060600061028e8361033f565b600101905060008167ffffffffffffffff8111156102ae576102ae610422565b6040519080825280601f01601f1916602001820160405280156102d8576020820181803683370190505b5090508181016020015b7fffffffffffffffffffffffffffffffffffffffffffffffffffffffffffffffff017f3031323334353637383961626364656600000000000000000000000000000000600a86061a8153600a85049450846102e257509392505050565b6000807a184f03e93ff9f4daa797ed6e38ed64bf6a1f0100000000000000008310610388577a184f03e93ff9f4daa797ed6e38ed64bf6a1f010000000000000000830492506040015b6d04ee2d6d415b85acef810000000083106103b4576d04ee2d6d415b85acef8100000000830492506020015b662386f26fc1000083106103d257662386f26fc10000830492506010015b6305f5e10083106103ea576305f5e100830492506008015b61271083106103fe57612710830492506004015b60648310610410576064830492506002015b600a831061041c576001015b92915050565b7f4e487b7100000000000000000000000000000000000000000000000000000000600052604160045260246000fd5b600082601f83011261046257600080fd5b813567ffffffffffffffff8082111561047d5761047d610422565b604051601f83017fffffffffffffffffffffffffffffffffffffffffffffffffffffffffffffffe0908116603f011681019082821181831017156104c3576104c3610422565b816040528381528660208588010111156104dc57600080fd5b836020870160208301376000602085830101528094505050505092915050565b6000806000806080858703121561051257600080fd5b843567ffffffffffffffff8082111561052a57600080fd5b61053688838901610451565b955060208701359450604087013591508082111561055357600080fd5b61055f88838901610451565b9350606087013591508082111561057557600080fd5b5061058287828801610451565b91505092959194509250565b60005b838110156105a9578181015183820152602001610591565b50506000910152565b60208152600082518060208401526105d181604085016020870161058e565b601f017fffffffffffffffffffffffffffffffffffffffffffffffffffffffffffffffe0169190910160400192915050565b6000806040838503121561061657600080fd5b823567ffffffffffffffff81111561062d57600080fd5b61063985828601610451565b95602094909401359450505050565b6000806040838503121561065b57600080fd5b823567ffffffffffffffff8082111561067357600080fd5b61067f86838701610451565b9350602085013591508082111561069557600080fd5b506106a285828601610451565b9150509250929050565b6000806000606084860312156106c157600080fd5b833567ffffffffffffffff808211156106d957600080fd5b6106e587838801610451565b945060208601359350604086013591508082111561070257600080fd5b5061070f86828701610451565b9150509250925092565b7f205748455245200000000000000000000000000000000000000000000000000081526000825161075181600785016020870161058e565b9190910160070192915050565b7f555044415445200000000000000000000000000000000000000000000000000081526000845161079681600785016020890161058e565b7f205345542000000000000000000000000000000000000000000000000000000060079184019182015284516107d381600c84016020890161058e565b84519101906107e981600c84016020880161058e565b01600c0195945050505050565b6000845161080881846020890161058e565b80830190507f5f000000000000000000000000000000000000000000000000000000000000008082528551610844816001850160208a0161058e565b6001920191820152835161085f81600284016020880161058e565b0160020195945050505050565b7f494e5345525420494e544f2000000000000000000000000000000000000000008152600084516108a481600c85016020890161058e565b7f2028000000000000000000000000000000000000000000000000000000000000600c9184019182015284516108e181600e84016020890161058e565b7f292056414c554553202800000000000000000000000000000000000000000000600e9290910191820152835161091f81601884016020880161058e565b7f29000000000000000000000000000000000000000000000000000000000000006018929091019182015260190195945050505050565b7f494e5345525420494e544f20000000000000000000000000000000000000000081526000845161098e81600c85016020890161058e565b7f2028000000000000000000000000000000000000000000000000000000000000600c9184019182015284516109cb81600e84016020890161058e565b7f292056414c554553200000000000000000000000000000000000000000000000600e92909101918201528351610a0981601784016020880161058e565b0160170195945050505050565b7f435245415445205441424c452000000000000000000000000000000000000000815260008451610a4e81600d85016020890161058e565b7f5f00000000000000000000000000000000000000000000000000000000000000600d918401918201528451610a8b81600e84016020890161058e565b7f2028000000000000000000000000000000000000000000000000000000000000600e92909101918201528351610ac981601084016020880161058e565b7f29000000000000000000000000000000000000000000000000000000000000006010929091019182015260110195945050505050565b7f44454c4554452046524f4d200000000000000000000000000000000000000000815260008351610b3881600c85016020880161058e565b7f2057484552452000000000000000000000000000000000000000000000000000600c918401918201528351610b7581601384016020880161058e565b0160130194935050505056fea2646970667358221220f31f27f8600b247d63fe0617c9e8ad65808575877c2e3cee39c1c0c9d23dbc6964736f6c63430008110033","opcodes":"PUSH2 0xBB7 PUSH2 0x3A PUSH1 0xB DUP3 DUP3 DUP3 CODECOPY DUP1 MLOAD PUSH1 0x0 BYTE PUSH1 0x73 EQ PUSH2 0x2D JUMPI PUSH4 0x4E487B71 PUSH1 0xE0 SHL PUSH1 0x0 MSTORE PUSH1 0x0 PUSH1 0x4 MSTORE PUSH1 0x24 PUSH1 0x0 REVERT JUMPDEST ADDRESS PUSH1 0x0 MSTORE PUSH1 0x73 DUP2 MSTORE8 DUP3 DUP2 RETURN INVALID PUSH20 0x0 ADDRESS EQ PUSH1 0x80 PUSH1 0x40 MSTORE PUSH1 0x4 CALLDATASIZE LT PUSH2 0x7C JUMPI PUSH1 0x0 CALLDATALOAD PUSH1 0xE0 SHR DUP1 PUSH4 0xB2FEA065 GT PUSH2 0x5A JUMPI DUP1 PUSH4 0xB2FEA065 EQ PUSH2 0xD0 JUMPI DUP1 PUSH4 0xE11B9073 EQ PUSH2 0xE3 JUMPI DUP1 PUSH4 0xF0867072 EQ PUSH2 0xF6 JUMPI PUSH1 0x0 DUP1 REVERT JUMPDEST DUP1 PUSH4 0x12497A51 EQ PUSH2 0x81 JUMPI DUP1 PUSH4 0x2733C125 EQ PUSH2 0xAA JUMPI DUP1 PUSH4 0x70D9DDED EQ PUSH2 0xBD JUMPI JUMPDEST PUSH1 0x0 DUP1 REVERT JUMPDEST PUSH2 0x94 PUSH2 0x8F CALLDATASIZE PUSH1 0x4 PUSH2 0x4FC JUMP JUMPDEST PUSH2 0x109 JUMP JUMPDEST PUSH1 0x40 MLOAD PUSH2 0xA1 SWAP2 SWAP1 PUSH2 0x5B2 JUMP JUMPDEST PUSH1 0x40 MLOAD DUP1 SWAP2 SUB SWAP1 RETURN JUMPDEST PUSH2 0x94 PUSH2 0xB8 CALLDATASIZE PUSH1 0x4 PUSH2 0x603 JUMP JUMPDEST PUSH2 0x184 JUMP JUMPDEST PUSH2 0x94 PUSH2 0xCB CALLDATASIZE PUSH1 0x4 PUSH2 0x4FC JUMP JUMPDEST PUSH2 0x1C2 JUMP JUMPDEST PUSH2 0x94 PUSH2 0xDE CALLDATASIZE PUSH1 0x4 PUSH2 0x4FC JUMP JUMPDEST PUSH2 0x201 JUMP JUMPDEST PUSH2 0x94 PUSH2 0xF1 CALLDATASIZE PUSH1 0x4 PUSH2 0x648 JUMP JUMPDEST PUSH2 0x226 JUMP JUMPDEST PUSH2 0x94 PUSH2 0x104 CALLDATASIZE PUSH1 0x4 PUSH2 0x6AC JUMP JUMPDEST PUSH2 0x245 JUMP JUMPDEST PUSH1 0x60 PUSH1 0x0 PUSH2 0x117 DUP7 DUP7 PUSH2 0x184 JUMP JUMPDEST PUSH1 0x40 DUP1 MLOAD PUSH1 0x20 DUP2 ADD SWAP1 SWAP2 MSTORE PUSH1 0x0 DUP2 MSTORE DUP5 MLOAD SWAP2 SWAP3 POP SWAP1 ISZERO PUSH2 0x154 JUMPI DUP4 PUSH1 0x40 MLOAD PUSH1 0x20 ADD PUSH2 0x142 SWAP2 SWAP1 PUSH2 0x719 JUMP JUMPDEST PUSH1 0x40 MLOAD PUSH1 0x20 DUP2 DUP4 SUB SUB DUP2 MSTORE SWAP1 PUSH1 0x40 MSTORE SWAP1 POP JUMPDEST DUP2 DUP6 DUP3 PUSH1 0x40 MLOAD PUSH1 0x20 ADD PUSH2 0x169 SWAP4 SWAP3 SWAP2 SWAP1 PUSH2 0x75E JUMP JUMPDEST PUSH1 0x40 MLOAD PUSH1 0x20 DUP2 DUP4 SUB SUB DUP2 MSTORE SWAP1 PUSH1 0x40 MSTORE SWAP3 POP POP POP SWAP5 SWAP4 POP POP POP POP JUMP JUMPDEST PUSH1 0x60 DUP3 PUSH2 0x190 CHAINID PUSH2 0x281 JUMP JUMPDEST PUSH2 0x199 DUP5 PUSH2 0x281 JUMP JUMPDEST PUSH1 0x40 MLOAD PUSH1 0x20 ADD PUSH2 0x1AB SWAP4 SWAP3 SWAP2 SWAP1 PUSH2 0x7F6 JUMP JUMPDEST PUSH1 0x40 MLOAD PUSH1 0x20 DUP2 DUP4 SUB SUB DUP2 MSTORE SWAP1 PUSH1 0x40 MSTORE SWAP1 POP SWAP3 SWAP2 POP POP JUMP JUMPDEST PUSH1 0x60 PUSH1 0x0 PUSH2 0x1D0 DUP7 DUP7 PUSH2 0x184 JUMP JUMPDEST SWAP1 POP DUP1 DUP5 DUP5 PUSH1 0x40 MLOAD PUSH1 0x20 ADD PUSH2 0x1E7 SWAP4 SWAP3 SWAP2 SWAP1 PUSH2 0x86C JUMP JUMPDEST PUSH1 0x40 MLOAD PUSH1 0x20 DUP2 DUP4 SUB SUB DUP2 MSTORE SWAP1 PUSH1 0x40 MSTORE SWAP2 POP POP SWAP5 SWAP4 POP POP POP POP JUMP JUMPDEST PUSH1 0x60 PUSH1 0x0 PUSH2 0x20F DUP7 DUP7 PUSH2 0x184 JUMP JUMPDEST SWAP1 POP DUP1 DUP5 DUP5 PUSH1 0x40 MLOAD PUSH1 0x20 ADD PUSH2 0x1E7 SWAP4 SWAP3 SWAP2 SWAP1 PUSH2 0x956 JUMP JUMPDEST PUSH1 0x60 DUP3 PUSH2 0x232 CHAINID PUSH2 0x281 JUMP JUMPDEST DUP4 PUSH1 0x40 MLOAD PUSH1 0x20 ADD PUSH2 0x1AB SWAP4 SWAP3 SWAP2 SWAP1 PUSH2 0xA16 JUMP JUMPDEST PUSH1 0x60 PUSH1 0x0 PUSH2 0x253 DUP6 DUP6 PUSH2 0x184 JUMP JUMPDEST SWAP1 POP DUP1 DUP4 PUSH1 0x40 MLOAD PUSH1 0x20 ADD PUSH2 0x268 SWAP3 SWAP2 SWAP1 PUSH2 0xB00 JUMP JUMPDEST PUSH1 0x40 MLOAD PUSH1 0x20 DUP2 DUP4 SUB SUB DUP2 MSTORE SWAP1 PUSH1 0x40 MSTORE SWAP2 POP POP SWAP4 SWAP3 POP POP POP JUMP JUMPDEST PUSH1 0x60 PUSH1 0x0 PUSH2 0x28E DUP4 PUSH2 0x33F JUMP JUMPDEST PUSH1 0x1 ADD SWAP1 POP PUSH1 0x0 DUP2 PUSH8 0xFFFFFFFFFFFFFFFF DUP2 GT ISZERO PUSH2 0x2AE JUMPI PUSH2 0x2AE PUSH2 0x422 JUMP JUMPDEST PUSH1 0x40 MLOAD SWAP1 DUP1 DUP3 MSTORE DUP1 PUSH1 0x1F ADD PUSH1 0x1F NOT AND PUSH1 0x20 ADD DUP3 ADD PUSH1 0x40 MSTORE DUP1 ISZERO PUSH2 0x2D8 JUMPI PUSH1 0x20 DUP3 ADD DUP2 DUP1 CALLDATASIZE DUP4 CALLDATACOPY ADD SWAP1 POP JUMPDEST POP SWAP1 POP DUP2 DUP2 ADD PUSH1 0x20 ADD JUMPDEST PUSH32 0xFFFFFFFFFFFFFFFFFFFFFFFFFFFFFFFFFFFFFFFFFFFFFFFFFFFFFFFFFFFFFFFF ADD PUSH32 0x3031323334353637383961626364656600000000000000000000000000000000 PUSH1 0xA DUP7 MOD BYTE DUP2 MSTORE8 PUSH1 0xA DUP6 DIV SWAP5 POP DUP5 PUSH2 0x2E2 JUMPI POP SWAP4 SWAP3 POP POP POP JUMP JUMPDEST PUSH1 0x0 DUP1 PUSH27 0x184F03E93FF9F4DAA797ED6E38ED64BF6A1F010000000000000000 DUP4 LT PUSH2 0x388 JUMPI PUSH27 0x184F03E93FF9F4DAA797ED6E38ED64BF6A1F010000000000000000 DUP4 DIV SWAP3 POP PUSH1 0x40 ADD JUMPDEST PUSH14 0x4EE2D6D415B85ACEF8100000000 DUP4 LT PUSH2 0x3B4 JUMPI PUSH14 0x4EE2D6D415B85ACEF8100000000 DUP4 DIV SWAP3 POP PUSH1 0x20 ADD JUMPDEST PUSH7 0x2386F26FC10000 DUP4 LT PUSH2 0x3D2 JUMPI PUSH7 0x2386F26FC10000 DUP4 DIV SWAP3 POP PUSH1 0x10 ADD JUMPDEST PUSH4 0x5F5E100 DUP4 LT PUSH2 0x3EA JUMPI PUSH4 0x5F5E100 DUP4 DIV SWAP3 POP PUSH1 0x8 ADD JUMPDEST PUSH2 0x2710 DUP4 LT PUSH2 0x3FE JUMPI PUSH2 0x2710 DUP4 DIV SWAP3 POP PUSH1 0x4 ADD JUMPDEST PUSH1 0x64 DUP4 LT PUSH2 0x410 JUMPI PUSH1 0x64 DUP4 DIV SWAP3 POP PUSH1 0x2 ADD JUMPDEST PUSH1 0xA DUP4 LT PUSH2 0x41C JUMPI PUSH1 0x1 ADD JUMPDEST SWAP3 SWAP2 POP POP JUMP JUMPDEST PUSH32 0x4E487B7100000000000000000000000000000000000000000000000000000000 PUSH1 0x0 MSTORE PUSH1 0x41 PUSH1 0x4 MSTORE PUSH1 0x24 PUSH1 0x0 REVERT JUMPDEST PUSH1 0x0 DUP3 PUSH1 0x1F DUP4 ADD SLT PUSH2 0x462 JUMPI PUSH1 0x0 DUP1 REVERT JUMPDEST DUP2 CALLDATALOAD PUSH8 0xFFFFFFFFFFFFFFFF DUP1 DUP3 GT ISZERO PUSH2 0x47D JUMPI PUSH2 0x47D PUSH2 0x422 JUMP JUMPDEST PUSH1 0x40 MLOAD PUSH1 0x1F DUP4 ADD PUSH32 0xFFFFFFFFFFFFFFFFFFFFFFFFFFFFFFFFFFFFFFFFFFFFFFFFFFFFFFFFFFFFFFE0 SWAP1 DUP2 AND PUSH1 0x3F ADD AND DUP2 ADD SWAP1 DUP3 DUP3 GT DUP2 DUP4 LT OR ISZERO PUSH2 0x4C3 JUMPI PUSH2 0x4C3 PUSH2 0x422 JUMP JUMPDEST DUP2 PUSH1 0x40 MSTORE DUP4 DUP2 MSTORE DUP7 PUSH1 0x20 DUP6 DUP9 ADD ADD GT ISZERO PUSH2 0x4DC JUMPI PUSH1 0x0 DUP1 REVERT JUMPDEST DUP4 PUSH1 0x20 DUP8 ADD PUSH1 0x20 DUP4 ADD CALLDATACOPY PUSH1 0x0 PUSH1 0x20 DUP6 DUP4 ADD ADD MSTORE DUP1 SWAP5 POP POP POP POP POP SWAP3 SWAP2 POP POP JUMP JUMPDEST PUSH1 0x0 DUP1 PUSH1 0x0 DUP1 PUSH1 0x80 DUP6 DUP8 SUB SLT ISZERO PUSH2 0x512 JUMPI PUSH1 0x0 DUP1 REVERT JUMPDEST DUP5 CALLDATALOAD PUSH8 0xFFFFFFFFFFFFFFFF DUP1 DUP3 GT ISZERO PUSH2 0x52A JUMPI PUSH1 0x0 DUP1 REVERT JUMPDEST PUSH2 0x536 DUP9 DUP4 DUP10 ADD PUSH2 0x451 JUMP JUMPDEST SWAP6 POP PUSH1 0x20 DUP8 ADD CALLDATALOAD SWAP5 POP PUSH1 0x40 DUP8 ADD CALLDATALOAD SWAP2 POP DUP1 DUP3 GT ISZERO PUSH2 0x553 JUMPI PUSH1 0x0 DUP1 REVERT JUMPDEST PUSH2 0x55F DUP9 DUP4 DUP10 ADD PUSH2 0x451 JUMP JUMPDEST SWAP4 POP PUSH1 0x60 DUP8 ADD CALLDATALOAD SWAP2 POP DUP1 DUP3 GT ISZERO PUSH2 0x575 JUMPI PUSH1 0x0 DUP1 REVERT JUMPDEST POP PUSH2 0x582 DUP8 DUP3 DUP9 ADD PUSH2 0x451 JUMP JUMPDEST SWAP2 POP POP SWAP3 SWAP6 SWAP2 SWAP5 POP SWAP3 POP JUMP JUMPDEST PUSH1 0x0 JUMPDEST DUP4 DUP2 LT ISZERO PUSH2 0x5A9 JUMPI DUP2 DUP2 ADD MLOAD DUP4 DUP3 ADD MSTORE PUSH1 0x20 ADD PUSH2 0x591 JUMP JUMPDEST POP POP PUSH1 0x0 SWAP2 ADD MSTORE JUMP JUMPDEST PUSH1 0x20 DUP2 MSTORE PUSH1 0x0 DUP3 MLOAD DUP1 PUSH1 0x20 DUP5 ADD MSTORE PUSH2 0x5D1 DUP2 PUSH1 0x40 DUP6 ADD PUSH1 0x20 DUP8 ADD PUSH2 0x58E JUMP JUMPDEST PUSH1 0x1F ADD PUSH32 0xFFFFFFFFFFFFFFFFFFFFFFFFFFFFFFFFFFFFFFFFFFFFFFFFFFFFFFFFFFFFFFE0 AND SWAP2 SWAP1 SWAP2 ADD PUSH1 0x40 ADD SWAP3 SWAP2 POP POP JUMP JUMPDEST PUSH1 0x0 DUP1 PUSH1 0x40 DUP4 DUP6 SUB SLT ISZERO PUSH2 0x616 JUMPI PUSH1 0x0 DUP1 REVERT JUMPDEST DUP3 CALLDATALOAD PUSH8 0xFFFFFFFFFFFFFFFF DUP2 GT ISZERO PUSH2 0x62D JUMPI PUSH1 0x0 DUP1 REVERT JUMPDEST PUSH2 0x639 DUP6 DUP3 DUP7 ADD PUSH2 0x451 JUMP JUMPDEST SWAP6 PUSH1 0x20 SWAP5 SWAP1 SWAP5 ADD CALLDATALOAD SWAP5 POP POP POP POP JUMP JUMPDEST PUSH1 0x0 DUP1 PUSH1 0x40 DUP4 DUP6 SUB SLT ISZERO PUSH2 0x65B JUMPI PUSH1 0x0 DUP1 REVERT JUMPDEST DUP3 CALLDATALOAD PUSH8 0xFFFFFFFFFFFFFFFF DUP1 DUP3 GT ISZERO PUSH2 0x673 JUMPI PUSH1 0x0 DUP1 REVERT JUMPDEST PUSH2 0x67F DUP7 DUP4 DUP8 ADD PUSH2 0x451 JUMP JUMPDEST SWAP4 POP PUSH1 0x20 DUP6 ADD CALLDATALOAD SWAP2 POP DUP1 DUP3 GT ISZERO PUSH2 0x695 JUMPI PUSH1 0x0 DUP1 REVERT JUMPDEST POP PUSH2 0x6A2 DUP6 DUP3 DUP7 ADD PUSH2 0x451 JUMP JUMPDEST SWAP2 POP POP SWAP3 POP SWAP3 SWAP1 POP JUMP JUMPDEST PUSH1 0x0 DUP1 PUSH1 0x0 PUSH1 0x60 DUP5 DUP7 SUB SLT ISZERO PUSH2 0x6C1 JUMPI PUSH1 0x0 DUP1 REVERT JUMPDEST DUP4 CALLDATALOAD PUSH8 0xFFFFFFFFFFFFFFFF DUP1 DUP3 GT ISZERO PUSH2 0x6D9 JUMPI PUSH1 0x0 DUP1 REVERT JUMPDEST PUSH2 0x6E5 DUP8 DUP4 DUP9 ADD PUSH2 0x451 JUMP JUMPDEST SWAP5 POP PUSH1 0x20 DUP7 ADD CALLDATALOAD SWAP4 POP PUSH1 0x40 DUP7 ADD CALLDATALOAD SWAP2 POP DUP1 DUP3 GT ISZERO PUSH2 0x702 JUMPI PUSH1 0x0 DUP1 REVERT JUMPDEST POP PUSH2 0x70F DUP7 DUP3 DUP8 ADD PUSH2 0x451 JUMP JUMPDEST SWAP2 POP POP SWAP3 POP SWAP3 POP SWAP3 JUMP JUMPDEST PUSH32 0x2057484552452000000000000000000000000000000000000000000000000000 DUP2 MSTORE PUSH1 0x0 DUP3 MLOAD PUSH2 0x751 DUP2 PUSH1 0x7 DUP6 ADD PUSH1 0x20 DUP8 ADD PUSH2 0x58E JUMP JUMPDEST SWAP2 SWAP1 SWAP2 ADD PUSH1 0x7 ADD SWAP3 SWAP2 POP POP JUMP JUMPDEST PUSH32 0x5550444154452000000000000000000000000000000000000000000000000000 DUP2 MSTORE PUSH1 0x0 DUP5 MLOAD PUSH2 0x796 DUP2 PUSH1 0x7 DUP6 ADD PUSH1 0x20 DUP10 ADD PUSH2 0x58E JUMP JUMPDEST PUSH32 0x2053455420000000000000000000000000000000000000000000000000000000 PUSH1 0x7 SWAP2 DUP5 ADD SWAP2 DUP3 ADD MSTORE DUP5 MLOAD PUSH2 0x7D3 DUP2 PUSH1 0xC DUP5 ADD PUSH1 0x20 DUP10 ADD PUSH2 0x58E JUMP JUMPDEST DUP5 MLOAD SWAP2 ADD SWAP1 PUSH2 0x7E9 DUP2 PUSH1 0xC DUP5 ADD PUSH1 0x20 DUP9 ADD PUSH2 0x58E JUMP JUMPDEST ADD PUSH1 0xC ADD SWAP6 SWAP5 POP POP POP POP POP JUMP JUMPDEST PUSH1 0x0 DUP5 MLOAD PUSH2 0x808 DUP2 DUP5 PUSH1 0x20 DUP10 ADD PUSH2 0x58E JUMP JUMPDEST DUP1 DUP4 ADD SWAP1 POP PUSH32 0x5F00000000000000000000000000000000000000000000000000000000000000 DUP1 DUP3 MSTORE DUP6 MLOAD PUSH2 0x844 DUP2 PUSH1 0x1 DUP6 ADD PUSH1 0x20 DUP11 ADD PUSH2 0x58E JUMP JUMPDEST PUSH1 0x1 SWAP3 ADD SWAP2 DUP3 ADD MSTORE DUP4 MLOAD PUSH2 0x85F DUP2 PUSH1 0x2 DUP5 ADD PUSH1 0x20 DUP9 ADD PUSH2 0x58E JUMP JUMPDEST ADD PUSH1 0x2 ADD SWAP6 SWAP5 POP POP POP POP POP JUMP JUMPDEST PUSH32 0x494E5345525420494E544F200000000000000000000000000000000000000000 DUP2 MSTORE PUSH1 0x0 DUP5 MLOAD PUSH2 0x8A4 DUP2 PUSH1 0xC DUP6 ADD PUSH1 0x20 DUP10 ADD PUSH2 0x58E JUMP JUMPDEST PUSH32 0x2028000000000000000000000000000000000000000000000000000000000000 PUSH1 0xC SWAP2 DUP5 ADD SWAP2 DUP3 ADD MSTORE DUP5 MLOAD PUSH2 0x8E1 DUP2 PUSH1 0xE DUP5 ADD PUSH1 0x20 DUP10 ADD PUSH2 0x58E JUMP JUMPDEST PUSH32 0x292056414C554553202800000000000000000000000000000000000000000000 PUSH1 0xE SWAP3 SWAP1 SWAP2 ADD SWAP2 DUP3 ADD MSTORE DUP4 MLOAD PUSH2 0x91F DUP2 PUSH1 0x18 DUP5 ADD PUSH1 0x20 DUP9 ADD PUSH2 0x58E JUMP JUMPDEST PUSH32 0x2900000000000000000000000000000000000000000000000000000000000000 PUSH1 0x18 SWAP3 SWAP1 SWAP2 ADD SWAP2 DUP3 ADD MSTORE PUSH1 0x19 ADD SWAP6 SWAP5 POP POP POP POP POP JUMP JUMPDEST PUSH32 0x494E5345525420494E544F200000000000000000000000000000000000000000 DUP2 MSTORE PUSH1 0x0 DUP5 MLOAD PUSH2 0x98E DUP2 PUSH1 0xC DUP6 ADD PUSH1 0x20 DUP10 ADD PUSH2 0x58E JUMP JUMPDEST PUSH32 0x2028000000000000000000000000000000000000000000000000000000000000 PUSH1 0xC SWAP2 DUP5 ADD SWAP2 DUP3 ADD MSTORE DUP5 MLOAD PUSH2 0x9CB DUP2 PUSH1 0xE DUP5 ADD PUSH1 0x20 DUP10 ADD PUSH2 0x58E JUMP JUMPDEST PUSH32 0x292056414C554553200000000000000000000000000000000000000000000000 PUSH1 0xE SWAP3 SWAP1 SWAP2 ADD SWAP2 DUP3 ADD MSTORE DUP4 MLOAD PUSH2 0xA09 DUP2 PUSH1 0x17 DUP5 ADD PUSH1 0x20 DUP9 ADD PUSH2 0x58E JUMP JUMPDEST ADD PUSH1 0x17 ADD SWAP6 SWAP5 POP POP POP POP POP JUMP JUMPDEST PUSH32 0x435245415445205441424C452000000000000000000000000000000000000000 DUP2 MSTORE PUSH1 0x0 DUP5 MLOAD PUSH2 0xA4E DUP2 PUSH1 0xD DUP6 ADD PUSH1 0x20 DUP10 ADD PUSH2 0x58E JUMP JUMPDEST PUSH32 0x5F00000000000000000000000000000000000000000000000000000000000000 PUSH1 0xD SWAP2 DUP5 ADD SWAP2 DUP3 ADD MSTORE DUP5 MLOAD PUSH2 0xA8B DUP2 PUSH1 0xE DUP5 ADD PUSH1 0x20 DUP10 ADD PUSH2 0x58E JUMP JUMPDEST PUSH32 0x2028000000000000000000000000000000000000000000000000000000000000 PUSH1 0xE SWAP3 SWAP1 SWAP2 ADD SWAP2 DUP3 ADD MSTORE DUP4 MLOAD PUSH2 0xAC9 DUP2 PUSH1 0x10 DUP5 ADD PUSH1 0x20 DUP9 ADD PUSH2 0x58E JUMP JUMPDEST PUSH32 0x2900000000000000000000000000000000000000000000000000000000000000 PUSH1 0x10 SWAP3 SWAP1 SWAP2 ADD SWAP2 DUP3 ADD MSTORE PUSH1 0x11 ADD SWAP6 SWAP5 POP POP POP POP POP JUMP JUMPDEST PUSH32 0x44454C4554452046524F4D200000000000000000000000000000000000000000 DUP2 MSTORE PUSH1 0x0 DUP4 MLOAD PUSH2 0xB38 DUP2 PUSH1 0xC DUP6 ADD PUSH1 0x20 DUP9 ADD PUSH2 0x58E JUMP JUMPDEST PUSH32 0x2057484552452000000000000000000000000000000000000000000000000000 PUSH1 0xC SWAP2 DUP5 ADD SWAP2 DUP3 ADD MSTORE DUP4 MLOAD PUSH2 0xB75 DUP2 PUSH1 0x13 DUP5 ADD PUSH1 0x20 DUP9 ADD PUSH2 0x58E JUMP JUMPDEST ADD PUSH1 0x13 ADD SWAP5 SWAP4 POP POP POP POP JUMP INVALID LOG2 PUSH5 0x6970667358 0x22 SLT KECCAK256 RETURN 0x1F 0x27 0xF8 PUSH1 0xB 0x24 PUSH30 0x63FE0617C9E8AD65808575877C2E3CEE39C1C0C9D23DBC6964736F6C6343 STOP ADDMOD GT STOP CALLER "},"methodIdentifiers":{"toCreateFromSchema(string,string)":"e11b9073","toDelete(string,uint256,string)":"f0867072","toInsert(string,uint256,string,string)":"70d9dded","toInsertMultipleRows(string,uint256,string,string)":"b2fea065","toNameFromId(string,uint256)":"2733c125","toUpdate(string,uint256,string,string)":"12497a51"}},"storageLayout":{"storage":[],"types":null}}}}