{
  "_format": "hh-sol-artifact-1",
  "contractName": "SQLHelpers",
  "sourceName": "contracts/SQLHelpers.sol",
  "abi": [
    {
      "inputs": [
        {
          "internalType": "string",
          "name": "prefix",
          "type": "string"
        },
        {
          "internalType": "string",
          "name": "schema",
          "type": "string"
        }
      ],
      "name": "toCreateFromSchema",
      "outputs": [
        {
          "internalType": "string",
          "name": "",
          "type": "string"
        }
      ],
      "stateMutability": "view",
      "type": "function"
    },
    {
      "inputs": [
        {
          "internalType": "string",
          "name": "prefix",
          "type": "string"
        },
        {
          "internalType": "uint256",
          "name": "tableId",
          "type": "uint256"
        },
        {
          "internalType": "string",
          "name": "filters",
          "type": "string"
        }
      ],
      "name": "toDelete",
      "outputs": [
        {
          "internalType": "string",
          "name": "",
          "type": "string"
        }
      ],
      "stateMutability": "view",
      "type": "function"
    },
    {
      "inputs": [
        {
          "internalType": "string",
          "name": "prefix",
          "type": "string"
        },
        {
          "internalType": "uint256",
          "name": "tableId",
          "type": "uint256"
        },
        {
          "internalType": "string",
          "name": "columns",
          "type": "string"
        },
        {
          "internalType": "string",
          "name": "values",
          "type": "string"
        }
      ],
      "name": "toInsert",
      "outputs": [
        {
          "internalType": "string",
          "name": "",
          "type": "string"
        }
      ],
      "stateMutability": "view",
      "type": "function"
    },
    {
      "inputs": [
        {
          "internalType": "string",
          "name": "prefix",
          "type": "string"
        },
        {
          "internalType": "uint256",
          "name": "tableId",
          "type": "uint256"
        },
        {
          "internalType": "string",
          "name": "columns",
          "type": "string"
        },
        {
          "internalType": "string",
          "name": "values",
          "type": "string"
        }
      ],
      "name": "toInsertMultipleRows",
      "outputs": [
        {
          "internalType": "string",
          "name": "",
          "type": "string"
        }
      ],
      "stateMutability": "view",
      "type": "function"
    },
    {
      "inputs": [
        {
          "internalType": "string",
          "name": "prefix",
          "type": "string"
        },
        {
          "internalType": "uint256",
          "name": "tableId",
          "type": "uint256"
        }
      ],
      "name": "toNameFromId",
      "outputs": [
        {
          "internalType": "string",
          "name": "",
          "type": "string"
        }
      ],
      "stateMutability": "view",
      "type": "function"
    },
    {
      "inputs": [
        {
          "internalType": "string",
          "name": "prefix",
          "type": "string"
        },
        {
          "internalType": "uint256",
          "name": "tableId",
          "type": "uint256"
        },
        {
          "internalType": "string",
          "name": "setters",
          "type": "string"
        },
        {
          "internalType": "string",
          "name": "filters",
          "type": "string"
        }
      ],
      "name": "toUpdate",
      "outputs": [
        {
          "internalType": "string",
          "name": "",
          "type": "string"
        }
      ],
      "stateMutability": "view",
      "type": "function"
    }
  ],
  "bytecode": "0x610bb761003a600b82828239805160001a60731461002d57634e487b7160e01b600052600060045260246000fd5b30600052607381538281f3fe730000000000000000000000000000000000000000301460806040526004361061007c5760003560e01c8063b2fea0651161005a578063b2fea065146100d0578063e11b9073146100e3578063f0867072146100f657600080fd5b806312497a51146100815780632733c125146100aa57806370d9dded146100bd575b600080fd5b61009461008f3660046104fc565b610109565b6040516100a191906105b2565b60405180910390f35b6100946100b8366004610603565b610184565b6100946100cb3660046104fc565b6101c2565b6100946100de3660046104fc565b610201565b6100946100f1366004610648565b610226565b6100946101043660046106ac565b610245565b606060006101178686610184565b6040805160208101909152600081528451919250901561015457836040516020016101429190610719565b60405160208183030381529060405290505b8185826040516020016101699392919061075e565b60405160208183030381529060405292505050949350505050565b60608261019046610281565b61019984610281565b6040516020016101ab939291906107f6565b604051602081830303815290604052905092915050565b606060006101d08686610184565b90508084846040516020016101e79392919061086c565b604051602081830303815290604052915050949350505050565b6060600061020f8686610184565b90508084846040516020016101e793929190610956565b60608261023246610281565b836040516020016101ab93929190610a16565b606060006102538585610184565b90508083604051602001610268929190610b00565b6040516020818303038152906040529150509392505050565b6060600061028e8361033f565b600101905060008167ffffffffffffffff8111156102ae576102ae610422565b6040519080825280601f01601f1916602001820160405280156102d8576020820181803683370190505b5090508181016020015b7fffffffffffffffffffffffffffffffffffffffffffffffffffffffffffffffff017f3031323334353637383961626364656600000000000000000000000000000000600a86061a8153600a85049450846102e257509392505050565b6000807a184f03e93ff9f4daa797ed6e38ed64bf6a1f0100000000000000008310610388577a184f03e93ff9f4daa797ed6e38ed64bf6a1f010000000000000000830492506040015b6d04ee2d6d415b85acef810000000083106103b4576d04ee2d6d415b85acef8100000000830492506020015b662386f26fc1000083106103d257662386f26fc10000830492506010015b6305f5e10083106103ea576305f5e100830492506008015b61271083106103fe57612710830492506004015b60648310610410576064830492506002015b600a831061041c576001015b92915050565b7f4e487b7100000000000000000000000000000000000000000000000000000000600052604160045260246000fd5b600082601f83011261046257600080fd5b813567ffffffffffffffff8082111561047d5761047d610422565b604051601f83017fffffffffffffffffffffffffffffffffffffffffffffffffffffffffffffffe0908116603f011681019082821181831017156104c3576104c3610422565b816040528381528660208588010111156104dc57600080fd5b836020870160208301376000602085830101528094505050505092915050565b6000806000806080858703121561051257600080fd5b843567ffffffffffffffff8082111561052a57600080fd5b61053688838901610451565b955060208701359450604087013591508082111561055357600080fd5b61055f88838901610451565b9350606087013591508082111561057557600080fd5b5061058287828801610451565b91505092959194509250565b60005b838110156105a9578181015183820152602001610591565b50506000910152565b60208152600082518060208401526105d181604085016020870161058e565b601f017fffffffffffffffffffffffffffffffffffffffffffffffffffffffffffffffe0169190910160400192915050565b6000806040838503121561061657600080fd5b823567ffffffffffffffff81111561062d57600080fd5b61063985828601610451565b95602094909401359450505050565b6000806040838503121561065b57600080fd5b823567ffffffffffffffff8082111561067357600080fd5b61067f86838701610451565b9350602085013591508082111561069557600080fd5b506106a285828601610451565b9150509250929050565b6000806000606084860312156106c157600080fd5b833567ffffffffffffffff808211156106d957600080fd5b6106e587838801610451565b945060208601359350604086013591508082111561070257600080fd5b5061070f86828701610451565b9150509250925092565b7f205748455245200000000000000000000000000000000000000000000000000081526000825161075181600785016020870161058e565b9190910160070192915050565b7f555044415445200000000000000000000000000000000000000000000000000081526000845161079681600785016020890161058e565b7f205345542000000000000000000000000000000000000000000000000000000060079184019182015284516107d381600c84016020890161058e565b84519101906107e981600c84016020880161058e565b01600c0195945050505050565b6000845161080881846020890161058e565b80830190507f5f000000000000000000000000000000000000000000000000000000000000008082528551610844816001850160208a0161058e565b6001920191820152835161085f81600284016020880161058e565b0160020195945050505050565b7f494e5345525420494e544f2000000000000000000000000000000000000000008152600084516108a481600c85016020890161058e565b7f2028000000000000000000000000000000000000000000000000000000000000600c9184019182015284516108e181600e84016020890161058e565b7f292056414c554553202800000000000000000000000000000000000000000000600e9290910191820152835161091f81601884016020880161058e565b7f29000000000000000000000000000000000000000000000000000000000000006018929091019182015260190195945050505050565b7f494e5345525420494e544f20000000000000000000000000000000000000000081526000845161098e81600c85016020890161058e565b7f2028000000000000000000000000000000000000000000000000000000000000600c9184019182015284516109cb81600e84016020890161058e565b7f292056414c554553200000000000000000000000000000000000000000000000600e92909101918201528351610a0981601784016020880161058e565b0160170195945050505050565b7f435245415445205441424c452000000000000000000000000000000000000000815260008451610a4e81600d85016020890161058e565b7f5f00000000000000000000000000000000000000000000000000000000000000600d918401918201528451610a8b81600e84016020890161058e565b7f2028000000000000000000000000000000000000000000000000000000000000600e92909101918201528351610ac981601084016020880161058e565b7f29000000000000000000000000000000000000000000000000000000000000006010929091019182015260110195945050505050565b7f44454c4554452046524f4d200000000000000000000000000000000000000000815260008351610b3881600c85016020880161058e565b7f2057484552452000000000000000000000000000000000000000000000000000600c918401918201528351610b7581601384016020880161058e565b0160130194935050505056fea2646970667358221220f31f27f8600b247d63fe0617c9e8ad65808575877c2e3cee39c1c0c9d23dbc6964736f6c63430008110033",
  "linkReferences": {},
  "deployedLinkReferences": {}
}