{
  "_format": "hh-sol-artifact-1",
  "contractName": "StorageAccessible",
  "sourceName": "@gnosis.pm/safe-contracts/contracts/common/StorageAccessible.sol",
  "abi": [
    {
      "inputs": [
        {
          "internalType": "uint256",
          "name": "offset",
          "type": "uint256"
        },
        {
          "internalType": "uint256",
          "name": "length",
          "type": "uint256"
        }
      ],
      "name": "getStorageAt",
      "outputs": [
        {
          "internalType": "bytes",
          "name": "",
          "type": "bytes"
        }
      ],
      "stateMutability": "view",
      "type": "function"
    },
    {
      "inputs": [
        {
          "internalType": "address",
          "name": "targetContract",
          "type": "address"
        },
        {
          "internalType": "bytes",
          "name": "calldataPayload",
          "type": "bytes"
        }
      ],
      "name": "simulateAndRevert",
      "outputs": [],
      "stateMutability": "nonpayable",
      "type": "function"
    }
  ],
  "bytecode": "0x608060405234801561001057600080fd5b50610390806100206000396000f3fe608060405234801561001057600080fd5b50600436106100365760003560e01c80635624b25b1461003b578063b4faba0914610064575b600080fd5b61004e610049366004610124565b610079565b60405161005b9190610146565b60405180910390f35b6100776100723660046101e1565b610101565b005b6060600061008883602061030b565b67ffffffffffffffff8111156100a0576100a06101b2565b6040519080825280601f01601f1916602001820160405280156100ca576020820181803683370190505b50905060005b838110156100f75784810154602080830284010152806100ef81610322565b9150506100d0565b5090505b92915050565b600080825160208401855af480600052503d6020523d600060403e60403d016000fd5b6000806040838503121561013757600080fd5b50508035926020909101359150565b600060208083528351808285015260005b8181101561017357858101830151858201604001528201610157565b5060006040828601015260407fffffffffffffffffffffffffffffffffffffffffffffffffffffffffffffffe0601f8301168501019250505092915050565b7f4e487b7100000000000000000000000000000000000000000000000000000000600052604160045260246000fd5b600080604083850312156101f457600080fd5b823573ffffffffffffffffffffffffffffffffffffffff8116811461021857600080fd5b9150602083013567ffffffffffffffff8082111561023557600080fd5b818501915085601f83011261024957600080fd5b81358181111561025b5761025b6101b2565b604051601f82017fffffffffffffffffffffffffffffffffffffffffffffffffffffffffffffffe0908116603f011681019083821181831017156102a1576102a16101b2565b816040528281528860208487010111156102ba57600080fd5b8260208601602083013760006020848301015280955050505050509250929050565b7f4e487b7100000000000000000000000000000000000000000000000000000000600052601160045260246000fd5b80820281158282048414176100fb576100fb6102dc565b60007fffffffffffffffffffffffffffffffffffffffffffffffffffffffffffffffff8203610353576103536102dc565b506001019056fea2646970667358221220a5aea0162ff22d190a8ff7538b5a8cf38923d350f84a08e67e33716b0fb7531564736f6c63430008110033",
  "linkReferences": {},
  "deployedLinkReferences": {}
}