{
  "_format": "hh-sol-artifact-1",
  "contractName": "TablelandTables",
  "sourceName": "@tableland/evm/contracts/TablelandTables.sol",
  "abi": [
    {
      "inputs": [],
      "name": "ApprovalCallerNotOwnerNorApproved",
      "type": "error"
    },
    {
      "inputs": [],
      "name": "ApprovalQueryForNonexistentToken",
      "type": "error"
    },
    {
      "inputs": [],
      "name": "BalanceQueryForZeroAddress",
      "type": "error"
    },
    {
      "inputs": [],
      "name": "InvalidQueryRange",
      "type": "error"
    },
    {
      "inputs": [
        {
          "internalType": "uint256",
          "name": "querySize",
          "type": "uint256"
        },
        {
          "internalType": "uint256",
          "name": "maxQuerySize",
          "type": "uint256"
        }
      ],
      "name": "MaxQuerySizeExceeded",
      "type": "error"
    },
    {
      "inputs": [],
      "name": "MintERC2309QuantityExceedsLimit",
      "type": "error"
    },
    {
      "inputs": [],
      "name": "MintToZeroAddress",
      "type": "error"
    },
    {
      "inputs": [],
      "name": "MintZeroQuantity",
      "type": "error"
    },
    {
      "inputs": [],
      "name": "OwnerQueryForNonexistentToken",
      "type": "error"
    },
    {
      "inputs": [],
      "name": "OwnershipNotInitializedForExtraData",
      "type": "error"
    },
    {
      "inputs": [],
      "name": "TransferCallerNotOwnerNorApproved",
      "type": "error"
    },
    {
      "inputs": [],
      "name": "TransferFromIncorrectOwner",
      "type": "error"
    },
    {
      "inputs": [],
      "name": "TransferToNonERC721ReceiverImplementer",
      "type": "error"
    },
    {
      "inputs": [],
      "name": "TransferToZeroAddress",
      "type": "error"
    },
    {
      "inputs": [],
      "name": "URIQueryForNonexistentToken",
      "type": "error"
    },
    {
      "inputs": [],
      "name": "Unauthorized",
      "type": "error"
    },
    {
      "anonymous": false,
      "inputs": [
        {
          "indexed": false,
          "internalType": "address",
          "name": "previousAdmin",
          "type": "address"
        },
        {
          "indexed": false,
          "internalType": "address",
          "name": "newAdmin",
          "type": "address"
        }
      ],
      "name": "AdminChanged",
      "type": "event"
    },
    {
      "anonymous": false,
      "inputs": [
        {
          "indexed": true,
          "internalType": "address",
          "name": "owner",
          "type": "address"
        },
        {
          "indexed": true,
          "internalType": "address",
          "name": "approved",
          "type": "address"
        },
        {
          "indexed": true,
          "internalType": "uint256",
          "name": "tokenId",
          "type": "uint256"
        }
      ],
      "name": "Approval",
      "type": "event"
    },
    {
      "anonymous": false,
      "inputs": [
        {
          "indexed": true,
          "internalType": "address",
          "name": "owner",
          "type": "address"
        },
        {
          "indexed": true,
          "internalType": "address",
          "name": "operator",
          "type": "address"
        },
        {
          "indexed": false,
          "internalType": "bool",
          "name": "approved",
          "type": "bool"
        }
      ],
      "name": "ApprovalForAll",
      "type": "event"
    },
    {
      "anonymous": false,
      "inputs": [
        {
          "indexed": true,
          "internalType": "address",
          "name": "beacon",
          "type": "address"
        }
      ],
      "name": "BeaconUpgraded",
      "type": "event"
    },
    {
      "anonymous": false,
      "inputs": [
        {
          "indexed": true,
          "internalType": "uint256",
          "name": "fromTokenId",
          "type": "uint256"
        },
        {
          "indexed": false,
          "internalType": "uint256",
          "name": "toTokenId",
          "type": "uint256"
        },
        {
          "indexed": true,
          "internalType": "address",
          "name": "from",
          "type": "address"
        },
        {
          "indexed": true,
          "internalType": "address",
          "name": "to",
          "type": "address"
        }
      ],
      "name": "ConsecutiveTransfer",
      "type": "event"
    },
    {
      "anonymous": false,
      "inputs": [
        {
          "indexed": false,
          "internalType": "address",
          "name": "owner",
          "type": "address"
        },
        {
          "indexed": false,
          "internalType": "uint256",
          "name": "tableId",
          "type": "uint256"
        },
        {
          "indexed": false,
          "internalType": "string",
          "name": "statement",
          "type": "string"
        }
      ],
      "name": "CreateTable",
      "type": "event"
    },
    {
      "anonymous": false,
      "inputs": [
        {
          "indexed": false,
          "internalType": "uint8",
          "name": "version",
          "type": "uint8"
        }
      ],
      "name": "Initialized",
      "type": "event"
    },
    {
      "anonymous": false,
      "inputs": [
        {
          "indexed": true,
          "internalType": "address",
          "name": "previousOwner",
          "type": "address"
        },
        {
          "indexed": true,
          "internalType": "address",
          "name": "newOwner",
          "type": "address"
        }
      ],
      "name": "OwnershipTransferred",
      "type": "event"
    },
    {
      "anonymous": false,
      "inputs": [
        {
          "indexed": false,
          "internalType": "address",
          "name": "account",
          "type": "address"
        }
      ],
      "name": "Paused",
      "type": "event"
    },
    {
      "anonymous": false,
      "inputs": [
        {
          "indexed": false,
          "internalType": "address",
          "name": "caller",
          "type": "address"
        },
        {
          "indexed": false,
          "internalType": "bool",
          "name": "isOwner",
          "type": "bool"
        },
        {
          "indexed": false,
          "internalType": "uint256",
          "name": "tableId",
          "type": "uint256"
        },
        {
          "indexed": false,
          "internalType": "string",
          "name": "statement",
          "type": "string"
        },
        {
          "components": [
            {
              "internalType": "bool",
              "name": "allowInsert",
              "type": "bool"
            },
            {
              "internalType": "bool",
              "name": "allowUpdate",
              "type": "bool"
            },
            {
              "internalType": "bool",
              "name": "allowDelete",
              "type": "bool"
            },
            {
              "internalType": "string",
              "name": "whereClause",
              "type": "string"
            },
            {
              "internalType": "string",
              "name": "withCheck",
              "type": "string"
            },
            {
              "internalType": "string[]",
              "name": "updatableColumns",
              "type": "string[]"
            }
          ],
          "indexed": false,
          "internalType": "struct ITablelandController.Policy",
          "name": "policy",
          "type": "tuple"
        }
      ],
      "name": "RunSQL",
      "type": "event"
    },
    {
      "anonymous": false,
      "inputs": [
        {
          "indexed": false,
          "internalType": "uint256",
          "name": "tableId",
          "type": "uint256"
        },
        {
          "indexed": false,
          "internalType": "address",
          "name": "controller",
          "type": "address"
        }
      ],
      "name": "SetController",
      "type": "event"
    },
    {
      "anonymous": false,
      "inputs": [
        {
          "indexed": true,
          "internalType": "address",
          "name": "from",
          "type": "address"
        },
        {
          "indexed": true,
          "internalType": "address",
          "name": "to",
          "type": "address"
        },
        {
          "indexed": true,
          "internalType": "uint256",
          "name": "tokenId",
          "type": "uint256"
        }
      ],
      "name": "Transfer",
      "type": "event"
    },
    {
      "anonymous": false,
      "inputs": [
        {
          "indexed": false,
          "internalType": "address",
          "name": "from",
          "type": "address"
        },
        {
          "indexed": false,
          "internalType": "address",
          "name": "to",
          "type": "address"
        },
        {
          "indexed": false,
          "internalType": "uint256",
          "name": "tableId",
          "type": "uint256"
        }
      ],
      "name": "TransferTable",
      "type": "event"
    },
    {
      "anonymous": false,
      "inputs": [
        {
          "indexed": false,
          "internalType": "address",
          "name": "account",
          "type": "address"
        }
      ],
      "name": "Unpaused",
      "type": "event"
    },
    {
      "anonymous": false,
      "inputs": [
        {
          "indexed": true,
          "internalType": "address",
          "name": "implementation",
          "type": "address"
        }
      ],
      "name": "Upgraded",
      "type": "event"
    },
    {
      "inputs": [
        {
          "internalType": "address",
          "name": "to",
          "type": "address"
        },
        {
          "internalType": "uint256",
          "name": "tokenId",
          "type": "uint256"
        }
      ],
      "name": "approve",
      "outputs": [],
      "stateMutability": "payable",
      "type": "function"
    },
    {
      "inputs": [
        {
          "internalType": "address",
          "name": "owner",
          "type": "address"
        }
      ],
      "name": "balanceOf",
      "outputs": [
        {
          "internalType": "uint256",
          "name": "",
          "type": "uint256"
        }
      ],
      "stateMutability": "view",
      "type": "function"
    },
    {
      "inputs": [
        {
          "internalType": "address",
          "name": "owner",
          "type": "address"
        },
        {
          "internalType": "string",
          "name": "statement",
          "type": "string"
        }
      ],
      "name": "createTable",
      "outputs": [
        {
          "internalType": "uint256",
          "name": "tableId",
          "type": "uint256"
        }
      ],
      "stateMutability": "payable",
      "type": "function"
    },
    {
      "inputs": [
        {
          "internalType": "uint256",
          "name": "tokenId",
          "type": "uint256"
        }
      ],
      "name": "explicitOwnershipOf",
      "outputs": [
        {
          "components": [
            {
              "internalType": "address",
              "name": "addr",
              "type": "address"
            },
            {
              "internalType": "uint64",
              "name": "startTimestamp",
              "type": "uint64"
            },
            {
              "internalType": "bool",
              "name": "burned",
              "type": "bool"
            },
            {
              "internalType": "uint24",
              "name": "extraData",
              "type": "uint24"
            }
          ],
          "internalType": "struct IERC721AUpgradeable.TokenOwnership",
          "name": "",
          "type": "tuple"
        }
      ],
      "stateMutability": "view",
      "type": "function"
    },
    {
      "inputs": [
        {
          "internalType": "uint256[]",
          "name": "tokenIds",
          "type": "uint256[]"
        }
      ],
      "name": "explicitOwnershipsOf",
      "outputs": [
        {
          "components": [
            {
              "internalType": "address",
              "name": "addr",
              "type": "address"
            },
            {
              "internalType": "uint64",
              "name": "startTimestamp",
              "type": "uint64"
            },
            {
              "internalType": "bool",
              "name": "burned",
              "type": "bool"
            },
            {
              "internalType": "uint24",
              "name": "extraData",
              "type": "uint24"
            }
          ],
          "internalType": "struct IERC721AUpgradeable.TokenOwnership[]",
          "name": "",
          "type": "tuple[]"
        }
      ],
      "stateMutability": "view",
      "type": "function"
    },
    {
      "inputs": [
        {
          "internalType": "uint256",
          "name": "tokenId",
          "type": "uint256"
        }
      ],
      "name": "getApproved",
      "outputs": [
        {
          "internalType": "address",
          "name": "",
          "type": "address"
        }
      ],
      "stateMutability": "view",
      "type": "function"
    },
    {
      "inputs": [
        {
          "internalType": "uint256",
          "name": "tableId",
          "type": "uint256"
        }
      ],
      "name": "getController",
      "outputs": [
        {
          "internalType": "address",
          "name": "",
          "type": "address"
        }
      ],
      "stateMutability": "view",
      "type": "function"
    },
    {
      "inputs": [
        {
          "internalType": "string",
          "name": "baseURI",
          "type": "string"
        }
      ],
      "name": "initialize",
      "outputs": [],
      "stateMutability": "nonpayable",
      "type": "function"
    },
    {
      "inputs": [
        {
          "internalType": "address",
          "name": "owner",
          "type": "address"
        },
        {
          "internalType": "address",
          "name": "operator",
          "type": "address"
        }
      ],
      "name": "isApprovedForAll",
      "outputs": [
        {
          "internalType": "bool",
          "name": "",
          "type": "bool"
        }
      ],
      "stateMutability": "view",
      "type": "function"
    },
    {
      "inputs": [
        {
          "internalType": "address",
          "name": "caller",
          "type": "address"
        },
        {
          "internalType": "uint256",
          "name": "tableId",
          "type": "uint256"
        }
      ],
      "name": "lockController",
      "outputs": [],
      "stateMutability": "nonpayable",
      "type": "function"
    },
    {
      "inputs": [],
      "name": "name",
      "outputs": [
        {
          "internalType": "string",
          "name": "",
          "type": "string"
        }
      ],
      "stateMutability": "view",
      "type": "function"
    },
    {
      "inputs": [],
      "name": "owner",
      "outputs": [
        {
          "internalType": "address",
          "name": "",
          "type": "address"
        }
      ],
      "stateMutability": "view",
      "type": "function"
    },
    {
      "inputs": [
        {
          "internalType": "uint256",
          "name": "tokenId",
          "type": "uint256"
        }
      ],
      "name": "ownerOf",
      "outputs": [
        {
          "internalType": "address",
          "name": "",
          "type": "address"
        }
      ],
      "stateMutability": "view",
      "type": "function"
    },
    {
      "inputs": [],
      "name": "pause",
      "outputs": [],
      "stateMutability": "nonpayable",
      "type": "function"
    },
    {
      "inputs": [],
      "name": "paused",
      "outputs": [
        {
          "internalType": "bool",
          "name": "",
          "type": "bool"
        }
      ],
      "stateMutability": "view",
      "type": "function"
    },
    {
      "inputs": [],
      "name": "proxiableUUID",
      "outputs": [
        {
          "internalType": "bytes32",
          "name": "",
          "type": "bytes32"
        }
      ],
      "stateMutability": "view",
      "type": "function"
    },
    {
      "inputs": [],
      "name": "renounceOwnership",
      "outputs": [],
      "stateMutability": "nonpayable",
      "type": "function"
    },
    {
      "inputs": [
        {
          "internalType": "address",
          "name": "caller",
          "type": "address"
        },
        {
          "internalType": "uint256",
          "name": "tableId",
          "type": "uint256"
        },
        {
          "internalType": "string",
          "name": "statement",
          "type": "string"
        }
      ],
      "name": "runSQL",
      "outputs": [],
      "stateMutability": "payable",
      "type": "function"
    },
    {
      "inputs": [
        {
          "internalType": "address",
          "name": "from",
          "type": "address"
        },
        {
          "internalType": "address",
          "name": "to",
          "type": "address"
        },
        {
          "internalType": "uint256",
          "name": "tokenId",
          "type": "uint256"
        }
      ],
      "name": "safeTransferFrom",
      "outputs": [],
      "stateMutability": "payable",
      "type": "function"
    },
    {
      "inputs": [
        {
          "internalType": "address",
          "name": "from",
          "type": "address"
        },
        {
          "internalType": "address",
          "name": "to",
          "type": "address"
        },
        {
          "internalType": "uint256",
          "name": "tokenId",
          "type": "uint256"
        },
        {
          "internalType": "bytes",
          "name": "_data",
          "type": "bytes"
        }
      ],
      "name": "safeTransferFrom",
      "outputs": [],
      "stateMutability": "payable",
      "type": "function"
    },
    {
      "inputs": [
        {
          "internalType": "address",
          "name": "operator",
          "type": "address"
        },
        {
          "internalType": "bool",
          "name": "approved",
          "type": "bool"
        }
      ],
      "name": "setApprovalForAll",
      "outputs": [],
      "stateMutability": "nonpayable",
      "type": "function"
    },
    {
      "inputs": [
        {
          "internalType": "string",
          "name": "baseURI",
          "type": "string"
        }
      ],
      "name": "setBaseURI",
      "outputs": [],
      "stateMutability": "nonpayable",
      "type": "function"
    },
    {
      "inputs": [
        {
          "internalType": "address",
          "name": "caller",
          "type": "address"
        },
        {
          "internalType": "uint256",
          "name": "tableId",
          "type": "uint256"
        },
        {
          "internalType": "address",
          "name": "controller",
          "type": "address"
        }
      ],
      "name": "setController",
      "outputs": [],
      "stateMutability": "nonpayable",
      "type": "function"
    },
    {
      "inputs": [
        {
          "internalType": "bytes4",
          "name": "interfaceId",
          "type": "bytes4"
        }
      ],
      "name": "supportsInterface",
      "outputs": [
        {
          "internalType": "bool",
          "name": "",
          "type": "bool"
        }
      ],
      "stateMutability": "view",
      "type": "function"
    },
    {
      "inputs": [],
      "name": "symbol",
      "outputs": [
        {
          "internalType": "string",
          "name": "",
          "type": "string"
        }
      ],
      "stateMutability": "view",
      "type": "function"
    },
    {
      "inputs": [
        {
          "internalType": "uint256",
          "name": "tokenId",
          "type": "uint256"
        }
      ],
      "name": "tokenURI",
      "outputs": [
        {
          "internalType": "string",
          "name": "",
          "type": "string"
        }
      ],
      "stateMutability": "view",
      "type": "function"
    },
    {
      "inputs": [
        {
          "internalType": "address",
          "name": "owner",
          "type": "address"
        }
      ],
      "name": "tokensOfOwner",
      "outputs": [
        {
          "internalType": "uint256[]",
          "name": "",
          "type": "uint256[]"
        }
      ],
      "stateMutability": "view",
      "type": "function"
    },
    {
      "inputs": [
        {
          "internalType": "address",
          "name": "owner",
          "type": "address"
        },
        {
          "internalType": "uint256",
          "name": "start",
          "type": "uint256"
        },
        {
          "internalType": "uint256",
          "name": "stop",
          "type": "uint256"
        }
      ],
      "name": "tokensOfOwnerIn",
      "outputs": [
        {
          "internalType": "uint256[]",
          "name": "",
          "type": "uint256[]"
        }
      ],
      "stateMutability": "view",
      "type": "function"
    },
    {
      "inputs": [],
      "name": "totalSupply",
      "outputs": [
        {
          "internalType": "uint256",
          "name": "",
          "type": "uint256"
        }
      ],
      "stateMutability": "view",
      "type": "function"
    },
    {
      "inputs": [
        {
          "internalType": "address",
          "name": "from",
          "type": "address"
        },
        {
          "internalType": "address",
          "name": "to",
          "type": "address"
        },
        {
          "internalType": "uint256",
          "name": "tokenId",
          "type": "uint256"
        }
      ],
      "name": "transferFrom",
      "outputs": [],
      "stateMutability": "payable",
      "type": "function"
    },
    {
      "inputs": [
        {
          "internalType": "address",
          "name": "newOwner",
          "type": "address"
        }
      ],
      "name": "transferOwnership",
      "outputs": [],
      "stateMutability": "nonpayable",
      "type": "function"
    },
    {
      "inputs": [],
      "name": "unpause",
      "outputs": [],
      "stateMutability": "nonpayable",
      "type": "function"
    },
    {
      "inputs": [
        {
          "internalType": "address",
          "name": "newImplementation",
          "type": "address"
        }
      ],
      "name": "upgradeTo",
      "outputs": [],
      "stateMutability": "nonpayable",
      "type": "function"
    },
    {
      "inputs": [
        {
          "internalType": "address",
          "name": "newImplementation",
          "type": "address"
        },
        {
          "internalType": "bytes",
          "name": "data",
          "type": "bytes"
        }
      ],
      "name": "upgradeToAndCall",
      "outputs": [],
      "stateMutability": "payable",
      "type": "function"
    }
  ],
  "bytecode": "0x60a06040523060805234801561001457600080fd5b5060805161416e61004c60003960008181610cc301528181610d5e01528181610f1001528181610fa6015261109d015261416e6000f3fe6080604052600436106102195760003560e01c80636352211e1161011d57806399a2557a116100b0578063c87b56dd1161007f578063eaf5d04e11610064578063eaf5d04e1461066b578063f2fde38b1461067e578063f62d18881461069e57600080fd5b8063c87b56dd146105e3578063e985e9c51461060357600080fd5b806399a2557a14610563578063a22cb46514610583578063b88d4fde146105a3578063c23dc68f146105b657600080fd5b80638462151c116100ec5780638462151c146104e35780638bb0ab97146105105780638da5cb5b1461053057806395d89b411461054e57600080fd5b80636352211e1461047957806370a0823114610499578063715018a6146104b95780638456cb59146104ce57600080fd5b80633a9151b0116101b057806352d1902d1161017f57806358edaa9c1161016457806358edaa9c146103fd5780635bbb2177146104345780635c975abb1461046157600080fd5b806352d1902d146103c857806355f804b3146103dd57600080fd5b80633a9151b01461037a5780633f4ba83a1461038d57806342842e0e146103a25780634f1ef286146103b557600080fd5b8063095ea7b3116101ec578063095ea7b3146102cf57806318160ddd146102e257806323b872dd146103475780633659cfe61461035a57600080fd5b806301ffc9a71461021e578063052956811461025357806306fdde0314610275578063081812fc14610297575b600080fd5b34801561022a57600080fd5b5061023e61023936600461360a565b6106be565b60405190151581526020015b60405180910390f35b34801561025f57600080fd5b5061027361026e36600461363e565b6107a3565b005b34801561028157600080fd5b5061028a610860565b60405161024a91906136b8565b3480156102a357600080fd5b506102b76102b23660046136cb565b610914565b6040516001600160a01b03909116815260200161024a565b6102736102dd36600461363e565b610990565b3480156102ee57600080fd5b507f2569078dfb4b0305704d3008e7403993ae9601b85f7ae5e742de3de8f8011c41547f2569078dfb4b0305704d3008e7403993ae9601b85f7ae5e742de3de8f8011c405403600019015b60405190815260200161024a565b6102736103553660046136e4565b6109a0565b34801561036657600080fd5b50610273610375366004613720565b610cb9565b610339610388366004613842565b610e5b565b34801561039957600080fd5b50610273610ed4565b6102736103b03660046136e4565b610ee6565b6102736103c3366004613842565b610f06565b3480156103d457600080fd5b50610339611090565b3480156103e957600080fd5b506102736103f8366004613890565b611155565b34801561040957600080fd5b506102b76104183660046136cb565b600090815261012e60205260409020546001600160a01b031690565b34801561044057600080fd5b5061045461044f3660046138c5565b61116a565b60405161024a919061393a565b34801561046d57600080fd5b5060655460ff1661023e565b34801561048557600080fd5b506102b76104943660046136cb565b611236565b3480156104a557600080fd5b506103396104b4366004613720565b611241565b3480156104c557600080fd5b506102736112c8565b3480156104da57600080fd5b506102736112da565b3480156104ef57600080fd5b506105036104fe366004613720565b6112ea565b60405161024a91906139b7565b34801561051c57600080fd5b5061027361052b3660046139ef565b6113ee565b34801561053c57600080fd5b506033546001600160a01b03166102b7565b34801561055a57600080fd5b5061028a61150e565b34801561056f57600080fd5b5061050361057e366004613a2b565b61153f565b34801561058f57600080fd5b5061027361059e366004613a6c565b6116ff565b6102736105b1366004613aa3565b61178a565b3480156105c257600080fd5b506105d66105d13660046136cb565b6117ed565b60405161024a9190613b0b565b3480156105ef57600080fd5b5061028a6105fe3660046136cb565b611894565b34801561060f57600080fd5b5061023e61061e366004613b50565b6001600160a01b0391821660009081527f2569078dfb4b0305704d3008e7403993ae9601b85f7ae5e742de3de8f8011c476020908152604080832093909416825291909152205460ff1690565b610273610679366004613b83565b611930565b34801561068a57600080fd5b50610273610699366004613720565b611a62565b3480156106aa57600080fd5b506102736106b9366004613890565b611aef565b60007f01ffc9a7000000000000000000000000000000000000000000000000000000007fffffffff000000000000000000000000000000000000000000000000000000008316148061075157507f80ac58cd000000000000000000000000000000000000000000000000000000007fffffffff000000000000000000000000000000000000000000000000000000008316145b8061079d57507f5b5e139f000000000000000000000000000000000000000000000000000000007fffffffff000000000000000000000000000000000000000000000000000000008316145b92915050565b6107ab611e2f565b6107b481611236565b6001600160a01b0316826001600160a01b03161415806107f257506001600160a01b0382163314806107f057506033546001600160a01b031633145b155b8061080c5750600081815261012f602052604090205460ff165b15610843576040517f82b4290000000000000000000000000000000000000000000000000000000000815260040160405180910390fd5b600090815261012f60205260409020805460ff1916600117905550565b60607f2569078dfb4b0305704d3008e7403993ae9601b85f7ae5e742de3de8f8011c40600201805461089190613bda565b80601f01602080910402602001604051908101604052809291908181526020018280546108bd90613bda565b801561090a5780601f106108df5761010080835404028352916020019161090a565b820191906000526020600020905b8154815290600101906020018083116108ed57829003601f168201915b5050505050905090565b600061091f82611e82565b610955576040517fcf4700e400000000000000000000000000000000000000000000000000000000815260040160405180910390fd5b5060009081527f2569078dfb4b0305704d3008e7403993ae9601b85f7ae5e742de3de8f8011c4660205260409020546001600160a01b031690565b61099c82826001611f0e565b5050565b60006109ab82612041565b9050836001600160a01b0316816001600160a01b0316146109f8576040517fa114810000000000000000000000000000000000000000000000000000000000815260040160405180910390fd5b60008281527f2569078dfb4b0305704d3008e7403993ae9601b85f7ae5e742de3de8f8011c46602052604090208054338082146001600160a01b03881690911417610ab9576001600160a01b03861660009081527f2569078dfb4b0305704d3008e7403993ae9601b85f7ae5e742de3de8f8011c476020908152604080832033845290915290205460ff16610ab9576040517f59c896be00000000000000000000000000000000000000000000000000000000815260040160405180910390fd5b6001600160a01b038516610af9576040517fea553b3400000000000000000000000000000000000000000000000000000000815260040160405180910390fd5b8015610b0457600082555b6001600160a01b0386811660009081527f2569078dfb4b0305704d3008e7403993ae9601b85f7ae5e742de3de8f8011c4560205260408082208054600019019055918716808252919020805460010190554260a01b177c02000000000000000000000000000000000000000000000000000000001760008581527f2569078dfb4b0305704d3008e7403993ae9601b85f7ae5e742de3de8f8011c4460205260408120919091557c020000000000000000000000000000000000000000000000000000000084169003610c63576001840160008181527f2569078dfb4b0305704d3008e7403993ae9601b85f7ae5e742de3de8f8011c4460205260408120549003610c61577f2569078dfb4b0305704d3008e7403993ae9601b85f7ae5e742de3de8f8011c40548114610c615760008181527f2569078dfb4b0305704d3008e7403993ae9601b85f7ae5e742de3de8f8011c44602052604090208490555b505b83856001600160a01b0316876001600160a01b03167fddf252ad1be2c89b69c2b068fc378daa952ba7f163c4a11628f55a4df523b3ef60405160405180910390a4610cb18686866001612174565b505050505050565b6001600160a01b037f0000000000000000000000000000000000000000000000000000000000000000163003610d5c5760405162461bcd60e51b815260206004820152602c60248201527f46756e6374696f6e206d7573742062652063616c6c6564207468726f7567682060448201527f64656c656761746563616c6c000000000000000000000000000000000000000060648201526084015b60405180910390fd5b7f00000000000000000000000000000000000000000000000000000000000000006001600160a01b0316610db77f360894a13ba1a3210667c828492db98dca3e2076cc3735a920a3ca505d382bbc546001600160a01b031690565b6001600160a01b031614610e335760405162461bcd60e51b815260206004820152602c60248201527f46756e6374696f6e206d7573742062652063616c6c6564207468726f7567682060448201527f6163746976652070726f787900000000000000000000000000000000000000006064820152608401610d53565b610e3c816121d4565b60408051600080825260208201909252610e58918391906121dc565b50565b6000610e65611e2f565b507f2569078dfb4b0305704d3008e7403993ae9601b85f7ae5e742de3de8f8011c4054610e9383600161237c565b7ffe0c067afc4fe17adcf4cfa139aabad6dc30dd86dfe39fb2b858961637156cdd838284604051610ec693929190613c2d565b60405180910390a192915050565b610edc612396565b610ee46123f0565b565b610f018383836040518060200160405280600081525061178a565b505050565b6001600160a01b037f0000000000000000000000000000000000000000000000000000000000000000163003610fa45760405162461bcd60e51b815260206004820152602c60248201527f46756e6374696f6e206d7573742062652063616c6c6564207468726f7567682060448201527f64656c656761746563616c6c00000000000000000000000000000000000000006064820152608401610d53565b7f00000000000000000000000000000000000000000000000000000000000000006001600160a01b0316610fff7f360894a13ba1a3210667c828492db98dca3e2076cc3735a920a3ca505d382bbc546001600160a01b031690565b6001600160a01b03161461107b5760405162461bcd60e51b815260206004820152602c60248201527f46756e6374696f6e206d7573742062652063616c6c6564207468726f7567682060448201527f6163746976652070726f787900000000000000000000000000000000000000006064820152608401610d53565b611084826121d4565b61099c828260016121dc565b6000306001600160a01b037f000000000000000000000000000000000000000000000000000000000000000016146111305760405162461bcd60e51b815260206004820152603860248201527f555550535570677261646561626c653a206d757374206e6f742062652063616c60448201527f6c6564207468726f7567682064656c656761746563616c6c00000000000000006064820152608401610d53565b507f360894a13ba1a3210667c828492db98dca3e2076cc3735a920a3ca505d382bbc90565b61115d612396565b61012d61099c8282613c9b565b60608160008167ffffffffffffffff8111156111885761118861373b565b6040519080825280602002602001820160405280156111da57816020015b6040805160808101825260008082526020808301829052928201819052606082015282526000199092019101816111a65790505b50905060005b82811461122d576112088686838181106111fc576111fc613d5b565b905060200201356117ed565b82828151811061121a5761121a613d5b565b60209081029190910101526001016111e0565b50949350505050565b600061079d82612041565b60006001600160a01b038216611283576040517f8f4eb60400000000000000000000000000000000000000000000000000000000815260040160405180910390fd5b506001600160a01b031660009081527f2569078dfb4b0305704d3008e7403993ae9601b85f7ae5e742de3de8f8011c45602052604090205467ffffffffffffffff1690565b6112d0612396565b610ee46000612442565b6112e2612396565b610ee46124ac565b606060008060006112fa85611241565b905060008167ffffffffffffffff8111156113175761131761373b565b604051908082528060200260200182016040528015611340578160200160208202803683370190505b5060408051608081018252600080825260208201819052918101829052606081019190915290915060015b8386146113e25761137b816124e9565b915081604001516113da5781516001600160a01b03161561139b57815194505b876001600160a01b0316856001600160a01b0316036113da57808387806001019850815181106113cd576113cd613d5b565b6020026020010181815250505b60010161136b565b50909695505050505050565b6113f6611e2f565b6113ff82611236565b6001600160a01b0316836001600160a01b031614158061143d57506001600160a01b03831633148061143b57506033546001600160a01b031633145b155b806114575750600082815261012f602052604090205460ff165b1561148e576040517f82b4290000000000000000000000000000000000000000000000000000000000815260040160405180910390fd5b600082815261012e602090815260409182902080547fffffffffffffffffffffffff0000000000000000000000000000000000000000166001600160a01b0385169081179091558251858152918201527f64d442926514e7c17643406b529155919979582e13eee1dfe07cbd088ef2033e910160405180910390a1505050565b60607f2569078dfb4b0305704d3008e7403993ae9601b85f7ae5e742de3de8f8011c40600301805461089190613bda565b606081831061157a576040517f32c1995a00000000000000000000000000000000000000000000000000000000815260040160405180910390fd5b6000806115a57f2569078dfb4b0305704d3008e7403993ae9601b85f7ae5e742de3de8f8011c405490565b905060018510156115b557600194505b808411156115c1578093505b60006115cc87611241565b9050848610156115eb57858503818110156115e5578091505b506115ef565b5060005b60008167ffffffffffffffff81111561160a5761160a61373b565b604051908082528060200260200182016040528015611633578160200160208202803683370190505b509050816000036116495793506116f892505050565b6000611654886117ed565b905060008160400151611665575080515b885b8881141580156116775750848714155b156116ec57611685816124e9565b925082604001516116e45782516001600160a01b0316156116a557825191505b8a6001600160a01b0316826001600160a01b0316036116e457808488806001019950815181106116d7576116d7613d5b565b6020026020010181815250505b600101611667565b50505092835250909150505b9392505050565b3360008181527f2569078dfb4b0305704d3008e7403993ae9601b85f7ae5e742de3de8f8011c47602090815260408083206001600160a01b03871680855290835292819020805460ff191686151590811790915590519081529192917f17307eab39ab6107e8899845ad3d59bd9653f200f220920489ca2b5937696c31910160405180910390a35050565b6117958484846109a0565b6001600160a01b0383163b156117e7576117b1848484846125a5565b6117e7576040517fd1a57ed600000000000000000000000000000000000000000000000000000000815260040160405180910390fd5b50505050565b604080516080810182526000808252602082018190529181018290526060810191909152604080516080810182526000808252602082018190529181018290526060810191909152600183108061186557507f2569078dfb4b0305704d3008e7403993ae9601b85f7ae5e742de3de8f8011c40548310155b156118705792915050565b611879836124e9565b905080604001511561188b5792915050565b6116f8836126f4565b606061189f82611e82565b6118d5576040517fa14c4b5000000000000000000000000000000000000000000000000000000000815260040160405180910390fd5b60006118df612785565b905080516000036118ff57604051806020016040528060008152506116f8565b8061190984612795565b60405160200161191a929190613d8a565b6040516020818303038152906040529392505050565b611938611e2f565b6119406127d9565b61194982611e82565b158061197357506001600160a01b03831633148061197157506033546001600160a01b031633145b155b156119aa576040517f82b4290000000000000000000000000000000000000000000000000000000000815260040160405180910390fd5b80516188b88111156119f3576040517f287d9057000000000000000000000000000000000000000000000000000000008152600481018290526188b86024820152604401610d53565b7f6de956d2cb2e161f8c91c6ae7b286358c7458d5ad5e26ea2d55330fbe282839c84856001600160a01b0316611a2886611236565b6001600160a01b0316148585611a3e8989612832565b604051611a4f959493929190613db9565b60405180910390a150610f016001609755565b611a6a612396565b6001600160a01b038116611ae65760405162461bcd60e51b815260206004820152602660248201527f4f776e61626c653a206e6577206f776e657220697320746865207a65726f206160448201527f64647265737300000000000000000000000000000000000000000000000000006064820152608401610d53565b610e5881612442565b7fee151c8401928dc223602bb187aff91b9a56c7cae5476ef1b3287b085a16c85f54610100900460ff16611b48577fee151c8401928dc223602bb187aff91b9a56c7cae5476ef1b3287b085a16c85f5460ff1615611b4c565b303b155b611bbe5760405162461bcd60e51b815260206004820152603760248201527f455243373231415f5f496e697469616c697a61626c653a20636f6e747261637460448201527f20697320616c726561647920696e697469616c697a65640000000000000000006064820152608401610d53565b7fee151c8401928dc223602bb187aff91b9a56c7cae5476ef1b3287b085a16c85f54610100900460ff16158015611c3b577fee151c8401928dc223602bb187aff91b9a56c7cae5476ef1b3287b085a16c85f80547fffffffffffffffffffffffffffffffffffffffffffffffffffffffffffff0000166101011790555b600054610100900460ff1615808015611c5b5750600054600160ff909116105b80611c755750303b158015611c75575060005460ff166001145b611ce75760405162461bcd60e51b815260206004820152602e60248201527f496e697469616c697a61626c653a20636f6e747261637420697320616c72656160448201527f647920696e697469616c697a65640000000000000000000000000000000000006064820152608401610d53565b6000805460ff191660011790558015611d0a576000805461ff0019166101001790555b611d7e6040518060400160405280601081526020017f5461626c656c616e64205461626c6573000000000000000000000000000000008152506040518060400160405280600581526020017f5441424c450000000000000000000000000000000000000000000000000000008152506129f3565b611d86612a99565b611d8e612b3d565b611d96612bc2565b611d9e612c47565b611da6612ccc565b61012d611db38482613c9b565b508015611dfa576000805461ff0019169055604051600181527f7f26b83ff96e1f2b6a682f133852f6798a09c465da95921460cefb38474024989060200160405180910390a15b50801561099c5750507fee151c8401928dc223602bb187aff91b9a56c7cae5476ef1b3287b085a16c85f805461ff0019169055565b60655460ff1615610ee45760405162461bcd60e51b815260206004820152601060248201527f5061757361626c653a20706175736564000000000000000000000000000000006044820152606401610d53565b600081600111158015611eb557507f2569078dfb4b0305704d3008e7403993ae9601b85f7ae5e742de3de8f8011c405482105b801561079d57505060009081527f2569078dfb4b0305704d3008e7403993ae9601b85f7ae5e742de3de8f8011c4460205260409020547c0100000000000000000000000000000000000000000000000000000000161590565b6000611f1983611236565b90508115611fad57336001600160a01b03821614611fad576001600160a01b03811660009081527f2569078dfb4b0305704d3008e7403993ae9601b85f7ae5e742de3de8f8011c476020908152604080832033845290915290205460ff16611fad576040517fcfb3b94200000000000000000000000000000000000000000000000000000000815260040160405180910390fd5b60008381527f2569078dfb4b0305704d3008e7403993ae9601b85f7ae5e742de3de8f8011c46602052604080822080547fffffffffffffffffffffffff0000000000000000000000000000000000000000166001600160a01b0388811691821790925591518693918516917f8c5be1e5ebec7d5bd14f71427d1e84f3dd0314c0f7b2291e5b200ac8c7c3b92591a450505050565b600081600111612142575060008181527f2569078dfb4b0305704d3008e7403993ae9601b85f7ae5e742de3de8f8011c446020526040812054907c010000000000000000000000000000000000000000000000000000000082169003612142578060000361213d577f2569078dfb4b0305704d3008e7403993ae9601b85f7ae5e742de3de8f8011c40548210612103576040517fdf2d9b4200000000000000000000000000000000000000000000000000000000815260040160405180910390fd5b506000190160008181527f2569078dfb4b0305704d3008e7403993ae9601b85f7ae5e742de3de8f8011c4460205260409020548015612103575b919050565b6040517fdf2d9b4200000000000000000000000000000000000000000000000000000000815260040160405180910390fd5b6001600160a01b038416156117e757604080516001600160a01b038087168252851660208201529081018390527f16d5b5d582da969cea3131e89ffbd67ee6b1ebbe2576c7a97e9b852fce946a7f9060600160405180910390a150505050565b610e58612396565b7f4910fdfa16fed3260ed0e7147f7cc6da11a60208b5b9406d12a635614ffd91435460ff161561220f57610f0183612d49565b826001600160a01b03166352d1902d6040518163ffffffff1660e01b8152600401602060405180830381865afa925050508015612269575060408051601f3d908101601f1916820190925261226691810190613eac565b60015b6122db5760405162461bcd60e51b815260206004820152602e60248201527f45524331393637557067726164653a206e657720696d706c656d656e7461746960448201527f6f6e206973206e6f7420555550530000000000000000000000000000000000006064820152608401610d53565b7f360894a13ba1a3210667c828492db98dca3e2076cc3735a920a3ca505d382bbc81146123705760405162461bcd60e51b815260206004820152602960248201527f45524331393637557067726164653a20756e737570706f727465642070726f7860448201527f6961626c655555494400000000000000000000000000000000000000000000006064820152608401610d53565b50610f01838383612e1f565b61099c828260405180602001604052806000815250612e44565b6033546001600160a01b03163314610ee45760405162461bcd60e51b815260206004820181905260248201527f4f776e61626c653a2063616c6c6572206973206e6f7420746865206f776e65726044820152606401610d53565b6123f8612f08565b6065805460ff191690557f5db9ee0a495bf2e6ff9c91a7834c1ba4fdd244a5e8aa4e537bd38aeae4b073aa335b6040516001600160a01b03909116815260200160405180910390a1565b603380546001600160a01b038381167fffffffffffffffffffffffff0000000000000000000000000000000000000000831681179093556040519116919082907f8be0079c531659141344cd1fd0a4f28419497f9722a3daafe3b4186f6b6457e090600090a35050565b6124b4611e2f565b6065805460ff191660011790557f62e78cea01bee320cd4e420270b5ea74000d11b0c9f74754ebdbfc544b05a2586124253390565b60408051608081018252600080825260208201819052918101829052606081019190915261079d7f2569078dfb4b0305704d3008e7403993ae9601b85f7ae5e742de3de8f8011c4060008481526004919091016020526040902054604080516080810182526001600160a01b038316815260a083901c67ffffffffffffffff1660208201527c0100000000000000000000000000000000000000000000000000000000831615159181019190915260e89190911c606082015290565b6040517f150b7a020000000000000000000000000000000000000000000000000000000081526000906001600160a01b0385169063150b7a02906125f3903390899088908890600401613ec5565b6020604051808303816000875af192505050801561262e575060408051601f3d908101601f1916820190925261262b91810190613f01565b60015b6126a5573d80801561265c576040519150601f19603f3d011682016040523d82523d6000602084013e612661565b606091505b50805160000361269d576040517fd1a57ed600000000000000000000000000000000000000000000000000000000815260040160405180910390fd5b805181602001fd5b7fffffffff00000000000000000000000000000000000000000000000000000000167f150b7a02000000000000000000000000000000000000000000000000000000001490505b949350505050565b60408051608081018252600080825260208201819052918101829052606081019190915261079d61272483612041565b604080516080810182526001600160a01b038316815260a083901c67ffffffffffffffff1660208201527c0100000000000000000000000000000000000000000000000000000000831615159181019190915260e89190911c606082015290565b606061012d805461089190613bda565b606060a06040510180604052602081039150506000815280825b600183039250600a81066030018353600a9004806127af5750819003601f19909101908152919050565b60026097540361282b5760405162461bcd60e51b815260206004820152601f60248201527f5265656e7472616e637947756172643a207265656e7472616e742063616c6c006044820152606401610d53565b6002609755565b6040805160c0810182526000808252602082018190529181019190915260608082018190526080820181905260a0820152600082815261012e60205260409020546001600160a01b0316803b15612916576040517f3791dc6a0000000000000000000000000000000000000000000000000000000081526001600160a01b038581166004830152821690633791dc6a90349060240160006040518083038185885af11580156128e5573d6000803e3d6000fd5b50505050506040513d6000823e601f3d908101601f1916820160405261290e919081019061400d565b91505061079d565b6001600160a01b038116158061293d5750836001600160a01b0316816001600160a01b0316145b612973576040517f82b4290000000000000000000000000000000000000000000000000000000000815260040160405180910390fd5b6040805160c081018252600180825260208083018290528284019190915282518082018452600080825260608401919091528351808301855281815260808401528351818152918201909352909160a0830191906129e1565b60608152602001906001900390816129cc5790505b509052949350505050565b6001609755565b7fee151c8401928dc223602bb187aff91b9a56c7cae5476ef1b3287b085a16c85f54610100900460ff16612a8f5760405162461bcd60e51b815260206004820152603460248201527f455243373231415f5f496e697469616c697a61626c653a20636f6e747261637460448201527f206973206e6f7420696e697469616c697a696e670000000000000000000000006064820152608401610d53565b61099c8282612f5a565b7fee151c8401928dc223602bb187aff91b9a56c7cae5476ef1b3287b085a16c85f54610100900460ff16612b355760405162461bcd60e51b815260206004820152603460248201527f455243373231415f5f496e697469616c697a61626c653a20636f6e747261637460448201527f206973206e6f7420696e697469616c697a696e670000000000000000000000006064820152608401610d53565b610ee4613076565b600054610100900460ff16612bba5760405162461bcd60e51b815260206004820152602b60248201527f496e697469616c697a61626c653a20636f6e7472616374206973206e6f74206960448201527f6e697469616c697a696e670000000000000000000000000000000000000000006064820152608401610d53565b610ee4613112565b600054610100900460ff16612c3f5760405162461bcd60e51b815260206004820152602b60248201527f496e697469616c697a61626c653a20636f6e7472616374206973206e6f74206960448201527f6e697469616c697a696e670000000000000000000000000000000000000000006064820152608401610d53565b610ee4613198565b600054610100900460ff16612cc45760405162461bcd60e51b815260206004820152602b60248201527f496e697469616c697a61626c653a20636f6e7472616374206973206e6f74206960448201527f6e697469616c697a696e670000000000000000000000000000000000000000006064820152608401610d53565b610ee4613221565b600054610100900460ff16610ee45760405162461bcd60e51b815260206004820152602b60248201527f496e697469616c697a61626c653a20636f6e7472616374206973206e6f74206960448201527f6e697469616c697a696e670000000000000000000000000000000000000000006064820152608401610d53565b6001600160a01b0381163b612dc65760405162461bcd60e51b815260206004820152602d60248201527f455243313936373a206e657720696d706c656d656e746174696f6e206973206e60448201527f6f74206120636f6e7472616374000000000000000000000000000000000000006064820152608401610d53565b7f360894a13ba1a3210667c828492db98dca3e2076cc3735a920a3ca505d382bbc80547fffffffffffffffffffffffff0000000000000000000000000000000000000000166001600160a01b0392909216919091179055565b612e288361329e565b600082511180612e355750805b15610f01576117e783836132de565b612e4e83836133e9565b6001600160a01b0383163b15610f01577f2569078dfb4b0305704d3008e7403993ae9601b85f7ae5e742de3de8f8011c40548281035b612e9760008683806001019450866125a5565b612ecd576040517fd1a57ed600000000000000000000000000000000000000000000000000000000815260040160405180910390fd5b818110612e8457817f2569078dfb4b0305704d3008e7403993ae9601b85f7ae5e742de3de8f8011c405414612f0157600080fd5b5050505050565b60655460ff16610ee45760405162461bcd60e51b815260206004820152601460248201527f5061757361626c653a206e6f74207061757365640000000000000000000000006044820152606401610d53565b7fee151c8401928dc223602bb187aff91b9a56c7cae5476ef1b3287b085a16c85f54610100900460ff16612ff65760405162461bcd60e51b815260206004820152603460248201527f455243373231415f5f496e697469616c697a61626c653a20636f6e747261637460448201527f206973206e6f7420696e697469616c697a696e670000000000000000000000006064820152608401610d53565b7f2569078dfb4b0305704d3008e7403993ae9601b85f7ae5e742de3de8f8011c426130218382613c9b565b507f2569078dfb4b0305704d3008e7403993ae9601b85f7ae5e742de3de8f8011c4361304d8282613c9b565b5060017f2569078dfb4b0305704d3008e7403993ae9601b85f7ae5e742de3de8f8011c40555050565b7fee151c8401928dc223602bb187aff91b9a56c7cae5476ef1b3287b085a16c85f54610100900460ff16610ee45760405162461bcd60e51b815260206004820152603460248201527f455243373231415f5f496e697469616c697a61626c653a20636f6e747261637460448201527f206973206e6f7420696e697469616c697a696e670000000000000000000000006064820152608401610d53565b600054610100900460ff1661318f5760405162461bcd60e51b815260206004820152602b60248201527f496e697469616c697a61626c653a20636f6e7472616374206973206e6f74206960448201527f6e697469616c697a696e670000000000000000000000000000000000000000006064820152608401610d53565b610ee433612442565b600054610100900460ff166132155760405162461bcd60e51b815260206004820152602b60248201527f496e697469616c697a61626c653a20636f6e7472616374206973206e6f74206960448201527f6e697469616c697a696e670000000000000000000000000000000000000000006064820152608401610d53565b6065805460ff19169055565b600054610100900460ff166129ec5760405162461bcd60e51b815260206004820152602b60248201527f496e697469616c697a61626c653a20636f6e7472616374206973206e6f74206960448201527f6e697469616c697a696e670000000000000000000000000000000000000000006064820152608401610d53565b6132a781612d49565b6040516001600160a01b038216907fbc7cd75a20ee27fd9adebab32041f755214dbc6bffa90cc0225b39da2e5c2d3b90600090a250565b60606001600160a01b0383163b61335d5760405162461bcd60e51b815260206004820152602660248201527f416464726573733a2064656c65676174652063616c6c20746f206e6f6e2d636f60448201527f6e747261637400000000000000000000000000000000000000000000000000006064820152608401610d53565b600080846001600160a01b03168460405161337891906140f5565b600060405180830381855af49150503d80600081146133b3576040519150601f19603f3d011682016040523d82523d6000602084013e6133b8565b606091505b50915091506133e082826040518060600160405280602781526020016141126027913961359e565b95945050505050565b7f2569078dfb4b0305704d3008e7403993ae9601b85f7ae5e742de3de8f8011c40546000829003613446576040517fb562e8dd00000000000000000000000000000000000000000000000000000000815260040160405180910390fd5b6001600160a01b03831660008181527f2569078dfb4b0305704d3008e7403993ae9601b85f7ae5e742de3de8f8011c456020908152604080832080546801000000000000000188020190558483527f2569078dfb4b0305704d3008e7403993ae9601b85f7ae5e742de3de8f8011c4490915281206001851460e11b4260a01b178317905582840190839083907fddf252ad1be2c89b69c2b068fc378daa952ba7f163c4a11628f55a4df523b3ef8180a4600183015b81811461353357808360007fddf252ad1be2c89b69c2b068fc378daa952ba7f163c4a11628f55a4df523b3ef600080a46001016134fb565b508160000361356e576040517f2e07630000000000000000000000000000000000000000000000000000000000815260040160405180910390fd5b7f2569078dfb4b0305704d3008e7403993ae9601b85f7ae5e742de3de8f8011c405550610f016000848385612174565b606083156135ad5750816116f8565b6116f883838151156135c25781518083602001fd5b8060405162461bcd60e51b8152600401610d5391906136b8565b7fffffffff0000000000000000000000000000000000000000000000000000000081168114610e5857600080fd5b60006020828403121561361c57600080fd5b81356116f8816135dc565b80356001600160a01b038116811461213d57600080fd5b6000806040838503121561365157600080fd5b61365a83613627565b946020939093013593505050565b60005b8381101561368357818101518382015260200161366b565b50506000910152565b600081518084526136a4816020860160208601613668565b601f01601f19169290920160200192915050565b6020815260006116f8602083018461368c565b6000602082840312156136dd57600080fd5b5035919050565b6000806000606084860312156136f957600080fd5b61370284613627565b925061371060208501613627565b9150604084013590509250925092565b60006020828403121561373257600080fd5b6116f882613627565b7f4e487b7100000000000000000000000000000000000000000000000000000000600052604160045260246000fd5b60405160c0810167ffffffffffffffff8111828210171561378d5761378d61373b565b60405290565b604051601f8201601f1916810167ffffffffffffffff811182821017156137bc576137bc61373b565b604052919050565b600067ffffffffffffffff8211156137de576137de61373b565b50601f01601f191660200190565b600082601f8301126137fd57600080fd5b813561381061380b826137c4565b613793565b81815284602083860101111561382557600080fd5b816020850160208301376000918101602001919091529392505050565b6000806040838503121561385557600080fd5b61385e83613627565b9150602083013567ffffffffffffffff81111561387a57600080fd5b613886858286016137ec565b9150509250929050565b6000602082840312156138a257600080fd5b813567ffffffffffffffff8111156138b957600080fd5b6126ec848285016137ec565b600080602083850312156138d857600080fd5b823567ffffffffffffffff808211156138f057600080fd5b818501915085601f83011261390457600080fd5b81358181111561391357600080fd5b8660208260051b850101111561392857600080fd5b60209290920196919550909350505050565b6020808252825182820181905260009190848201906040850190845b818110156113e2576139a48385516001600160a01b03815116825267ffffffffffffffff602082015116602083015260408101511515604083015262ffffff60608201511660608301525050565b9284019260809290920191600101613956565b6020808252825182820181905260009190848201906040850190845b818110156113e2578351835292840192918401916001016139d3565b600080600060608486031215613a0457600080fd5b613a0d84613627565b925060208401359150613a2260408501613627565b90509250925092565b600080600060608486031215613a4057600080fd5b613a4984613627565b95602085013595506040909401359392505050565b8015158114610e5857600080fd5b60008060408385031215613a7f57600080fd5b613a8883613627565b91506020830135613a9881613a5e565b809150509250929050565b60008060008060808587031215613ab957600080fd5b613ac285613627565b9350613ad060208601613627565b925060408501359150606085013567ffffffffffffffff811115613af357600080fd5b613aff878288016137ec565b91505092959194509250565b81516001600160a01b0316815260208083015167ffffffffffffffff169082015260408083015115159082015260608083015162ffffff16908201526080810161079d565b60008060408385031215613b6357600080fd5b613b6c83613627565b9150613b7a60208401613627565b90509250929050565b600080600060608486031215613b9857600080fd5b613ba184613627565b925060208401359150604084013567ffffffffffffffff811115613bc457600080fd5b613bd0868287016137ec565b9150509250925092565b600181811c90821680613bee57607f821691505b602082108103613c27577f4e487b7100000000000000000000000000000000000000000000000000000000600052602260045260246000fd5b50919050565b6001600160a01b03841681528260208201526060604082015260006133e0606083018461368c565b601f821115610f0157600081815260208120601f850160051c81016020861015613c7c5750805b601f850160051c820191505b81811015610cb157828155600101613c88565b815167ffffffffffffffff811115613cb557613cb561373b565b613cc981613cc38454613bda565b84613c55565b602080601f831160018114613cfe5760008415613ce65750858301515b600019600386901b1c1916600185901b178555610cb1565b600085815260208120601f198616915b82811015613d2d57888601518255948401946001909101908401613d0e565b5085821015613d4b5787850151600019600388901b60f8161c191681555b5050505050600190811b01905550565b7f4e487b7100000000000000000000000000000000000000000000000000000000600052603260045260246000fd5b60008351613d9c818460208801613668565b835190830190613db0818360208801613668565b01949350505050565b6001600160a01b0386168152600060208615158184015285604084015260a06060840152613dea60a084018661368c565b838103608085015284511515815281850151151582820152604085015115156040820152606085015160c06060830152613e2760c083018261368c565b905060808601518282036080840152613e40828261368c565b91505060a086015182820360a084015281925080518083528483019350848160051b840101858301925060005b82811015613e9b57601f19858303018652613e8982855161368c565b95870195938701939150600101613e6d565b509c9b505050505050505050505050565b600060208284031215613ebe57600080fd5b5051919050565b60006001600160a01b03808716835280861660208401525083604083015260806060830152613ef7608083018461368c565b9695505050505050565b600060208284031215613f1357600080fd5b81516116f8816135dc565b805161213d81613a5e565b600082601f830112613f3a57600080fd5b8151613f4861380b826137c4565b818152846020838601011115613f5d57600080fd5b6126ec826020830160208701613668565b600082601f830112613f7f57600080fd5b8151602067ffffffffffffffff80831115613f9c57613f9c61373b565b8260051b613fab838201613793565b9384528581018301938381019088861115613fc557600080fd5b84880192505b8583101561400157825184811115613fe35760008081fd5b613ff18a87838c0101613f29565b8352509184019190840190613fcb565b98975050505050505050565b60006020828403121561401f57600080fd5b815167ffffffffffffffff8082111561403757600080fd5b9083019060c0828603121561404b57600080fd5b61405361376a565b61405c83613f1e565b815261406a60208401613f1e565b602082015261407b60408401613f1e565b604082015260608301518281111561409257600080fd5b61409e87828601613f29565b6060830152506080830151828111156140b657600080fd5b6140c287828601613f29565b60808301525060a0830151828111156140da57600080fd5b6140e687828601613f6e565b60a08301525095945050505050565b60008251614107818460208701613668565b919091019291505056fe416464726573733a206c6f772d6c6576656c2064656c65676174652063616c6c206661696c6564a2646970667358221220ff3bfecddfbed4a0e86c9cbb63b01c9ab7bb356c706d7cd94b6df56e4fc63fa264736f6c63430008110033",
  "linkReferences": {},
  "deployedLinkReferences": {}
}