{
  "_format": "hh-sol-artifact-1",
  "contractName": "GnosisSafe",
  "sourceName": "@gnosis.pm/safe-contracts/contracts/GnosisSafe.sol",
  "abi": [
    {
      "inputs": [],
      "stateMutability": "nonpayable",
      "type": "constructor"
    },
    {
      "anonymous": false,
      "inputs": [
        {
          "indexed": false,
          "internalType": "address",
          "name": "owner",
          "type": "address"
        }
      ],
      "name": "AddedOwner",
      "type": "event"
    },
    {
      "anonymous": false,
      "inputs": [
        {
          "indexed": true,
          "internalType": "bytes32",
          "name": "approvedHash",
          "type": "bytes32"
        },
        {
          "indexed": true,
          "internalType": "address",
          "name": "owner",
          "type": "address"
        }
      ],
      "name": "ApproveHash",
      "type": "event"
    },
    {
      "anonymous": false,
      "inputs": [
        {
          "indexed": false,
          "internalType": "address",
          "name": "handler",
          "type": "address"
        }
      ],
      "name": "ChangedFallbackHandler",
      "type": "event"
    },
    {
      "anonymous": false,
      "inputs": [
        {
          "indexed": false,
          "internalType": "address",
          "name": "guard",
          "type": "address"
        }
      ],
      "name": "ChangedGuard",
      "type": "event"
    },
    {
      "anonymous": false,
      "inputs": [
        {
          "indexed": false,
          "internalType": "uint256",
          "name": "threshold",
          "type": "uint256"
        }
      ],
      "name": "ChangedThreshold",
      "type": "event"
    },
    {
      "anonymous": false,
      "inputs": [
        {
          "indexed": false,
          "internalType": "address",
          "name": "module",
          "type": "address"
        }
      ],
      "name": "DisabledModule",
      "type": "event"
    },
    {
      "anonymous": false,
      "inputs": [
        {
          "indexed": false,
          "internalType": "address",
          "name": "module",
          "type": "address"
        }
      ],
      "name": "EnabledModule",
      "type": "event"
    },
    {
      "anonymous": false,
      "inputs": [
        {
          "indexed": false,
          "internalType": "bytes32",
          "name": "txHash",
          "type": "bytes32"
        },
        {
          "indexed": false,
          "internalType": "uint256",
          "name": "payment",
          "type": "uint256"
        }
      ],
      "name": "ExecutionFailure",
      "type": "event"
    },
    {
      "anonymous": false,
      "inputs": [
        {
          "indexed": true,
          "internalType": "address",
          "name": "module",
          "type": "address"
        }
      ],
      "name": "ExecutionFromModuleFailure",
      "type": "event"
    },
    {
      "anonymous": false,
      "inputs": [
        {
          "indexed": true,
          "internalType": "address",
          "name": "module",
          "type": "address"
        }
      ],
      "name": "ExecutionFromModuleSuccess",
      "type": "event"
    },
    {
      "anonymous": false,
      "inputs": [
        {
          "indexed": false,
          "internalType": "bytes32",
          "name": "txHash",
          "type": "bytes32"
        },
        {
          "indexed": false,
          "internalType": "uint256",
          "name": "payment",
          "type": "uint256"
        }
      ],
      "name": "ExecutionSuccess",
      "type": "event"
    },
    {
      "anonymous": false,
      "inputs": [
        {
          "indexed": false,
          "internalType": "address",
          "name": "owner",
          "type": "address"
        }
      ],
      "name": "RemovedOwner",
      "type": "event"
    },
    {
      "anonymous": false,
      "inputs": [
        {
          "indexed": true,
          "internalType": "address",
          "name": "sender",
          "type": "address"
        },
        {
          "indexed": false,
          "internalType": "uint256",
          "name": "value",
          "type": "uint256"
        }
      ],
      "name": "SafeReceived",
      "type": "event"
    },
    {
      "anonymous": false,
      "inputs": [
        {
          "indexed": true,
          "internalType": "address",
          "name": "initiator",
          "type": "address"
        },
        {
          "indexed": false,
          "internalType": "address[]",
          "name": "owners",
          "type": "address[]"
        },
        {
          "indexed": false,
          "internalType": "uint256",
          "name": "threshold",
          "type": "uint256"
        },
        {
          "indexed": false,
          "internalType": "address",
          "name": "initializer",
          "type": "address"
        },
        {
          "indexed": false,
          "internalType": "address",
          "name": "fallbackHandler",
          "type": "address"
        }
      ],
      "name": "SafeSetup",
      "type": "event"
    },
    {
      "anonymous": false,
      "inputs": [
        {
          "indexed": true,
          "internalType": "bytes32",
          "name": "msgHash",
          "type": "bytes32"
        }
      ],
      "name": "SignMsg",
      "type": "event"
    },
    {
      "stateMutability": "nonpayable",
      "type": "fallback"
    },
    {
      "inputs": [],
      "name": "VERSION",
      "outputs": [
        {
          "internalType": "string",
          "name": "",
          "type": "string"
        }
      ],
      "stateMutability": "view",
      "type": "function"
    },
    {
      "inputs": [
        {
          "internalType": "address",
          "name": "owner",
          "type": "address"
        },
        {
          "internalType": "uint256",
          "name": "_threshold",
          "type": "uint256"
        }
      ],
      "name": "addOwnerWithThreshold",
      "outputs": [],
      "stateMutability": "nonpayable",
      "type": "function"
    },
    {
      "inputs": [
        {
          "internalType": "bytes32",
          "name": "hashToApprove",
          "type": "bytes32"
        }
      ],
      "name": "approveHash",
      "outputs": [],
      "stateMutability": "nonpayable",
      "type": "function"
    },
    {
      "inputs": [
        {
          "internalType": "address",
          "name": "",
          "type": "address"
        },
        {
          "internalType": "bytes32",
          "name": "",
          "type": "bytes32"
        }
      ],
      "name": "approvedHashes",
      "outputs": [
        {
          "internalType": "uint256",
          "name": "",
          "type": "uint256"
        }
      ],
      "stateMutability": "view",
      "type": "function"
    },
    {
      "inputs": [
        {
          "internalType": "uint256",
          "name": "_threshold",
          "type": "uint256"
        }
      ],
      "name": "changeThreshold",
      "outputs": [],
      "stateMutability": "nonpayable",
      "type": "function"
    },
    {
      "inputs": [
        {
          "internalType": "bytes32",
          "name": "dataHash",
          "type": "bytes32"
        },
        {
          "internalType": "bytes",
          "name": "data",
          "type": "bytes"
        },
        {
          "internalType": "bytes",
          "name": "signatures",
          "type": "bytes"
        },
        {
          "internalType": "uint256",
          "name": "requiredSignatures",
          "type": "uint256"
        }
      ],
      "name": "checkNSignatures",
      "outputs": [],
      "stateMutability": "view",
      "type": "function"
    },
    {
      "inputs": [
        {
          "internalType": "bytes32",
          "name": "dataHash",
          "type": "bytes32"
        },
        {
          "internalType": "bytes",
          "name": "data",
          "type": "bytes"
        },
        {
          "internalType": "bytes",
          "name": "signatures",
          "type": "bytes"
        }
      ],
      "name": "checkSignatures",
      "outputs": [],
      "stateMutability": "view",
      "type": "function"
    },
    {
      "inputs": [
        {
          "internalType": "address",
          "name": "prevModule",
          "type": "address"
        },
        {
          "internalType": "address",
          "name": "module",
          "type": "address"
        }
      ],
      "name": "disableModule",
      "outputs": [],
      "stateMutability": "nonpayable",
      "type": "function"
    },
    {
      "inputs": [],
      "name": "domainSeparator",
      "outputs": [
        {
          "internalType": "bytes32",
          "name": "",
          "type": "bytes32"
        }
      ],
      "stateMutability": "view",
      "type": "function"
    },
    {
      "inputs": [
        {
          "internalType": "address",
          "name": "module",
          "type": "address"
        }
      ],
      "name": "enableModule",
      "outputs": [],
      "stateMutability": "nonpayable",
      "type": "function"
    },
    {
      "inputs": [
        {
          "internalType": "address",
          "name": "to",
          "type": "address"
        },
        {
          "internalType": "uint256",
          "name": "value",
          "type": "uint256"
        },
        {
          "internalType": "bytes",
          "name": "data",
          "type": "bytes"
        },
        {
          "internalType": "enum Enum.Operation",
          "name": "operation",
          "type": "uint8"
        },
        {
          "internalType": "uint256",
          "name": "safeTxGas",
          "type": "uint256"
        },
        {
          "internalType": "uint256",
          "name": "baseGas",
          "type": "uint256"
        },
        {
          "internalType": "uint256",
          "name": "gasPrice",
          "type": "uint256"
        },
        {
          "internalType": "address",
          "name": "gasToken",
          "type": "address"
        },
        {
          "internalType": "address",
          "name": "refundReceiver",
          "type": "address"
        },
        {
          "internalType": "uint256",
          "name": "_nonce",
          "type": "uint256"
        }
      ],
      "name": "encodeTransactionData",
      "outputs": [
        {
          "internalType": "bytes",
          "name": "",
          "type": "bytes"
        }
      ],
      "stateMutability": "view",
      "type": "function"
    },
    {
      "inputs": [
        {
          "internalType": "address",
          "name": "to",
          "type": "address"
        },
        {
          "internalType": "uint256",
          "name": "value",
          "type": "uint256"
        },
        {
          "internalType": "bytes",
          "name": "data",
          "type": "bytes"
        },
        {
          "internalType": "enum Enum.Operation",
          "name": "operation",
          "type": "uint8"
        },
        {
          "internalType": "uint256",
          "name": "safeTxGas",
          "type": "uint256"
        },
        {
          "internalType": "uint256",
          "name": "baseGas",
          "type": "uint256"
        },
        {
          "internalType": "uint256",
          "name": "gasPrice",
          "type": "uint256"
        },
        {
          "internalType": "address",
          "name": "gasToken",
          "type": "address"
        },
        {
          "internalType": "address payable",
          "name": "refundReceiver",
          "type": "address"
        },
        {
          "internalType": "bytes",
          "name": "signatures",
          "type": "bytes"
        }
      ],
      "name": "execTransaction",
      "outputs": [
        {
          "internalType": "bool",
          "name": "success",
          "type": "bool"
        }
      ],
      "stateMutability": "payable",
      "type": "function"
    },
    {
      "inputs": [
        {
          "internalType": "address",
          "name": "to",
          "type": "address"
        },
        {
          "internalType": "uint256",
          "name": "value",
          "type": "uint256"
        },
        {
          "internalType": "bytes",
          "name": "data",
          "type": "bytes"
        },
        {
          "internalType": "enum Enum.Operation",
          "name": "operation",
          "type": "uint8"
        }
      ],
      "name": "execTransactionFromModule",
      "outputs": [
        {
          "internalType": "bool",
          "name": "success",
          "type": "bool"
        }
      ],
      "stateMutability": "nonpayable",
      "type": "function"
    },
    {
      "inputs": [
        {
          "internalType": "address",
          "name": "to",
          "type": "address"
        },
        {
          "internalType": "uint256",
          "name": "value",
          "type": "uint256"
        },
        {
          "internalType": "bytes",
          "name": "data",
          "type": "bytes"
        },
        {
          "internalType": "enum Enum.Operation",
          "name": "operation",
          "type": "uint8"
        }
      ],
      "name": "execTransactionFromModuleReturnData",
      "outputs": [
        {
          "internalType": "bool",
          "name": "success",
          "type": "bool"
        },
        {
          "internalType": "bytes",
          "name": "returnData",
          "type": "bytes"
        }
      ],
      "stateMutability": "nonpayable",
      "type": "function"
    },
    {
      "inputs": [],
      "name": "getChainId",
      "outputs": [
        {
          "internalType": "uint256",
          "name": "",
          "type": "uint256"
        }
      ],
      "stateMutability": "view",
      "type": "function"
    },
    {
      "inputs": [
        {
          "internalType": "address",
          "name": "start",
          "type": "address"
        },
        {
          "internalType": "uint256",
          "name": "pageSize",
          "type": "uint256"
        }
      ],
      "name": "getModulesPaginated",
      "outputs": [
        {
          "internalType": "address[]",
          "name": "array",
          "type": "address[]"
        },
        {
          "internalType": "address",
          "name": "next",
          "type": "address"
        }
      ],
      "stateMutability": "view",
      "type": "function"
    },
    {
      "inputs": [],
      "name": "getOwners",
      "outputs": [
        {
          "internalType": "address[]",
          "name": "",
          "type": "address[]"
        }
      ],
      "stateMutability": "view",
      "type": "function"
    },
    {
      "inputs": [
        {
          "internalType": "uint256",
          "name": "offset",
          "type": "uint256"
        },
        {
          "internalType": "uint256",
          "name": "length",
          "type": "uint256"
        }
      ],
      "name": "getStorageAt",
      "outputs": [
        {
          "internalType": "bytes",
          "name": "",
          "type": "bytes"
        }
      ],
      "stateMutability": "view",
      "type": "function"
    },
    {
      "inputs": [],
      "name": "getThreshold",
      "outputs": [
        {
          "internalType": "uint256",
          "name": "",
          "type": "uint256"
        }
      ],
      "stateMutability": "view",
      "type": "function"
    },
    {
      "inputs": [
        {
          "internalType": "address",
          "name": "to",
          "type": "address"
        },
        {
          "internalType": "uint256",
          "name": "value",
          "type": "uint256"
        },
        {
          "internalType": "bytes",
          "name": "data",
          "type": "bytes"
        },
        {
          "internalType": "enum Enum.Operation",
          "name": "operation",
          "type": "uint8"
        },
        {
          "internalType": "uint256",
          "name": "safeTxGas",
          "type": "uint256"
        },
        {
          "internalType": "uint256",
          "name": "baseGas",
          "type": "uint256"
        },
        {
          "internalType": "uint256",
          "name": "gasPrice",
          "type": "uint256"
        },
        {
          "internalType": "address",
          "name": "gasToken",
          "type": "address"
        },
        {
          "internalType": "address",
          "name": "refundReceiver",
          "type": "address"
        },
        {
          "internalType": "uint256",
          "name": "_nonce",
          "type": "uint256"
        }
      ],
      "name": "getTransactionHash",
      "outputs": [
        {
          "internalType": "bytes32",
          "name": "",
          "type": "bytes32"
        }
      ],
      "stateMutability": "view",
      "type": "function"
    },
    {
      "inputs": [
        {
          "internalType": "address",
          "name": "module",
          "type": "address"
        }
      ],
      "name": "isModuleEnabled",
      "outputs": [
        {
          "internalType": "bool",
          "name": "",
          "type": "bool"
        }
      ],
      "stateMutability": "view",
      "type": "function"
    },
    {
      "inputs": [
        {
          "internalType": "address",
          "name": "owner",
          "type": "address"
        }
      ],
      "name": "isOwner",
      "outputs": [
        {
          "internalType": "bool",
          "name": "",
          "type": "bool"
        }
      ],
      "stateMutability": "view",
      "type": "function"
    },
    {
      "inputs": [],
      "name": "nonce",
      "outputs": [
        {
          "internalType": "uint256",
          "name": "",
          "type": "uint256"
        }
      ],
      "stateMutability": "view",
      "type": "function"
    },
    {
      "inputs": [
        {
          "internalType": "address",
          "name": "prevOwner",
          "type": "address"
        },
        {
          "internalType": "address",
          "name": "owner",
          "type": "address"
        },
        {
          "internalType": "uint256",
          "name": "_threshold",
          "type": "uint256"
        }
      ],
      "name": "removeOwner",
      "outputs": [],
      "stateMutability": "nonpayable",
      "type": "function"
    },
    {
      "inputs": [
        {
          "internalType": "address",
          "name": "to",
          "type": "address"
        },
        {
          "internalType": "uint256",
          "name": "value",
          "type": "uint256"
        },
        {
          "internalType": "bytes",
          "name": "data",
          "type": "bytes"
        },
        {
          "internalType": "enum Enum.Operation",
          "name": "operation",
          "type": "uint8"
        }
      ],
      "name": "requiredTxGas",
      "outputs": [
        {
          "internalType": "uint256",
          "name": "",
          "type": "uint256"
        }
      ],
      "stateMutability": "nonpayable",
      "type": "function"
    },
    {
      "inputs": [
        {
          "internalType": "address",
          "name": "handler",
          "type": "address"
        }
      ],
      "name": "setFallbackHandler",
      "outputs": [],
      "stateMutability": "nonpayable",
      "type": "function"
    },
    {
      "inputs": [
        {
          "internalType": "address",
          "name": "guard",
          "type": "address"
        }
      ],
      "name": "setGuard",
      "outputs": [],
      "stateMutability": "nonpayable",
      "type": "function"
    },
    {
      "inputs": [
        {
          "internalType": "address[]",
          "name": "_owners",
          "type": "address[]"
        },
        {
          "internalType": "uint256",
          "name": "_threshold",
          "type": "uint256"
        },
        {
          "internalType": "address",
          "name": "to",
          "type": "address"
        },
        {
          "internalType": "bytes",
          "name": "data",
          "type": "bytes"
        },
        {
          "internalType": "address",
          "name": "fallbackHandler",
          "type": "address"
        },
        {
          "internalType": "address",
          "name": "paymentToken",
          "type": "address"
        },
        {
          "internalType": "uint256",
          "name": "payment",
          "type": "uint256"
        },
        {
          "internalType": "address payable",
          "name": "paymentReceiver",
          "type": "address"
        }
      ],
      "name": "setup",
      "outputs": [],
      "stateMutability": "nonpayable",
      "type": "function"
    },
    {
      "inputs": [
        {
          "internalType": "bytes32",
          "name": "",
          "type": "bytes32"
        }
      ],
      "name": "signedMessages",
      "outputs": [
        {
          "internalType": "uint256",
          "name": "",
          "type": "uint256"
        }
      ],
      "stateMutability": "view",
      "type": "function"
    },
    {
      "inputs": [
        {
          "internalType": "address",
          "name": "targetContract",
          "type": "address"
        },
        {
          "internalType": "bytes",
          "name": "calldataPayload",
          "type": "bytes"
        }
      ],
      "name": "simulateAndRevert",
      "outputs": [],
      "stateMutability": "nonpayable",
      "type": "function"
    },
    {
      "inputs": [
        {
          "internalType": "address",
          "name": "prevOwner",
          "type": "address"
        },
        {
          "internalType": "address",
          "name": "oldOwner",
          "type": "address"
        },
        {
          "internalType": "address",
          "name": "newOwner",
          "type": "address"
        }
      ],
      "name": "swapOwner",
      "outputs": [],
      "stateMutability": "nonpayable",
      "type": "function"
    },
    {
      "stateMutability": "payable",
      "type": "receive"
    }
  ],
  "bytecode": "0x608060405234801561001057600080fd5b5060016004556136b8806100256000396000f3fe6080604052600436106101dc5760003560e01c8063affed0e011610102578063e19a9dd911610095578063f08a032311610064578063f08a032314610620578063f698da2514610640578063f8dc5dd9146106a7578063ffa1ad74146106c757610218565b8063e19a9dd9146105ab578063e318b52b146105cb578063e75235b8146105eb578063e86637db1461060057610218565b8063cc2f8452116100d1578063cc2f84521461051d578063d4d9bdcd1461054b578063d8d11f781461056b578063e009cfde1461058b57610218565b8063affed0e0146104a7578063b4faba09146104bd578063b63e800d146104dd578063c4ca3a9c146104fd57610218565b80635624b25b1161017a5780636a761202116101495780636a7612021461041a5780637d8329741461042d578063934f3a1114610465578063a0e67e2b1461048557610218565b80635624b25b146103805780635ae6bd37146103ad578063610b5925146103da578063694e80c3146103fa57610218565b80632f54bf6e116101b65780632f54bf6e146102f55780633408e47014610315578063468721a7146103325780635229073f1461035257610218565b80630d582f131461027e57806312fb68e0146102a05780632d9ad53d146102c057610218565b366102185760405134815233907f3d0ce9bfc3ed7d6862dbb28b2dea94561fe714a1b4d019aa8af39730d1ad7c3d9060200160405180910390a2005b34801561022457600080fd5b507f6c9a6c4a39284e37ed1cf53d337577d14212a4870fb976a4366c693b939918d580548061024f57005b36600080373360601b365260008060143601600080855af190503d6000803e80610278573d6000fd5b503d6000f35b34801561028a57600080fd5b5061029e610299366004612ab6565b610710565b005b3480156102ac57600080fd5b5061029e6102bb366004612b9e565b6108d9565b3480156102cc57600080fd5b506102e06102db366004612c13565b610e1d565b60405190151581526020015b60405180910390f35b34801561030157600080fd5b506102e0610310366004612c13565b610e58565b34801561032157600080fd5b50465b6040519081526020016102ec565b34801561033e57600080fd5b506102e061034d366004612c3f565b610e90565b34801561035e57600080fd5b5061037261036d366004612c3f565b610f7f565b6040516102ec929190612cef565b34801561038c57600080fd5b506103a061039b366004612d0a565b610fb5565b6040516102ec9190612d2c565b3480156103b957600080fd5b506103246103c8366004612d3f565b60076020526000908152604090205481565b3480156103e657600080fd5b5061029e6103f5366004612c13565b61103b565b34801561040657600080fd5b5061029e610415366004612d3f565b6111ba565b6102e0610428366004612da1565b61129a565b34801561043957600080fd5b50610324610448366004612ab6565b600860209081526000928352604080842090915290825290205481565b34801561047157600080fd5b5061029e610480366004612e7a565b61162c565b34801561049157600080fd5b5061049a61168e565b6040516102ec9190612f2b565b3480156104b357600080fd5b5061032460055481565b3480156104c957600080fd5b5061029e6104d8366004612f3e565b61177f565b3480156104e957600080fd5b5061029e6104f8366004612f8e565b6117a2565b34801561050957600080fd5b50610324610518366004613083565b6118c3565b34801561052957600080fd5b5061053d610538366004612ab6565b61195d565b6040516102ec9291906130f4565b34801561055757600080fd5b5061029e610566366004612d3f565b611a57565b34801561057757600080fd5b5061032461058636600461311f565b611b04565b34801561059757600080fd5b5061029e6105a63660046131e0565b611b31565b3480156105b757600080fd5b5061029e6105c6366004612c13565b611c9d565b3480156105d757600080fd5b5061029e6105e6366004613219565b611d02565b3480156105f757600080fd5b50600454610324565b34801561060c57600080fd5b506103a061061b36600461311f565b611fa6565b34801561062c57600080fd5b5061029e61063b366004612c13565b612121565b34801561064c57600080fd5b5061032460007f47e79534a245952e8b16893a336b85a3d9ea9fa8c573f3d803afb92a794692184660408051602081019390935282015230606082015260800160405160208183030381529060405280519060200120905090565b3480156106b357600080fd5b5061029e6106c2366004613264565b61218a565b3480156106d357600080fd5b506103a06040518060400160405280600581526020017f312e332e3000000000000000000000000000000000000000000000000000000081525081565b610718612382565b6001600160a01b0382161580159061073a57506001600160a01b038216600114155b801561074f57506001600160a01b0382163014155b6107a05760405162461bcd60e51b815260206004820152600560248201527f475332303300000000000000000000000000000000000000000000000000000060448201526064015b60405180910390fd5b6001600160a01b0382811660009081526002602052604090205416156108085760405162461bcd60e51b815260206004820152600560248201527f47533230340000000000000000000000000000000000000000000000000000006044820152606401610797565b60026020527fe90b7bceb6e7df5418fb78d8ee546e97c83a08bbccc01a0644d599ccd2a7c2e080546001600160a01b0384811660008181526040812080549390941673ffffffffffffffffffffffffffffffffffffffff1993841617909355600183528354909116179091556003805491610882836132d4565b90915550506040516001600160a01b03831681527f9465fa0c962cc76958e6373a993326400c1c94f8be2fe3a952adfa7f60b2ea269060200160405180910390a180600454146108d5576108d5816111ba565b5050565b6108e48160416123d3565b825110156109345760405162461bcd60e51b815260206004820152600560248201527f47533032300000000000000000000000000000000000000000000000000000006044820152606401610797565b6000808060008060005b86811015610e11576041818102890160208101516040820151919092015160ff16955090935091506000849003610ba057919350839161097f8760416123d3565b8210156109ce5760405162461bcd60e51b815260206004820152600560248201527f47533032310000000000000000000000000000000000000000000000000000006044820152606401610797565b87516109db83602061240f565b1115610a295760405162461bcd60e51b815260206004820152600560248201527f47533032320000000000000000000000000000000000000000000000000000006044820152606401610797565b602082890181015189519091610a4c908390610a4690879061240f565b9061240f565b1115610a9a5760405162461bcd60e51b815260206004820152600560248201527f47533032330000000000000000000000000000000000000000000000000000006044820152606401610797565b6040517f20c13b0b000000000000000000000000000000000000000000000000000000008082528a8501602001916001600160a01b038916906320c13b0b90610ae9908f90869060040161330c565b602060405180830381865afa158015610b06573d6000803e3d6000fd5b505050506040513d601f19601f82011682018060405250810190610b2a9190613331565b7fffffffff000000000000000000000000000000000000000000000000000000001614610b995760405162461bcd60e51b815260206004820152600560248201527f47533032340000000000000000000000000000000000000000000000000000006044820152606401610797565b5050610d5f565b8360ff16600103610c3a579193508391336001600160a01b0384161480610be957506001600160a01b03851660009081526008602090815260408083208d845290915290205415155b610c355760405162461bcd60e51b815260206004820152600560248201527f47533032350000000000000000000000000000000000000000000000000000006044820152606401610797565b610d5f565b601e8460ff161115610cff576040517f19457468657265756d205369676e6564204d6573736167653a0a3332000000006020820152603c81018b9052600190605c0160405160208183030381529060405280519060200120600486610c9f9190613373565b6040805160008152602081018083529390935260ff90911690820152606081018590526080810184905260a0016020604051602081039080840390855afa158015610cee573d6000803e3d6000fd5b505050602060405103519450610d5f565b6040805160008152602081018083528c905260ff861691810191909152606081018490526080810183905260019060a0016020604051602081039080840390855afa158015610d52573d6000803e3d6000fd5b5050506020604051035194505b856001600160a01b0316856001600160a01b0316118015610d9957506001600160a01b038581166000908152600260205260409020541615155b8015610daf57506001600160a01b038516600114155b610dfb5760405162461bcd60e51b815260206004820152600560248201527f47533032360000000000000000000000000000000000000000000000000000006044820152606401610797565b8495508080610e09906132d4565b91505061093e565b50505050505050505050565b600060016001600160a01b03831614801590610e5257506001600160a01b038281166000908152600160205260409020541615155b92915050565b60006001600160a01b038216600114801590610e525750506001600160a01b0390811660009081526002602052604090205416151590565b600033600114801590610eba5750336000908152600160205260409020546001600160a01b031615155b610f065760405162461bcd60e51b815260206004820152600560248201527f47533130340000000000000000000000000000000000000000000000000000006044820152606401610797565b610f13858585855a61242b565b90508015610f4b5760405133907f6895c13664aa4f67288b25d7a21d7aaa34916e355fb9b6fae0a139a9085becb890600090a2610f77565b60405133907facd2c8702804128fdb0db2bb49f6d127dd0181c13fd45dbfe16de0930e2bd37590600090a25b949350505050565b60006060610f8f86868686610e90565b915060405160203d0181016040523d81523d6000602083013e8091505094509492505050565b60606000610fc483602061338c565b67ffffffffffffffff811115610fdc57610fdc612ae2565b6040519080825280601f01601f191660200182016040528015611006576020820181803683370190505b50905060005b8381101561103357848101546020808302840101528061102b816132d4565b91505061100c565b509392505050565b611043612382565b6001600160a01b0381161580159061106557506001600160a01b038116600114155b6110b15760405162461bcd60e51b815260206004820152600560248201527f47533130310000000000000000000000000000000000000000000000000000006044820152606401610797565b6001600160a01b0381811660009081526001602052604090205416156111195760405162461bcd60e51b815260206004820152600560248201527f47533130320000000000000000000000000000000000000000000000000000006044820152606401610797565b600160208181527fcc69885fda6bcc1a4ace058b4a62bf5e179ea78fd58a1ccd71c22cc9b688792f80546001600160a01b038581166000818152604080822080549490951673ffffffffffffffffffffffffffffffffffffffff1994851617909455959095528254168417909155519182527fecdf3a3effea5783a3c4c2140e677577666428d44ed9d474a0b3a4c9943f844091015b60405180910390a150565b6111c2612382565b6003548111156112145760405162461bcd60e51b815260206004820152600560248201527f47533230310000000000000000000000000000000000000000000000000000006044820152606401610797565b60018110156112655760405162461bcd60e51b815260206004820152600560248201527f47533230320000000000000000000000000000000000000000000000000000006044820152606401610797565b60048190556040518181527f610f7ff2b304ae8903c3de74c60c6ab1f7d6226b3f52c5161905bb5ad4039c93906020016111af565b60008060006112b48e8e8e8e8e8e8e8e8e8e600554611fa6565b6005805491925060006112c6836132d4565b90915550508051602082012091506112df82828661162c565b50600061130a7f4a204f620c8c5ccdca3fd54d003badd85ba500436a431f0cbda4f558c93c34c85490565b90506001600160a01b0381161561139057806001600160a01b03166375f0bb528f8f8f8f8f8f8f8f8f8f8f336040518d63ffffffff1660e01b815260040161135d9c9b9a9998979695949392919061340d565b600060405180830381600087803b15801561137757600080fd5b505af115801561138b573d6000803e3d6000fd5b505050505b6113bc61139f8a6109c46134d1565b603f6113ac8c604061338c565b6113b691906134e4565b90612472565b6113c8906101f46134d1565b5a10156114175760405162461bcd60e51b815260206004820152600560248201527f47533031300000000000000000000000000000000000000000000000000000006044820152606401610797565b60005a90506114888f8f8f8f8080601f016020809104026020016040519081016040528093929190818152602001838380828437600081840152601f19601f820116905080830192505050505050508e8c600014611475578e61242b565b6109c45a611483919061351f565b61242b565b93506114955a8290612489565b905083806114a257508915155b806114ac57508715155b6114f85760405162461bcd60e51b815260206004820152600560248201527f47533031330000000000000000000000000000000000000000000000000000006044820152606401610797565b600088156115105761150d828b8b8b8b6124a4565b90505b84156115545760408051858152602081018390527f442e715f626346e8c54381002da614f62bee8d27386535b2521ec8540898556e910160405180910390a161158e565b60408051858152602081018390527f23428b18acfb3ea64b08dc0c1d296ea9c09702c09083ca5272e64d115b687d23910160405180910390a15b50506001600160a01b0381161561161b576040517f932713680000000000000000000000000000000000000000000000000000000081526004810183905283151560248201526001600160a01b03821690639327136890604401600060405180830381600087803b15801561160257600080fd5b505af1158015611616573d6000803e3d6000fd5b505050505b50509b9a5050505050505050505050565b6004548061167c5760405162461bcd60e51b815260206004820152600560248201527f47533030310000000000000000000000000000000000000000000000000000006044820152606401610797565b611688848484846108d9565b50505050565b6060600060035467ffffffffffffffff8111156116ad576116ad612ae2565b6040519080825280602002602001820160405280156116d6578160200160208202803683370190505b506001600090815260026020527fe90b7bceb6e7df5418fb78d8ee546e97c83a08bbccc01a0644d599ccd2a7c2e054919250906001600160a01b03165b6001600160a01b038116600114611777578083838151811061173757611737613532565b6001600160a01b0392831660209182029290920181019190915291811660009081526002909252604090912054168161176f816132d4565b925050611713565b509092915050565b600080825160208401855af480600052503d6020523d600060403e60403d016000fd5b6117e08a8a808060200260200160405190810160405280939291908181526020018383602002808284376000920191909152508c92506125da915050565b6001600160a01b0384161561181757611817847f6c9a6c4a39284e37ed1cf53d337577d14212a4870fb976a4366c693b939918d555565b6118578787878080601f01602080910402602001604051908101604052809392919081815260200183838082843760009201919091525061289a92505050565b811561186e5761186c826000600186856124a4565b505b336001600160a01b03167f141df868a6331af528e38c83b7aa03edc19be66e37ae67f9285bf4f8e3c6a1a88b8b8b8b896040516118af959493929190613561565b60405180910390a250505050505050505050565b6000805a905061190c878787878080601f01602080910402602001604051908101604052809392919081815260200183838082843760009201919091525089925050505a61242b565b61191557600080fd5b60005a611922908361351f565b90508060405160200161193791815260200190565b60408051601f198184030181529082905262461bcd60e51b825261079791600401612d2c565b606060008267ffffffffffffffff81111561197a5761197a612ae2565b6040519080825280602002602001820160405280156119a3578160200160208202803683370190505b506001600160a01b0380861660009081526001602052604081205492945091165b6001600160a01b038116158015906119e657506001600160a01b038116600114155b80156119f157508482105b15611a495780848381518110611a0957611a09613532565b6001600160a01b03928316602091820292909201810191909152918116600090815260019092526040909120541681611a41816132d4565b9250506119c4565b908352919491935090915050565b336000908152600260205260409020546001600160a01b0316611abc5760405162461bcd60e51b815260206004820152600560248201527f47533033300000000000000000000000000000000000000000000000000000006044820152606401610797565b336000818152600860209081526040808320858452909152808220600190555183917ff2a0eb156472d1440255b0d7c1e19cc07115d1051fe605b0dce69acfec884d9c91a350565b6000611b198c8c8c8c8c8c8c8c8c8c8c611fa6565b8051906020012090509b9a5050505050505050505050565b611b39612382565b6001600160a01b03811615801590611b5b57506001600160a01b038116600114155b611ba75760405162461bcd60e51b815260206004820152600560248201527f47533130310000000000000000000000000000000000000000000000000000006044820152606401610797565b6001600160a01b03828116600090815260016020526040902054811690821614611c135760405162461bcd60e51b815260206004820152600560248201527f47533130330000000000000000000000000000000000000000000000000000006044820152606401610797565b6001600160a01b0381811660008181526001602090815260408083208054888716855282852080549190971673ffffffffffffffffffffffffffffffffffffffff199182161790965592849052825490941690915591519081527faab4fa2b463f581b2b32cb3b7e3b704b9ce37cc209b5fb4d77e593ace405427691015b60405180910390a15050565b611ca5612382565b7f4a204f620c8c5ccdca3fd54d003badd85ba500436a431f0cbda4f558c93c34c88181556040516001600160a01b03831681527f1151116914515bc0891ff9047a6cb32cf902546f83066499bcf8ba33d2353fa290602001611c91565b611d0a612382565b6001600160a01b03811615801590611d2c57506001600160a01b038116600114155b8015611d4157506001600160a01b0381163014155b611d8d5760405162461bcd60e51b815260206004820152600560248201527f47533230330000000000000000000000000000000000000000000000000000006044820152606401610797565b6001600160a01b038181166000908152600260205260409020541615611df55760405162461bcd60e51b815260206004820152600560248201527f47533230340000000000000000000000000000000000000000000000000000006044820152606401610797565b6001600160a01b03821615801590611e1757506001600160a01b038216600114155b611e635760405162461bcd60e51b815260206004820152600560248201527f47533230330000000000000000000000000000000000000000000000000000006044820152606401610797565b6001600160a01b03838116600090815260026020526040902054811690831614611ecf5760405162461bcd60e51b815260206004820152600560248201527f47533230350000000000000000000000000000000000000000000000000000006044820152606401610797565b6001600160a01b0382811660008181526002602090815260408083208054878716808652838620805492891673ffffffffffffffffffffffffffffffffffffffff19938416179055968a1685528285208054821690971790965592849052825490941690915591519081527ff8d49fc529812e9a7c5c50e69c20f0dccc0db8fa95c98bc58cc9a4f1c1299eaf910160405180910390a16040516001600160a01b03821681527f9465fa0c962cc76958e6373a993326400c1c94f8be2fe3a952adfa7f60b2ea269060200160405180910390a1505050565b606060007fbb8310d486368db6bd6f849402fdd73ad53d316b5a4b2644ad6efe0f941286d860001b8d8d8d8d604051611fe09291906135cd565b604051908190038120612006949392918e908e908e908e908e908e908e906020016135dd565b60408051601f19818403018152919052805160209091012090507f19000000000000000000000000000000000000000000000000000000000000007f01000000000000000000000000000000000000000000000000000000000000006120bc60007f47e79534a245952e8b16893a336b85a3d9ea9fa8c573f3d803afb92a794692184660408051602081019390935282015230606082015260800160405160208183030381529060405280519060200120905090565b6040517fff0000000000000000000000000000000000000000000000000000000000000093841660208201529290911660218301526022820152604281018290526062016040516020818303038152906040529150509b9a5050505050505050505050565b612129612382565b612151817f6c9a6c4a39284e37ed1cf53d337577d14212a4870fb976a4366c693b939918d555565b6040516001600160a01b03821681527f5ac6c46c93c8d0e53714ba3b53db3e7c046da994313d7ed0d192028bc7c228b0906020016111af565b612192612382565b8060016003546121a2919061351f565b10156121f05760405162461bcd60e51b815260206004820152600560248201527f47533230310000000000000000000000000000000000000000000000000000006044820152606401610797565b6001600160a01b0382161580159061221257506001600160a01b038216600114155b61225e5760405162461bcd60e51b815260206004820152600560248201527f47533230330000000000000000000000000000000000000000000000000000006044820152606401610797565b6001600160a01b038381166000908152600260205260409020548116908316146122ca5760405162461bcd60e51b815260206004820152600560248201527f47533230350000000000000000000000000000000000000000000000000000006044820152606401610797565b6001600160a01b038281166000818152600260205260408082208054888616845291832080549290951673ffffffffffffffffffffffffffffffffffffffff19928316179094559181528254909116909155600380549161232a8361364d565b90915550506040516001600160a01b03831681527ff8d49fc529812e9a7c5c50e69c20f0dccc0db8fa95c98bc58cc9a4f1c1299eaf9060200160405180910390a1806004541461237d5761237d816111ba565b505050565b3330146123d15760405162461bcd60e51b815260206004820152600560248201527f47533033310000000000000000000000000000000000000000000000000000006044820152606401610797565b565b6000826000036123e557506000610e52565b60006123f1838561338c565b9050826123fe85836134e4565b1461240857600080fd5b9392505050565b60008061241c83856134d1565b90508381101561240857600080fd5b60006001836001811115612441576124416133a3565b03612459576000808551602087018986f49050612469565b600080855160208701888a87f190505b95945050505050565b6000818310156124825781612408565b5090919050565b60008282111561249857600080fd5b6000610f77838561351f565b6000806001600160a01b038316156124bc57826124be565b325b90506001600160a01b038416612569576124f03a86106124de573a6124e0565b855b6124ea898961240f565b906123d3565b6040519092506001600160a01b0382169083156108fc029084906000818181858888f193505050506125645760405162461bcd60e51b815260206004820152600560248201527f47533031310000000000000000000000000000000000000000000000000000006044820152606401610797565b6125d0565b612577856124ea898961240f565b91506125848482846129d1565b6125d05760405162461bcd60e51b815260206004820152600560248201527f47533031320000000000000000000000000000000000000000000000000000006044820152606401610797565b5095945050505050565b6004541561262a5760405162461bcd60e51b815260206004820152600560248201527f47533230300000000000000000000000000000000000000000000000000000006044820152606401610797565b815181111561267b5760405162461bcd60e51b815260206004820152600560248201527f47533230310000000000000000000000000000000000000000000000000000006044820152606401610797565b60018110156126cc5760405162461bcd60e51b815260206004820152600560248201527f47533230320000000000000000000000000000000000000000000000000000006044820152606401610797565b600160005b835181101561285a5760008482815181106126ee576126ee613532565b6020026020010151905060006001600160a01b0316816001600160a01b03161415801561272557506001600160a01b038116600114155b801561273a57506001600160a01b0381163014155b80156127585750806001600160a01b0316836001600160a01b031614155b6127a45760405162461bcd60e51b815260206004820152600560248201527f47533230330000000000000000000000000000000000000000000000000000006044820152606401610797565b6001600160a01b03818116600090815260026020526040902054161561280c5760405162461bcd60e51b815260206004820152600560248201527f47533230340000000000000000000000000000000000000000000000000000006044820152606401610797565b6001600160a01b039283166000908152600260205260409020805473ffffffffffffffffffffffffffffffffffffffff19169382169390931790925580612852816132d4565b9150506126d1565b506001600160a01b03166000908152600260205260409020805473ffffffffffffffffffffffffffffffffffffffff191660011790559051600355600455565b600160008190526020527fcc69885fda6bcc1a4ace058b4a62bf5e179ea78fd58a1ccd71c22cc9b688792f546001600160a01b03161561291c5760405162461bcd60e51b815260206004820152600560248201527f47533130300000000000000000000000000000000000000000000000000000006044820152606401610797565b6001600081905260208190527fcc69885fda6bcc1a4ace058b4a62bf5e179ea78fd58a1ccd71c22cc9b688792f805473ffffffffffffffffffffffffffffffffffffffff191690911790556001600160a01b038216156108d5576129858260008360015a61242b565b6108d55760405162461bcd60e51b815260206004820152600560248201527f47533030300000000000000000000000000000000000000000000000000000006044820152606401610797565b604080516001600160a01b03841660248201526044808201849052825180830390910181526064909101909152602080820180517bffffffffffffffffffffffffffffffffffffffffffffffffffffffff167fa9059cbb000000000000000000000000000000000000000000000000000000001781528251600093929184919082896127105a03f13d8015612a715760208114612a795760009350612a84565b819350612a84565b600051158215171593505b5050509392505050565b6001600160a01b0381168114612aa357600080fd5b50565b8035612ab181612a8e565b919050565b60008060408385031215612ac957600080fd5b8235612ad481612a8e565b946020939093013593505050565b7f4e487b7100000000000000000000000000000000000000000000000000000000600052604160045260246000fd5b600082601f830112612b2257600080fd5b813567ffffffffffffffff80821115612b3d57612b3d612ae2565b604051601f8301601f19908116603f01168101908282118183101715612b6557612b65612ae2565b81604052838152866020858801011115612b7e57600080fd5b836020870160208301376000602085830101528094505050505092915050565b60008060008060808587031215612bb457600080fd5b84359350602085013567ffffffffffffffff80821115612bd357600080fd5b612bdf88838901612b11565b94506040870135915080821115612bf557600080fd5b50612c0287828801612b11565b949793965093946060013593505050565b600060208284031215612c2557600080fd5b813561240881612a8e565b803560028110612ab157600080fd5b60008060008060808587031215612c5557600080fd5b8435612c6081612a8e565b935060208501359250604085013567ffffffffffffffff811115612c8357600080fd5b612c8f87828801612b11565b925050612c9e60608601612c30565b905092959194509250565b6000815180845260005b81811015612ccf57602081850181015186830182015201612cb3565b506000602082860101526020601f19601f83011685010191505092915050565b8215158152604060208201526000610f776040830184612ca9565b60008060408385031215612d1d57600080fd5b50508035926020909101359150565b6020815260006124086020830184612ca9565b600060208284031215612d5157600080fd5b5035919050565b60008083601f840112612d6a57600080fd5b50813567ffffffffffffffff811115612d8257600080fd5b602083019150836020828501011115612d9a57600080fd5b9250929050565b60008060008060008060008060008060006101408c8e031215612dc357600080fd5b612dcc8c612aa6565b9a5060208c0135995067ffffffffffffffff8060408e01351115612def57600080fd5b612dff8e60408f01358f01612d58565b909a509850612e1060608e01612c30565b975060808d0135965060a08d0135955060c08d01359450612e3360e08e01612aa6565b9350612e426101008e01612aa6565b9250806101208e01351115612e5657600080fd5b50612e688d6101208e01358e01612b11565b90509295989b509295989b9093969950565b600080600060608486031215612e8f57600080fd5b83359250602084013567ffffffffffffffff80821115612eae57600080fd5b612eba87838801612b11565b93506040860135915080821115612ed057600080fd5b50612edd86828701612b11565b9150509250925092565b600081518084526020808501945080840160005b83811015612f205781516001600160a01b031687529582019590820190600101612efb565b509495945050505050565b6020815260006124086020830184612ee7565b60008060408385031215612f5157600080fd5b8235612f5c81612a8e565b9150602083013567ffffffffffffffff811115612f7857600080fd5b612f8485828601612b11565b9150509250929050565b6000806000806000806000806000806101008b8d031215612fae57600080fd5b8a3567ffffffffffffffff80821115612fc657600080fd5b818d0191508d601f830112612fda57600080fd5b813581811115612fe957600080fd5b8e60208260051b8501011115612ffe57600080fd5b60208381019d50909b508d0135995061301960408e01612aa6565b985060608d013591508082111561302f57600080fd5b5061303c8d828e01612d58565b909750955061304f905060808c01612aa6565b935061305d60a08c01612aa6565b925060c08b0135915061307260e08c01612aa6565b90509295989b9194979a5092959850565b60008060008060006080868803121561309b57600080fd5b85356130a681612a8e565b945060208601359350604086013567ffffffffffffffff8111156130c957600080fd5b6130d588828901612d58565b90945092506130e8905060608701612c30565b90509295509295909350565b6040815260006131076040830185612ee7565b90506001600160a01b03831660208301529392505050565b60008060008060008060008060008060006101408c8e03121561314157600080fd5b8b3561314c81612a8e565b9a5060208c0135995060408c013567ffffffffffffffff81111561316f57600080fd5b61317b8e828f01612d58565b909a50985061318e905060608d01612c30565b965060808c0135955060a08c0135945060c08c0135935060e08c01356131b381612a8e565b92506101008c01356131c481612a8e565b809250506101208c013590509295989b509295989b9093969950565b600080604083850312156131f357600080fd5b82356131fe81612a8e565b9150602083013561320e81612a8e565b809150509250929050565b60008060006060848603121561322e57600080fd5b833561323981612a8e565b9250602084013561324981612a8e565b9150604084013561325981612a8e565b809150509250925092565b60008060006060848603121561327957600080fd5b833561328481612a8e565b9250602084013561329481612a8e565b929592945050506040919091013590565b7f4e487b7100000000000000000000000000000000000000000000000000000000600052601160045260246000fd5b60007fffffffffffffffffffffffffffffffffffffffffffffffffffffffffffffffff8203613305576133056132a5565b5060010190565b60408152600061331f6040830185612ca9565b82810360208401526124698185612ca9565b60006020828403121561334357600080fd5b81517fffffffff000000000000000000000000000000000000000000000000000000008116811461240857600080fd5b60ff8281168282160390811115610e5257610e526132a5565b8082028115828204841417610e5257610e526132a5565b7f4e487b7100000000000000000000000000000000000000000000000000000000600052602160045260246000fd5b60028110613409577f4e487b7100000000000000000000000000000000000000000000000000000000600052602160045260246000fd5b9052565b60006101606001600160a01b038f1683528d60208401528060408401528b81840152506101808b8d828501376000818d85010152601f19601f8d01168301613458606085018d6133d2565b8a60808501528960a08501528860c085015261347f60e08501896001600160a01b03169052565b6001600160a01b03871661010085015281848203016101208501526134a682820187612ca9565b925050506134c06101408301846001600160a01b03169052565b9d9c50505050505050505050505050565b80820180821115610e5257610e526132a5565b60008261351a577f4e487b7100000000000000000000000000000000000000000000000000000000600052601260045260246000fd5b500490565b81810381811115610e5257610e526132a5565b7f4e487b7100000000000000000000000000000000000000000000000000000000600052603260045260246000fd5b6080808252810185905260008660a08301825b888110156135a457823561358781612a8e565b6001600160a01b0316825260209283019290910190600101613574565b50602084019690965250506001600160a01b039283166040820152911660609091015292915050565b8183823760009101908152919050565b6000610160820190508c82526001600160a01b03808d1660208401528b60408401528a6060840152613612608084018b6133d2565b60a083019890985260c082019690965260e0810194909452918516610100840152909316610120820152610140019190915295945050505050565b60008161365c5761365c6132a5565b507fffffffffffffffffffffffffffffffffffffffffffffffffffffffffffffffff019056fea2646970667358221220662f6dab2c1f4f7ba7af13b565b0b43bb3ccec2f547ea0933dea3e5477b115a364736f6c63430008110033",
  "linkReferences": {},
  "deployedLinkReferences": {}
}